{
  "_format": "hh-sol-artifact-1",
  "contractName": "HarbergerAsset",
  "sourceName": "contracts/HarbergerAsset.sol",
  "abi": [
    {
      "inputs": [
        {
          "internalType": "address",
          "name": "_admin",
          "type": "address"
        }
      ],
      "stateMutability": "nonpayable",
      "type": "constructor"
    },
    {
      "anonymous": false,
      "inputs": [
        {
          "indexed": true,
          "internalType": "address",
          "name": "owner",
          "type": "address"
        },
        {
          "indexed": true,
          "internalType": "address",
          "name": "approved",
          "type": "address"
        },
        {
          "indexed": true,
          "internalType": "uint256",
          "name": "tokenId",
          "type": "uint256"
        }
      ],
      "name": "Approval",
      "type": "event"
    },
    {
      "anonymous": false,
      "inputs": [
        {
          "indexed": true,
          "internalType": "address",
          "name": "owner",
          "type": "address"
        },
        {
          "indexed": true,
          "internalType": "address",
          "name": "operator",
          "type": "address"
        },
        {
          "indexed": false,
          "internalType": "bool",
          "name": "approved",
          "type": "bool"
        }
      ],
      "name": "ApprovalForAll",
      "type": "event"
    },
    {
      "anonymous": false,
      "inputs": [
        {
          "indexed": true,
          "internalType": "uint256",
          "name": "timestamp",
          "type": "uint256"
        },
        {
          "indexed": true,
          "internalType": "uint256",
          "name": "tokenId",
          "type": "uint256"
        },
        {
          "indexed": true,
          "internalType": "address",
          "name": "from",
          "type": "address"
        },
        {
          "indexed": false,
          "internalType": "address",
          "name": "to",
          "type": "address"
        },
        {
          "indexed": false,
          "internalType": "uint256",
          "name": "value",
          "type": "uint256"
        }
      ],
      "name": "Collect",
      "type": "event"
    },
    {
      "anonymous": false,
      "inputs": [
        {
          "indexed": true,
          "internalType": "uint256",
          "name": "timestamp",
          "type": "uint256"
        },
        {
          "indexed": true,
          "internalType": "uint256",
          "name": "tokenId",
          "type": "uint256"
        },
        {
          "indexed": true,
          "internalType": "address",
          "name": "from",
          "type": "address"
        },
        {
          "indexed": false,
          "internalType": "address",
          "name": "to",
          "type": "address"
        },
        {
          "indexed": false,
          "internalType": "uint256",
          "name": "value",
          "type": "uint256"
        }
      ],
      "name": "Deposit",
      "type": "event"
    },
    {
      "anonymous": false,
      "inputs": [
        {
          "indexed": true,
          "internalType": "uint256",
          "name": "timestamp",
          "type": "uint256"
        },
        {
          "indexed": true,
          "internalType": "uint256",
          "name": "tokenId",
          "type": "uint256"
        },
        {
          "indexed": true,
          "internalType": "address",
          "name": "from",
          "type": "address"
        },
        {
          "indexed": false,
          "internalType": "address",
          "name": "to",
          "type": "address"
        }
      ],
      "name": "Foreclosure",
      "type": "event"
    },
    {
      "anonymous": false,
      "inputs": [
        {
          "indexed": true,
          "internalType": "uint256",
          "name": "timestamp",
          "type": "uint256"
        },
        {
          "indexed": true,
          "internalType": "uint256",
          "name": "tokenId",
          "type": "uint256"
        },
        {
          "indexed": true,
          "internalType": "address",
          "name": "from",
          "type": "address"
        },
        {
          "indexed": false,
          "internalType": "uint256",
          "name": "value",
          "type": "uint256"
        }
      ],
      "name": "List",
      "type": "event"
    },
    {
      "anonymous": false,
      "inputs": [
        {
          "indexed": true,
          "internalType": "uint256",
          "name": "timestamp",
          "type": "uint256"
        },
        {
          "indexed": true,
          "internalType": "uint256",
          "name": "tokenId",
          "type": "uint256"
        },
        {
          "indexed": true,
          "internalType": "address",
          "name": "from",
          "type": "address"
        },
        {
          "indexed": false,
          "internalType": "address",
          "name": "to",
          "type": "address"
        }
      ],
      "name": "Mint",
      "type": "event"
    },
    {
      "anonymous": false,
      "inputs": [
        {
          "indexed": true,
          "internalType": "uint256",
          "name": "timestamp",
          "type": "uint256"
        },
        {
          "indexed": true,
          "internalType": "uint256",
          "name": "tokenId",
          "type": "uint256"
        },
        {
          "indexed": true,
          "internalType": "address",
          "name": "from",
          "type": "address"
        },
        {
          "indexed": false,
          "internalType": "address",
          "name": "to",
          "type": "address"
        },
        {
          "indexed": false,
          "internalType": "uint256",
          "name": "value",
          "type": "uint256"
        }
      ],
      "name": "Refund",
      "type": "event"
    },
    {
      "anonymous": false,
      "inputs": [
        {
          "indexed": true,
          "internalType": "uint256",
          "name": "timestamp",
          "type": "uint256"
        },
        {
          "indexed": true,
          "internalType": "uint256",
          "name": "tokenId",
          "type": "uint256"
        },
        {
          "indexed": true,
          "internalType": "address",
          "name": "from",
          "type": "address"
        },
        {
          "indexed": false,
          "internalType": "address",
          "name": "to",
          "type": "address"
        },
        {
          "indexed": false,
          "internalType": "uint256",
          "name": "value",
          "type": "uint256"
        }
      ],
      "name": "Sale",
      "type": "event"
    },
    {
      "anonymous": false,
      "inputs": [
        {
          "indexed": true,
          "internalType": "address",
          "name": "from",
          "type": "address"
        },
        {
          "indexed": true,
          "internalType": "address",
          "name": "to",
          "type": "address"
        },
        {
          "indexed": true,
          "internalType": "uint256",
          "name": "tokenId",
          "type": "uint256"
        }
      ],
      "name": "Transfer",
      "type": "event"
    },
    {
      "inputs": [],
      "name": "admin",
      "outputs": [
        {
          "internalType": "address",
          "name": "",
          "type": "address"
        }
      ],
      "stateMutability": "view",
      "type": "function"
    },
    {
      "inputs": [
        {
          "internalType": "address",
          "name": "to",
          "type": "address"
        },
        {
          "internalType": "uint256",
          "name": "tokenId",
          "type": "uint256"
        }
      ],
      "name": "approve",
      "outputs": [],
      "stateMutability": "nonpayable",
      "type": "function"
    },
    {
      "inputs": [
        {
          "internalType": "uint256",
          "name": "",
          "type": "uint256"
        }
      ],
      "name": "assets",
      "outputs": [
        {
          "internalType": "uint256",
          "name": "tokenId",
          "type": "uint256"
        },
        {
          "internalType": "address",
          "name": "creator",
          "type": "address"
        },
        {
          "internalType": "uint256",
          "name": "priceAmount",
          "type": "uint256"
        },
        {
          "internalType": "uint256",
          "name": "taxAmount",
          "type": "uint256"
        },
        {
          "internalType": "uint256",
          "name": "totalDepositAmount",
          "type": "uint256"
        },
        {
          "internalType": "uint256",
          "name": "lastDepositTimestamp",
          "type": "uint256"
        },
        {
          "internalType": "uint256",
          "name": "foreclosureTimestamp",
          "type": "uint256"
        }
      ],
      "stateMutability": "view",
      "type": "function"
    },
    {
      "inputs": [
        {
          "internalType": "address",
          "name": "owner",
          "type": "address"
        }
      ],
      "name": "balanceOf",
      "outputs": [
        {
          "internalType": "uint256",
          "name": "",
          "type": "uint256"
        }
      ],
      "stateMutability": "view",
      "type": "function"
    },
    {
      "inputs": [
        {
          "internalType": "uint256",
          "name": "",
          "type": "uint256"
        },
        {
          "internalType": "address",
          "name": "",
          "type": "address"
        }
      ],
      "name": "balances",
      "outputs": [
        {
          "internalType": "uint256",
          "name": "",
          "type": "uint256"
        }
      ],
      "stateMutability": "view",
      "type": "function"
    },
    {
      "inputs": [],
      "name": "baseInterval",
      "outputs": [
        {
          "internalType": "uint256",
          "name": "",
          "type": "uint256"
        }
      ],
      "stateMutability": "view",
      "type": "function"
    },
    {
      "inputs": [
        {
          "internalType": "uint256",
          "name": "",
          "type": "uint256"
        }
      ],
      "name": "baseTaxValues",
      "outputs": [
        {
          "internalType": "uint256",
          "name": "",
          "type": "uint256"
        }
      ],
      "stateMutability": "view",
      "type": "function"
    },
    {
      "inputs": [],
      "name": "baseURI",
      "outputs": [
        {
          "internalType": "string",
          "name": "",
          "type": "string"
        }
      ],
      "stateMutability": "view",
      "type": "function"
    },
    {
      "inputs": [
        {
          "internalType": "uint256",
          "name": "_tokenId",
          "type": "uint256"
        }
      ],
      "name": "buyAssetInWei",
      "outputs": [],
      "stateMutability": "payable",
      "type": "function"
    },
    {
      "inputs": [
        {
          "internalType": "uint256",
          "name": "_tokenId",
          "type": "uint256"
        }
      ],
      "name": "collectFunds",
      "outputs": [],
      "stateMutability": "nonpayable",
      "type": "function"
    },
    {
      "inputs": [
        {
          "internalType": "uint256",
          "name": "",
          "type": "uint256"
        },
        {
          "internalType": "address",
          "name": "",
          "type": "address"
        }
      ],
      "name": "depositHistory",
      "outputs": [
        {
          "internalType": "uint256",
          "name": "",
          "type": "uint256"
        }
      ],
      "stateMutability": "view",
      "type": "function"
    },
    {
      "inputs": [
        {
          "internalType": "uint256",
          "name": "_tokenId",
          "type": "uint256"
        }
      ],
      "name": "depositTaxInWei",
      "outputs": [],
      "stateMutability": "payable",
      "type": "function"
    },
    {
      "inputs": [],
      "name": "fetchAssets",
      "outputs": [
        {
          "components": [
            {
              "internalType": "uint256",
              "name": "tokenId",
              "type": "uint256"
            },
            {
              "internalType": "address",
              "name": "creator",
              "type": "address"
            },
            {
              "internalType": "uint256",
              "name": "priceAmount",
              "type": "uint256"
            },
            {
              "internalType": "uint256",
              "name": "taxAmount",
              "type": "uint256"
            },
            {
              "internalType": "uint256",
              "name": "totalDepositAmount",
              "type": "uint256"
            },
            {
              "internalType": "uint256",
              "name": "lastDepositTimestamp",
              "type": "uint256"
            },
            {
              "internalType": "uint256",
              "name": "foreclosureTimestamp",
              "type": "uint256"
            }
          ],
          "internalType": "struct HarbergerAsset.Asset[]",
          "name": "",
          "type": "tuple[]"
        }
      ],
      "stateMutability": "view",
      "type": "function"
    },
    {
      "inputs": [
        {
          "internalType": "uint256",
          "name": "_tokenId",
          "type": "uint256"
        }
      ],
      "name": "foreclosure",
      "outputs": [
        {
          "internalType": "bool",
          "name": "",
          "type": "bool"
        }
      ],
      "stateMutability": "view",
      "type": "function"
    },
    {
      "inputs": [
        {
          "internalType": "uint256",
          "name": "tokenId",
          "type": "uint256"
        }
      ],
      "name": "getApproved",
      "outputs": [
        {
          "internalType": "address",
          "name": "",
          "type": "address"
        }
      ],
      "stateMutability": "view",
      "type": "function"
    },
    {
      "inputs": [
        {
          "internalType": "address",
          "name": "owner",
          "type": "address"
        },
        {
          "internalType": "address",
          "name": "operator",
          "type": "address"
        }
      ],
      "name": "isApprovedForAll",
      "outputs": [
        {
          "internalType": "bool",
          "name": "",
          "type": "bool"
        }
      ],
      "stateMutability": "view",
      "type": "function"
    },
    {
      "inputs": [
        {
          "internalType": "uint256",
          "name": "_tokenId",
          "type": "uint256"
        },
        {
          "internalType": "uint256",
          "name": "_priceAmount",
          "type": "uint256"
        }
      ],
      "name": "listAssetForSaleInWei",
      "outputs": [],
      "stateMutability": "nonpayable",
      "type": "function"
    },
    {
      "inputs": [
        {
          "internalType": "string",
          "name": "_tokenURI",
          "type": "string"
        },
        {
          "internalType": "address",
          "name": "_creator",
          "type": "address"
        }
      ],
      "name": "mintAsset",
      "outputs": [
        {
          "internalType": "uint256",
          "name": "",
          "type": "uint256"
        }
      ],
      "stateMutability": "nonpayable",
      "type": "function"
    },
    {
      "inputs": [],
      "name": "name",
      "outputs": [
        {
          "internalType": "string",
          "name": "",
          "type": "string"
        }
      ],
      "stateMutability": "view",
      "type": "function"
    },
    {
      "inputs": [
        {
          "internalType": "uint256",
          "name": "tokenId",
          "type": "uint256"
        }
      ],
      "name": "ownerOf",
      "outputs": [
        {
          "internalType": "address",
          "name": "",
          "type": "address"
        }
      ],
      "stateMutability": "view",
      "type": "function"
    },
    {
      "inputs": [
        {
          "internalType": "uint256",
          "name": "_tokenId",
          "type": "uint256"
        }
      ],
      "name": "reclaimAsset",
      "outputs": [],
      "stateMutability": "nonpayable",
      "type": "function"
    },
    {
      "inputs": [],
      "name": "royaltyPercentage",
      "outputs": [
        {
          "internalType": "uint256",
          "name": "",
          "type": "uint256"
        }
      ],
      "stateMutability": "view",
      "type": "function"
    },
    {
      "inputs": [
        {
          "internalType": "address",
          "name": "from",
          "type": "address"
        },
        {
          "internalType": "address",
          "name": "to",
          "type": "address"
        },
        {
          "internalType": "uint256",
          "name": "tokenId",
          "type": "uint256"
        }
      ],
      "name": "safeTransferFrom",
      "outputs": [],
      "stateMutability": "nonpayable",
      "type": "function"
    },
    {
      "inputs": [
        {
          "internalType": "address",
          "name": "from",
          "type": "address"
        },
        {
          "internalType": "address",
          "name": "to",
          "type": "address"
        },
        {
          "internalType": "uint256",
          "name": "tokenId",
          "type": "uint256"
        },
        {
          "internalType": "bytes",
          "name": "_data",
          "type": "bytes"
        }
      ],
      "name": "safeTransferFrom",
      "outputs": [],
      "stateMutability": "nonpayable",
      "type": "function"
    },
    {
      "inputs": [
        {
          "internalType": "address",
          "name": "operator",
          "type": "address"
        },
        {
          "internalType": "bool",
          "name": "approved",
          "type": "bool"
        }
      ],
      "name": "setApprovalForAll",
      "outputs": [],
      "stateMutability": "nonpayable",
      "type": "function"
    },
    {
      "inputs": [
        {
          "internalType": "uint256",
          "name": "_tokenId",
          "type": "uint256"
        },
        {
          "internalType": "uint256",
          "name": "_amount",
          "type": "uint256"
        }
      ],
      "name": "setBaseTaxValueInWei",
      "outputs": [],
      "stateMutability": "nonpayable",
      "type": "function"
    },
    {
      "inputs": [
        {
          "internalType": "uint256",
          "name": "_percentage",
          "type": "uint256"
        }
      ],
      "name": "setRoyaltyPercentage",
      "outputs": [],
      "stateMutability": "nonpayable",
      "type": "function"
    },
    {
      "inputs": [
        {
          "internalType": "uint256",
          "name": "_percentage",
          "type": "uint256"
        }
      ],
      "name": "setTaxRatePercentage",
      "outputs": [],
      "stateMutability": "nonpayable",
      "type": "function"
    },
    {
      "inputs": [
        {
          "internalType": "bytes4",
          "name": "interfaceId",
          "type": "bytes4"
        }
      ],
      "name": "supportsInterface",
      "outputs": [
        {
          "internalType": "bool",
          "name": "",
          "type": "bool"
        }
      ],
      "stateMutability": "view",
      "type": "function"
    },
    {
      "inputs": [],
      "name": "symbol",
      "outputs": [
        {
          "internalType": "string",
          "name": "",
          "type": "string"
        }
      ],
      "stateMutability": "view",
      "type": "function"
    },
    {
      "inputs": [],
      "name": "taxRatePercentage",
      "outputs": [
        {
          "internalType": "uint256",
          "name": "",
          "type": "uint256"
        }
      ],
      "stateMutability": "view",
      "type": "function"
    },
    {
      "inputs": [
        {
          "internalType": "uint256",
          "name": "tokenId",
          "type": "uint256"
        }
      ],
      "name": "tokenURI",
      "outputs": [
        {
          "internalType": "string",
          "name": "",
          "type": "string"
        }
      ],
      "stateMutability": "view",
      "type": "function"
    },
    {
      "inputs": [
        {
          "internalType": "string",
          "name": "",
          "type": "string"
        }
      ],
      "name": "tokenURIs",
      "outputs": [
        {
          "internalType": "bool",
          "name": "",
          "type": "bool"
        }
      ],
      "stateMutability": "view",
      "type": "function"
    },
    {
      "inputs": [
        {
          "internalType": "uint256",
          "name": "",
          "type": "uint256"
        }
      ],
      "name": "totalOwners",
      "outputs": [
        {
          "internalType": "uint256",
          "name": "",
          "type": "uint256"
        }
      ],
      "stateMutability": "view",
      "type": "function"
    },
    {
      "inputs": [
        {
          "internalType": "address",
          "name": "from",
          "type": "address"
        },
        {
          "internalType": "address",
          "name": "to",
          "type": "address"
        },
        {
          "internalType": "uint256",
          "name": "tokenId",
          "type": "uint256"
        }
      ],
      "name": "transferFrom",
      "outputs": [],
      "stateMutability": "nonpayable",
      "type": "function"
    }
  ],
  "bytecode": "0x6080604052620151806009556040518060400160405280601581526020017f68747470733a2f2f697066732e696f2f697066732f0000000000000000000000815250600a908051906020019062000058929190620001a6565b50600a600b55600a600c55600b54606462000074919062000299565b600d55600c54606462000088919062000299565b600e553480156200009857600080fd5b5060405162006370380380620063708339818101604052810190620000be91906200026d565b6040518060400160405280600e81526020017f48617262657267657241737365740000000000000000000000000000000000008152506040518060400160405280600581526020017f4153534554000000000000000000000000000000000000000000000000000000815250816000908051906020019062000142929190620001a6565b5080600190805190602001906200015b929190620001a6565b50505080600860006101000a81548173ffffffffffffffffffffffffffffffffffffffff021916908373ffffffffffffffffffffffffffffffffffffffff16021790555050620003bd565b828054620001b4906200030f565b90600052602060002090601f016020900481019282620001d8576000855562000224565b82601f10620001f357805160ff191683800117855562000224565b8280016001018555821562000224579182015b828111156200022357825182559160200191906001019062000206565b5b50905062000233919062000237565b5090565b5b808211156200025257600081600090555060010162000238565b5090565b6000815190506200026781620003a3565b92915050565b6000602082840312156200028057600080fd5b6000620002908482850162000256565b91505092915050565b6000620002a68262000305565b9150620002b38362000305565b925082620002c657620002c562000345565b5b828204905092915050565b6000620002de82620002e5565b9050919050565b600073ffffffffffffffffffffffffffffffffffffffff82169050919050565b6000819050919050565b600060028204905060018216806200032857607f821691505b602082108114156200033f576200033e62000374565b5b50919050565b7f4e487b7100000000000000000000000000000000000000000000000000000000600052601260045260246000fd5b7f4e487b7100000000000000000000000000000000000000000000000000000000600052602260045260246000fd5b620003ae81620002d1565b8114620003ba57600080fd5b50565b615fa380620003cd6000396000f3fe6080604052600436106102045760003560e01c80638a71bb2d11610118578063cbac4d9d116100a0578063e985e9c51161006f578063e985e9c5146107c1578063e9b03cf4146107fe578063eefe708f14610827578063f851a44014610864578063fa8e31341461088f57610204565b8063cbac4d9d14610709578063cd66710d14610725578063cf35bdd014610762578063e96c83e5146107a557610204565b8063a22cb465116100e7578063a22cb46514610600578063b88d4fde14610629578063b8d1e3d714610652578063c3a33aad1461068f578063c87b56dd146106cc57610204565b80638a71bb2d146105425780638c5b3b931461056d5780639288fdc61461059857806395d89b41146105d557610204565b80634a3fd1491161019b57806361ba27da1161016a57806361ba27da146104375780636352211e146104605780636b865d151461049d5780636c0360eb146104da57806370a082311461050557610204565b80634a3fd14914610391578063597e4734146103bc5780635a03d6a7146103e55780635cbd59c31461040e57610204565b80630e5b7c53116101d75780630e5b7c53146102d75780631f3203311461030257806323b872dd1461033f57806342842e0e1461036857610204565b806301ffc9a71461020957806306fdde0314610246578063081812fc14610271578063095ea7b3146102ae575b600080fd5b34801561021557600080fd5b50610230600480360381019061022b91906141fc565b6108b8565b60405161023d9190614b63565b60405180910390f35b34801561025257600080fd5b5061025b61099a565b6040516102689190614b7e565b60405180910390f35b34801561027d57600080fd5b50610298600480360381019061029391906142e3565b610a2c565b6040516102a59190614a7a565b60405180910390f35b3480156102ba57600080fd5b506102d560048036038101906102d091906141c0565b610ab1565b005b3480156102e357600080fd5b506102ec610bc9565b6040516102f99190615000565b60405180910390f35b34801561030e57600080fd5b506103296004803603810190610324919061430c565b610bcf565b6040516103369190615000565b60405180910390f35b34801561034b57600080fd5b50610366600480360381019061036191906140ba565b610bf4565b005b34801561037457600080fd5b5061038f600480360381019061038a91906140ba565b610c54565b005b34801561039d57600080fd5b506103a6610c74565b6040516103b39190614b41565b60405180910390f35b3480156103c857600080fd5b506103e360048036038101906103de91906142e3565b610e29565b005b3480156103f157600080fd5b5061040c60048036038101906104079190614348565b61117d565b005b34801561041a57600080fd5b50610435600480360381019061043091906142e3565b6113f0565b005b34801561044357600080fd5b5061045e600480360381019061045991906142e3565b611638565b005b34801561046c57600080fd5b50610487600480360381019061048291906142e3565b61171e565b6040516104949190614a7a565b60405180910390f35b3480156104a957600080fd5b506104c460048036038101906104bf919061428f565b6117d0565b6040516104d19190615000565b60405180910390f35b3480156104e657600080fd5b506104ef611a90565b6040516104fc9190614b7e565b60405180910390f35b34801561051157600080fd5b5061052c60048036038101906105279190614055565b611b1e565b6040516105399190615000565b60405180910390f35b34801561054e57600080fd5b50610557611bd6565b6040516105649190615000565b60405180910390f35b34801561057957600080fd5b50610582611bdc565b60405161058f9190615000565b60405180910390f35b3480156105a457600080fd5b506105bf60048036038101906105ba91906142e3565b611be2565b6040516105cc9190615000565b60405180910390f35b3480156105e157600080fd5b506105ea611bfa565b6040516105f79190614b7e565b60405180910390f35b34801561060c57600080fd5b5061062760048036038101906106229190614184565b611c8c565b005b34801561063557600080fd5b50610650600480360381019061064b9190614109565b611e0d565b005b34801561065e57600080fd5b50610679600480360381019061067491906142e3565b611ef3565b6040516106869190615000565b60405180910390f35b34801561069b57600080fd5b506106b660048036038101906106b1919061424e565b611f0b565b6040516106c39190614b63565b60405180910390f35b3480156106d857600080fd5b506106f360048036038101906106ee91906142e3565b611f41565b6040516107009190614b7e565b60405180910390f35b610723600480360381019061071e91906142e3565b612093565b005b34801561073157600080fd5b5061074c600480360381019061074791906142e3565b6123d7565b6040516107599190614b63565b60405180910390f35b34801561076e57600080fd5b50610789600480360381019061078491906142e3565b612444565b60405161079c979695949392919061501b565b60405180910390f35b6107bf60048036038101906107ba91906142e3565b6124a6565b005b3480156107cd57600080fd5b506107e860048036038101906107e3919061407e565b6127ab565b6040516107f59190614b63565b60405180910390f35b34801561080a57600080fd5b5061082560048036038101906108209190614348565b61283f565b005b34801561083357600080fd5b5061084e6004803603810190610849919061430c565b612a25565b60405161085b9190615000565b60405180910390f35b34801561087057600080fd5b50610879612a4a565b6040516108869190614a7a565b60405180910390f35b34801561089b57600080fd5b506108b660048036038101906108b191906142e3565b612a70565b005b60007f80ac58cd000000000000000000000000000000000000000000000000000000007bffffffffffffffffffffffffffffffffffffffffffffffffffffffff1916827bffffffffffffffffffffffffffffffffffffffffffffffffffffffff1916148061098357507f5b5e139f000000000000000000000000000000000000000000000000000000007bffffffffffffffffffffffffffffffffffffffffffffffffffffffff1916827bffffffffffffffffffffffffffffffffffffffffffffffffffffffff1916145b80610993575061099282612b56565b5b9050919050565b6060600080546109a990615358565b80601f01602080910402602001604051908101604052809291908181526020018280546109d590615358565b8015610a225780601f106109f757610100808354040283529160200191610a22565b820191906000526020600020905b815481529060010190602001808311610a0557829003601f168201915b5050505050905090565b6000610a3782612bc0565b610a76576040517f08c379a0000000000000000000000000000000000000000000000000000000008152600401610a6d90614e40565b60405180910390fd5b6004600083815260200190815260200160002060009054906101000a900473ffffffffffffffffffffffffffffffffffffffff169050919050565b6000610abc8261171e565b90508073ffffffffffffffffffffffffffffffffffffffff168373ffffffffffffffffffffffffffffffffffffffff161415610b2d576040517f08c379a0000000000000000000000000000000000000000000000000000000008152600401610b2490614f40565b60405180910390fd5b8073ffffffffffffffffffffffffffffffffffffffff16610b4c612c2c565b73ffffffffffffffffffffffffffffffffffffffff161480610b7b5750610b7a81610b75612c2c565b6127ab565b5b610bba576040517f08c379a0000000000000000000000000000000000000000000000000000000008152600401610bb190614d80565b60405180910390fd5b610bc48383612c34565b505050565b60095481565b6010602052816000526040600020602052806000526040600020600091509150505481565b610c05610bff612c2c565b82612ced565b610c44576040517f08c379a0000000000000000000000000000000000000000000000000000000008152600401610c3b90614f80565b60405180910390fd5b610c4f838383612dcb565b505050565b610c6f83838360405180602001604052806000815250611e0d565b505050565b60606000610c826007613027565b905060008167ffffffffffffffff811115610cc6577f4e487b7100000000000000000000000000000000000000000000000000000000600052604160045260246000fd5b604051908082528060200260200182016040528015610cff57816020015b610cec613e26565b815260200190600190039081610ce45790505b50905060005b82811015610e2057600f6000600183610d1e919061518d565b81526020019081526020016000206040518060e0016040529081600082015481526020016001820160009054906101000a900473ffffffffffffffffffffffffffffffffffffffff1673ffffffffffffffffffffffffffffffffffffffff1673ffffffffffffffffffffffffffffffffffffffff16815260200160028201548152602001600382015481526020016004820154815260200160058201548152602001600682015481525050828281518110610e02577f4e487b7100000000000000000000000000000000000000000000000000000000600052603260045260246000fd5b60200260200101819052508080610e18906153bb565b915050610d05565b50809250505090565b80610e3381612bc0565b610e72576040517f08c379a0000000000000000000000000000000000000000000000000000000008152600401610e6990614ce0565b60405180910390fd5b81610e7b612c2c565b73ffffffffffffffffffffffffffffffffffffffff16600860009054906101000a900473ffffffffffffffffffffffffffffffffffffffff1673ffffffffffffffffffffffffffffffffffffffff161480610f3e5750610ed9612c2c565b73ffffffffffffffffffffffffffffffffffffffff16600f600083815260200190815260200160002060010160009054906101000a900473ffffffffffffffffffffffffffffffffffffffff1673ffffffffffffffffffffffffffffffffffffffff16145b610f7d576040517f08c379a0000000000000000000000000000000000000000000000000000000008152600401610f7490614d60565b60405180910390fd5b6000601060008581526020019081526020016000206000610f9c612c2c565b73ffffffffffffffffffffffffffffffffffffffff1673ffffffffffffffffffffffffffffffffffffffff1681526020019081526020016000205411611017576040517f08c379a000000000000000000000000000000000000000000000000000000000815260040161100e90614c60565b60405180910390fd5b6000601060008581526020019081526020016000206000611036612c2c565b73ffffffffffffffffffffffffffffffffffffffff1673ffffffffffffffffffffffffffffffffffffffff16815260200190815260200160002054905061107b612c2c565b73ffffffffffffffffffffffffffffffffffffffff166108fc829081150290604051600060405180830381858888f193505050501580156110c0573d6000803e3d6000fd5b5060006010600086815260200190815260200160002060006110e0612c2c565b73ffffffffffffffffffffffffffffffffffffffff1673ffffffffffffffffffffffffffffffffffffffff168152602001908152602001600020819055503073ffffffffffffffffffffffffffffffffffffffff1684427fe48ed0c6ba0d9a81cc3ed9bf77bab86ad9d808041e2cd00e7d601c10236f6438611160612c2c565b8560405161116f929190614b18565b60405180910390a450505050565b8161118781612bc0565b6111c6576040517f08c379a00000000000000000000000000000000000000000000000000000000081526004016111bd90614ce0565b60405180910390fd5b826111cf612c2c565b73ffffffffffffffffffffffffffffffffffffffff166111ee8261171e565b73ffffffffffffffffffffffffffffffffffffffff1614611244576040517f08c379a000000000000000000000000000000000000000000000000000000000815260040161123b90614bc0565b60405180910390fd5b60008311611287576040517f08c379a000000000000000000000000000000000000000000000000000000000815260040161127e90614d40565b60405180910390fd5b60001515611294856123d7565b1515148061130a57506112a5612c2c565b73ffffffffffffffffffffffffffffffffffffffff16600f600086815260200190815260200160002060010160009054906101000a900473ffffffffffffffffffffffffffffffffffffffff1673ffffffffffffffffffffffffffffffffffffffff16145b611349576040517f08c379a000000000000000000000000000000000000000000000000000000000815260040161134090614d20565b60405180910390fd5b82600f600086815260200190815260200160002060020181905550611379600e548461303590919063ffffffff16565b600f60008681526020019081526020016000206003018190555061139b612c2c565b73ffffffffffffffffffffffffffffffffffffffff1684427fd005b0c3df0ee4e27e41297184a14c62b9a12bd55b69eeec2ea24e715885fee4866040516113e29190615000565b60405180910390a450505050565b806113fa81612bc0565b611439576040517f08c379a000000000000000000000000000000000000000000000000000000000815260040161143090614ce0565b60405180910390fd5b81611442612c2c565b73ffffffffffffffffffffffffffffffffffffffff16600f600083815260200190815260200160002060010160009054906101000a900473ffffffffffffffffffffffffffffffffffffffff1673ffffffffffffffffffffffffffffffffffffffff16146114e5576040517f08c379a00000000000000000000000000000000000000000000000000000000081526004016114dc90614ee0565b60405180910390fd5b6114ee836123d7565b61152d576040517f08c379a000000000000000000000000000000000000000000000000000000000815260040161152490614c00565b60405180910390fd5b611535612c2c565b73ffffffffffffffffffffffffffffffffffffffff166115548461171e565b73ffffffffffffffffffffffffffffffffffffffff1614156115ab576040517f08c379a00000000000000000000000000000000000000000000000000000000081526004016115a290614f60565b60405180910390fd5b60006115b68461171e565b90506115c0612c2c565b73ffffffffffffffffffffffffffffffffffffffff1684427f4440067d4f4e0b03ddad907190b64a6af739f3b2c59b74e3fe9bb28c48b72568846040516116079190614a7a565b60405180910390a46116218161161b612c2c565b86610c54565b6116328461162d612c2c565b61304b565b50505050565b611640612c2c565b73ffffffffffffffffffffffffffffffffffffffff16600860009054906101000a900473ffffffffffffffffffffffffffffffffffffffff1673ffffffffffffffffffffffffffffffffffffffff16146116cf576040517f08c379a00000000000000000000000000000000000000000000000000000000081526004016116c690614c80565b60405180910390fd5b80600b541415611714576040517f08c379a000000000000000000000000000000000000000000000000000000000815260040161170b90614e60565b60405180910390fd5b80600b8190555050565b6000806002600084815260200190815260200160002060009054906101000a900473ffffffffffffffffffffffffffffffffffffffff169050600073ffffffffffffffffffffffffffffffffffffffff168173ffffffffffffffffffffffffffffffffffffffff1614156117c7576040517f08c379a00000000000000000000000000000000000000000000000000000000081526004016117be90614dc0565b60405180910390fd5b80915050919050565b60006117da612c2c565b73ffffffffffffffffffffffffffffffffffffffff16600860009054906101000a900473ffffffffffffffffffffffffffffffffffffffff1673ffffffffffffffffffffffffffffffffffffffff1614611869576040517f08c379a000000000000000000000000000000000000000000000000000000000815260040161186090614c80565b60405180910390fd5b6000151560138460405161187d9190614a3f565b908152602001604051809103902060009054906101000a900460ff161515146118db576040517f08c379a00000000000000000000000000000000000000000000000000000000081526004016118d290614f20565b60405180910390fd5b60016013846040516118ed9190614a3f565b908152602001604051809103902060006101000a81548160ff02191690831515021790555061191c600761315d565b60006119286007613027565b9050600073ffffffffffffffffffffffffffffffffffffffff1681427f38096a442f3c342b38cf4b7ab6279dc69da94d9cec1ca509cd9a198f6169441a866040516119739190614a7a565b60405180910390a46119858382613173565b61198f8185613191565b611999818461304b565b6000601060008381526020019081526020016000206000600860009054906101000a900473ffffffffffffffffffffffffffffffffffffffff1673ffffffffffffffffffffffffffffffffffffffff1673ffffffffffffffffffffffffffffffffffffffff1681526020019081526020016000208190555060006010600083815260200190815260200160002060008573ffffffffffffffffffffffffffffffffffffffff1673ffffffffffffffffffffffffffffffffffffffff16815260200190815260200160002081905550662386f26fc1000060116000838152602001908152602001600020819055508091505092915050565b600a8054611a9d90615358565b80601f0160208091040260200160405190810160405280929190818152602001828054611ac990615358565b8015611b165780601f10611aeb57610100808354040283529160200191611b16565b820191906000526020600020905b815481529060010190602001808311611af957829003601f168201915b505050505081565b60008073ffffffffffffffffffffffffffffffffffffffff168273ffffffffffffffffffffffffffffffffffffffff161415611b8f576040517f08c379a0000000000000000000000000000000000000000000000000000000008152600401611b8690614da0565b60405180910390fd5b600360008373ffffffffffffffffffffffffffffffffffffffff1673ffffffffffffffffffffffffffffffffffffffff168152602001908152602001600020549050919050565b600b5481565b600c5481565b60116020528060005260406000206000915090505481565b606060018054611c0990615358565b80601f0160208091040260200160405190810160405280929190818152602001828054611c3590615358565b8015611c825780601f10611c5757610100808354040283529160200191611c82565b820191906000526020600020905b815481529060010190602001808311611c6557829003601f168201915b5050505050905090565b611c94612c2c565b73ffffffffffffffffffffffffffffffffffffffff168273ffffffffffffffffffffffffffffffffffffffff161415611d02576040517f08c379a0000000000000000000000000000000000000000000000000000000008152600401611cf990614cc0565b60405180910390fd5b8060056000611d0f612c2c565b73ffffffffffffffffffffffffffffffffffffffff1673ffffffffffffffffffffffffffffffffffffffff16815260200190815260200160002060008473ffffffffffffffffffffffffffffffffffffffff1673ffffffffffffffffffffffffffffffffffffffff16815260200190815260200160002060006101000a81548160ff0219169083151502179055508173ffffffffffffffffffffffffffffffffffffffff16611dbc612c2c565b73ffffffffffffffffffffffffffffffffffffffff167f17307eab39ab6107e8899845ad3d59bd9653f200f220920489ca2b5937696c3183604051611e019190614b63565b60405180910390a35050565b611e1e611e18612c2c565b83612ced565b80611ea25750611e2c612c2c565b73ffffffffffffffffffffffffffffffffffffffff16600f600084815260200190815260200160002060010160009054906101000a900473ffffffffffffffffffffffffffffffffffffffff1673ffffffffffffffffffffffffffffffffffffffff16148015611ea15750611ea0826123d7565b5b5b611ee1576040517f08c379a0000000000000000000000000000000000000000000000000000000008152600401611ed890614fc0565b60405180910390fd5b611eed84848484613205565b50505050565b60146020528060005260406000206000915090505481565b6013818051602081018201805184825260208301602085012081835280955050505050506000915054906101000a900460ff1681565b6060611f4c82612bc0565b611f8b576040517f08c379a0000000000000000000000000000000000000000000000000000000008152600401611f8290614e20565b60405180910390fd5b6000600660008481526020019081526020016000208054611fab90615358565b80601f0160208091040260200160405190810160405280929190818152602001828054611fd790615358565b80156120245780601f10611ff957610100808354040283529160200191612024565b820191906000526020600020905b81548152906001019060200180831161200757829003601f168201915b505050505090506000612035613261565b905060008151141561204b57819250505061208e565b600082511115612080578082604051602001612068929190614a56565b6040516020818303038152906040529250505061208e565b612089846132f3565b925050505b919050565b8061209d81612bc0565b6120dc576040517f08c379a00000000000000000000000000000000000000000000000000000000081526004016120d390614ce0565b60405180910390fd5b816120e5612c2c565b73ffffffffffffffffffffffffffffffffffffffff166121048261171e565b73ffffffffffffffffffffffffffffffffffffffff161461215a576040517f08c379a000000000000000000000000000000000000000000000000000000000815260040161215190614bc0565b60405180910390fd5b6000600f600085815260200190815260200160002060020154116121b3576040517f08c379a00000000000000000000000000000000000000000000000000000000081526004016121aa90614fe0565b60405180910390fd5b600034116121f6576040517f08c379a00000000000000000000000000000000000000000000000000000000081526004016121ed90614ec0565b60405180910390fd5b34600f60008581526020019081526020016000206003015411158061223157506000600f600085815260200190815260200160002060040154115b612270576040517f08c379a000000000000000000000000000000000000000000000000000000000815260040161226790614fa0565b60405180910390fd5b6000151561227d846123d7565b1515146122bf576040517f08c379a00000000000000000000000000000000000000000000000000000000081526004016122b690614d20565b60405180910390fd5b60006011600085815260200190815260200160002054905060006122ec823461303590919063ffffffff16565b90506123038160095461339a90919063ffffffff16565b600f60008781526020019081526020016000206006016000828254612328919061518d565b9250508190555042600f60008781526020019081526020016000206005018190555034600f60008781526020019081526020016000206004016000828254612370919061518d565b9250508190555061237f612c2c565b73ffffffffffffffffffffffffffffffffffffffff1685427f3af1310061ac4636f4db96497f0b4ad52b4099bee643e7b6d7c3811478a8653b30346040516123c8929190614b18565b60405180910390a45050505050565b6000816123e381612bc0565b612422576040517f08c379a000000000000000000000000000000000000000000000000000000000815260040161241990614ce0565b60405180910390fd5b600f600084815260200190815260200160002060060154421015915050919050565b600f6020528060005260406000206000915090508060000154908060010160009054906101000a900473ffffffffffffffffffffffffffffffffffffffff16908060020154908060030154908060040154908060050154908060060154905087565b806124b081612bc0565b6124ef576040517f08c379a00000000000000000000000000000000000000000000000000000000081526004016124e690614ce0565b60405180910390fd5b6124f7612c2c565b73ffffffffffffffffffffffffffffffffffffffff166125168361171e565b73ffffffffffffffffffffffffffffffffffffffff16141561256d576040517f08c379a000000000000000000000000000000000000000000000000000000000815260040161256490614f60565b60405180910390fd5b6000600f600084815260200190815260200160002060020154116125c6576040517f08c379a00000000000000000000000000000000000000000000000000000000081526004016125bd90614ba0565b60405180910390fd5b34600f6000848152602001908152602001600020600201541461261e576040517f08c379a000000000000000000000000000000000000000000000000000000000815260040161261590614c40565b60405180910390fd5b60006126298361171e565b90506000600f600085815260200190815260200160002060010160009054906101000a900473ffffffffffffffffffffffffffffffffffffffff1690506126713483836133b0565b600061267d8584613504565b9050600061268c86858461363c565b9050612699868483613767565b6126a3868461304b565b66038d7ea4c680006011600088815260200190815260200160002060008282546126cd919061518d565b925050819055506126dc612c2c565b73ffffffffffffffffffffffffffffffffffffffff1686427f80af6c445a8ff068828bb5ba9bd06f39a217e51f6102a5ea4a579a16865fc3998734604051612725929190614b18565b60405180910390a43073ffffffffffffffffffffffffffffffffffffffff166342842e0e85612752612c2c565b896040518463ffffffff1660e01b815260040161277193929190614a95565b600060405180830381600087803b15801561278b57600080fd5b505af115801561279f573d6000803e3d6000fd5b50505050505050505050565b6000600560008473ffffffffffffffffffffffffffffffffffffffff1673ffffffffffffffffffffffffffffffffffffffff16815260200190815260200160002060008373ffffffffffffffffffffffffffffffffffffffff1673ffffffffffffffffffffffffffffffffffffffff16815260200190815260200160002060009054906101000a900460ff16905092915050565b8161284981612bc0565b612888576040517f08c379a000000000000000000000000000000000000000000000000000000000815260040161287f90614ce0565b60405180910390fd5b82612891612c2c565b73ffffffffffffffffffffffffffffffffffffffff16600f600083815260200190815260200160002060010160009054906101000a900473ffffffffffffffffffffffffffffffffffffffff1673ffffffffffffffffffffffffffffffffffffffff1614612934576040517f08c379a000000000000000000000000000000000000000000000000000000000815260040161292b90614ee0565b60405180910390fd5b826011600086815260200190815260200160002054141561298a576040517f08c379a000000000000000000000000000000000000000000000000000000000815260040161298190614e60565b60405180910390fd5b612992612c2c565b73ffffffffffffffffffffffffffffffffffffffff166129b18561171e565b73ffffffffffffffffffffffffffffffffffffffff1614612a07576040517f08c379a00000000000000000000000000000000000000000000000000000000081526004016129fe90614f00565b60405180910390fd5b82601160008681526020019081526020016000208190555050505050565b6012602052816000526040600020602052806000526040600020600091509150505481565b600860009054906101000a900473ffffffffffffffffffffffffffffffffffffffff1681565b612a78612c2c565b73ffffffffffffffffffffffffffffffffffffffff16600860009054906101000a900473ffffffffffffffffffffffffffffffffffffffff1673ffffffffffffffffffffffffffffffffffffffff1614612b07576040517f08c379a0000000000000000000000000000000000000000000000000000000008152600401612afe90614c80565b60405180910390fd5b80600c541415612b4c576040517f08c379a0000000000000000000000000000000000000000000000000000000008152600401612b4390614e60565b60405180910390fd5b80600c8190555050565b60007f01ffc9a7000000000000000000000000000000000000000000000000000000007bffffffffffffffffffffffffffffffffffffffffffffffffffffffff1916827bffffffffffffffffffffffffffffffffffffffffffffffffffffffff1916149050919050565b60008073ffffffffffffffffffffffffffffffffffffffff166002600084815260200190815260200160002060009054906101000a900473ffffffffffffffffffffffffffffffffffffffff1673ffffffffffffffffffffffffffffffffffffffff1614159050919050565b600033905090565b816004600083815260200190815260200160002060006101000a81548173ffffffffffffffffffffffffffffffffffffffff021916908373ffffffffffffffffffffffffffffffffffffffff160217905550808273ffffffffffffffffffffffffffffffffffffffff16612ca78361171e565b73ffffffffffffffffffffffffffffffffffffffff167f8c5be1e5ebec7d5bd14f71427d1e84f3dd0314c0f7b2291e5b200ac8c7c3b92560405160405180910390a45050565b6000612cf882612bc0565b612d37576040517f08c379a0000000000000000000000000000000000000000000000000000000008152600401612d2e90614d00565b60405180910390fd5b6000612d428361171e565b90508073ffffffffffffffffffffffffffffffffffffffff168473ffffffffffffffffffffffffffffffffffffffff161480612db157508373ffffffffffffffffffffffffffffffffffffffff16612d9984610a2c565b73ffffffffffffffffffffffffffffffffffffffff16145b80612dc25750612dc181856127ab565b5b91505092915050565b8273ffffffffffffffffffffffffffffffffffffffff16612deb8261171e565b73ffffffffffffffffffffffffffffffffffffffff1614612e41576040517f08c379a0000000000000000000000000000000000000000000000000000000008152600401612e3890614e80565b60405180910390fd5b600073ffffffffffffffffffffffffffffffffffffffff168273ffffffffffffffffffffffffffffffffffffffff161415612eb1576040517f08c379a0000000000000000000000000000000000000000000000000000000008152600401612ea890614ca0565b60405180910390fd5b612ebc838383613875565b612ec7600082612c34565b6001600360008573ffffffffffffffffffffffffffffffffffffffff1673ffffffffffffffffffffffffffffffffffffffff1681526020019081526020016000206000828254612f17919061526e565b925050819055506001600360008473ffffffffffffffffffffffffffffffffffffffff1673ffffffffffffffffffffffffffffffffffffffff1681526020019081526020016000206000828254612f6e919061518d565b92505081905550816002600083815260200190815260200160002060006101000a81548173ffffffffffffffffffffffffffffffffffffffff021916908373ffffffffffffffffffffffffffffffffffffffff160217905550808273ffffffffffffffffffffffffffffffffffffffff168473ffffffffffffffffffffffffffffffffffffffff167fddf252ad1be2c89b69c2b068fc378daa952ba7f163c4a11628f55a4df523b3ef60405160405180910390a4505050565b600081600001549050919050565b6000818361304391906151e3565b905092915050565b81600f60008481526020019081526020016000206000018190555080600f600084815260200190815260200160002060010160006101000a81548173ffffffffffffffffffffffffffffffffffffffff021916908373ffffffffffffffffffffffffffffffffffffffff1602179055506000600f6000848152602001908152602001600020600201819055506000600f6000848152602001908152602001600020600301819055506000600f60008481526020019081526020016000206004018190555042600f60008481526020019081526020016000206005018190555061313f6009544261387a90919063ffffffff16565b600f6000848152602001908152602001600020600601819055505050565b6001816000016000828254019250508190555050565b61318d828260405180602001604052806000815250613890565b5050565b61319a82612bc0565b6131d9576040517f08c379a00000000000000000000000000000000000000000000000000000000081526004016131d090614de0565b60405180910390fd5b80600660008481526020019081526020016000209080519060200190613200929190613e79565b505050565b613210848484612dcb565b61321c848484846138eb565b61325b576040517f08c379a000000000000000000000000000000000000000000000000000000000815260040161325290614be0565b60405180910390fd5b50505050565b6060600a805461327090615358565b80601f016020809104026020016040519081016040528092919081815260200182805461329c90615358565b80156132e95780601f106132be576101008083540402835291602001916132e9565b820191906000526020600020905b8154815290600101906020018083116132cc57829003601f168201915b5050505050905090565b60606132fe82612bc0565b61333d576040517f08c379a000000000000000000000000000000000000000000000000000000000815260040161333490614ea0565b60405180910390fd5b6000613347613261565b905060008151116133675760405180602001604052806000815250613392565b8061337184613a82565b604051602001613382929190614a56565b6040516020818303038152906040525b915050919050565b600081836133a89190615214565b905092915050565b60006133c7600d548561303590919063ffffffff16565b905060006133de8286613c2f90919063ffffffff16565b9050600860009054906101000a900473ffffffffffffffffffffffffffffffffffffffff1673ffffffffffffffffffffffffffffffffffffffff166108fc61343060028561303590919063ffffffff16565b9081150290604051600060405180830381858888f1935050505015801561345b573d6000803e3d6000fd5b508273ffffffffffffffffffffffffffffffffffffffff166108fc61348a60028561303590919063ffffffff16565b9081150290604051600060405180830381858888f193505050501580156134b5573d6000803e3d6000fd5b508373ffffffffffffffffffffffffffffffffffffffff166108fc829081150290604051600060405180830381858888f193505050501580156134fc573d6000803e3d6000fd5b505050505050565b600080600f600085815260200190815260200160002060060154905060006135354283613c2f90919063ffffffff16565b905060095481131561362f5760006135586009548361303590919063ffffffff16565b90506000601160008881526020019081526020016000205490506000613587838361339a90919063ffffffff16565b90508673ffffffffffffffffffffffffffffffffffffffff166108fc829081150290604051600060405180830381858888f193505050501580156135cf573d6000803e3d6000fd5b503073ffffffffffffffffffffffffffffffffffffffff1688427f2c240b846992540ea434a02526a11212042d1898771134fd652fc70d2479f59d8a8560405161361a929190614b18565b60405180910390a48095505050505050613636565b6000925050505b92915050565b6000806012600086815260200190815260200160002060008573ffffffffffffffffffffffffffffffffffffffff1673ffffffffffffffffffffffffffffffffffffffff1681526020019081526020016000205414156136c25760016014600086815260200190815260200160002060008282546136ba919061518d565b925050819055505b6000600f600086815260200190815260200160002060040154905060006136f28483613c2f90919063ffffffff16565b9050806012600088815260200190815260200160002060008773ffffffffffffffffffffffffffffffffffffffff1673ffffffffffffffffffffffffffffffffffffffff1681526020019081526020016000206000828254613754919061518d565b9250508190555080925050509392505050565b600061377d60028361303590919063ffffffff16565b905080601060008681526020019081526020016000206000600860009054906101000a900473ffffffffffffffffffffffffffffffffffffffff1673ffffffffffffffffffffffffffffffffffffffff1673ffffffffffffffffffffffffffffffffffffffff1681526020019081526020016000206000828254613801919061518d565b92505081905550806010600086815260200190815260200160002060008573ffffffffffffffffffffffffffffffffffffffff1673ffffffffffffffffffffffffffffffffffffffff1681526020019081526020016000206000828254613868919061518d565b9250508190555050505050565b505050565b60008183613888919061518d565b905092915050565b61389a8383613c45565b6138a760008484846138eb565b6138e6576040517f08c379a00000000000000000000000000000000000000000000000000000000081526004016138dd90614be0565b60405180910390fd5b505050565b600061390c8473ffffffffffffffffffffffffffffffffffffffff16613e13565b15613a75578373ffffffffffffffffffffffffffffffffffffffff1663150b7a02613935612c2c565b8786866040518563ffffffff1660e01b81526004016139579493929190614acc565b602060405180830381600087803b15801561397157600080fd5b505af19250505080156139a257506040513d601f19601f8201168201806040525081019061399f9190614225565b60015b613a25573d80600081146139d2576040519150601f19603f3d011682016040523d82523d6000602084013e6139d7565b606091505b50600081511415613a1d576040517f08c379a0000000000000000000000000000000000000000000000000000000008152600401613a1490614be0565b60405180910390fd5b805181602001fd5b63150b7a0260e01b7bffffffffffffffffffffffffffffffffffffffffffffffffffffffff1916817bffffffffffffffffffffffffffffffffffffffffffffffffffffffff191614915050613a7a565b600190505b949350505050565b60606000821415613aca576040518060400160405280600181526020017f30000000000000000000000000000000000000000000000000000000000000008152509050613c2a565b600082905060005b60008214613afc578080613ae5906153bb565b915050600a82613af591906151e3565b9150613ad2565b60008167ffffffffffffffff811115613b3e577f4e487b7100000000000000000000000000000000000000000000000000000000600052604160045260246000fd5b6040519080825280601f01601f191660200182016040528015613b705781602001600182028036833780820191505090505b5090505b60008514613c2357600182613b89919061526e565b9150600a85613b989190615404565b6030613ba4919061518d565b60f81b818381518110613be0577f4e487b7100000000000000000000000000000000000000000000000000000000600052603260045260246000fd5b60200101907effffffffffffffffffffffffffffffffffffffffffffffffffffffffffffff1916908160001a905350600a85613c1c91906151e3565b9450613b74565b8093505050505b919050565b60008183613c3d919061526e565b905092915050565b600073ffffffffffffffffffffffffffffffffffffffff168273ffffffffffffffffffffffffffffffffffffffff161415613cb5576040517f08c379a0000000000000000000000000000000000000000000000000000000008152600401613cac90614e00565b60405180910390fd5b613cbe81612bc0565b15613cfe576040517f08c379a0000000000000000000000000000000000000000000000000000000008152600401613cf590614c20565b60405180910390fd5b613d0a60008383613875565b6001600360008473ffffffffffffffffffffffffffffffffffffffff1673ffffffffffffffffffffffffffffffffffffffff1681526020019081526020016000206000828254613d5a919061518d565b92505081905550816002600083815260200190815260200160002060006101000a81548173ffffffffffffffffffffffffffffffffffffffff021916908373ffffffffffffffffffffffffffffffffffffffff160217905550808273ffffffffffffffffffffffffffffffffffffffff16600073ffffffffffffffffffffffffffffffffffffffff167fddf252ad1be2c89b69c2b068fc378daa952ba7f163c4a11628f55a4df523b3ef60405160405180910390a45050565b600080823b905060008111915050919050565b6040518060e0016040528060008152602001600073ffffffffffffffffffffffffffffffffffffffff16815260200160008152602001600081526020016000815260200160008152602001600081525090565b828054613e8590615358565b90600052602060002090601f016020900481019282613ea75760008555613eee565b82601f10613ec057805160ff1916838001178555613eee565b82800160010185558215613eee579182015b82811115613eed578251825591602001919060010190613ed2565b5b509050613efb9190613eff565b5090565b5b80821115613f18576000816000905550600101613f00565b5090565b6000613f2f613f2a846150af565b61508a565b905082815260208101848484011115613f4757600080fd5b613f52848285615316565b509392505050565b6000613f6d613f68846150e0565b61508a565b905082815260208101848484011115613f8557600080fd5b613f90848285615316565b509392505050565b600081359050613fa781615f11565b92915050565b600081359050613fbc81615f28565b92915050565b600081359050613fd181615f3f565b92915050565b600081519050613fe681615f3f565b92915050565b600082601f830112613ffd57600080fd5b813561400d848260208601613f1c565b91505092915050565b600082601f83011261402757600080fd5b8135614037848260208601613f5a565b91505092915050565b60008135905061404f81615f56565b92915050565b60006020828403121561406757600080fd5b600061407584828501613f98565b91505092915050565b6000806040838503121561409157600080fd5b600061409f85828601613f98565b92505060206140b085828601613f98565b9150509250929050565b6000806000606084860312156140cf57600080fd5b60006140dd86828701613f98565b93505060206140ee86828701613f98565b92505060406140ff86828701614040565b9150509250925092565b6000806000806080858703121561411f57600080fd5b600061412d87828801613f98565b945050602061413e87828801613f98565b935050604061414f87828801614040565b925050606085013567ffffffffffffffff81111561416c57600080fd5b61417887828801613fec565b91505092959194509250565b6000806040838503121561419757600080fd5b60006141a585828601613f98565b92505060206141b685828601613fad565b9150509250929050565b600080604083850312156141d357600080fd5b60006141e185828601613f98565b92505060206141f285828601614040565b9150509250929050565b60006020828403121561420e57600080fd5b600061421c84828501613fc2565b91505092915050565b60006020828403121561423757600080fd5b600061424584828501613fd7565b91505092915050565b60006020828403121561426057600080fd5b600082013567ffffffffffffffff81111561427a57600080fd5b61428684828501614016565b91505092915050565b600080604083850312156142a257600080fd5b600083013567ffffffffffffffff8111156142bc57600080fd5b6142c885828601614016565b92505060206142d985828601613f98565b9150509250929050565b6000602082840312156142f557600080fd5b600061430384828501614040565b91505092915050565b6000806040838503121561431f57600080fd5b600061432d85828601614040565b925050602061433e85828601613f98565b9150509250929050565b6000806040838503121561435b57600080fd5b600061436985828601614040565b925050602061437a85828601614040565b9150509250929050565b60006143908383614993565b60e08301905092915050565b6143a5816152a2565b82525050565b6143b4816152a2565b82525050565b60006143c582615121565b6143cf818561514f565b93506143da83615111565b8060005b8381101561440b5781516143f28882614384565b97506143fd83615142565b9250506001810190506143de565b5085935050505092915050565b614421816152b4565b82525050565b60006144328261512c565b61443c8185615160565b935061444c818560208601615325565b614455816154f1565b840191505092915050565b600061446b82615137565b6144758185615171565b9350614485818560208601615325565b61448e816154f1565b840191505092915050565b60006144a482615137565b6144ae8185615182565b93506144be818560208601615325565b80840191505092915050565b60006144d7602783615171565b91506144e282615502565b604082019050919050565b60006144fa602383615171565b915061450582615551565b604082019050919050565b600061451d603283615171565b9150614528826155a0565b604082019050919050565b6000614540603683615171565b915061454b826155ef565b604082019050919050565b6000614563601c83615171565b915061456e8261563e565b602082019050919050565b6000614586601683615171565b915061459182615667565b602082019050919050565b60006145a9602f83615171565b91506145b482615690565b604082019050919050565b60006145cc602d83615171565b91506145d7826156df565b604082019050919050565b60006145ef602483615171565b91506145fa8261572e565b604082019050919050565b6000614612601983615171565b915061461d8261577d565b602082019050919050565b6000614635601483615171565b9150614640826157a6565b602082019050919050565b6000614658602c83615171565b9150614663826157cf565b604082019050919050565b600061467b602d83615171565b91506146868261581e565b604082019050919050565b600061469e602983615171565b91506146a98261586d565b604082019050919050565b60006146c1602f83615171565b91506146cc826158bc565b604082019050919050565b60006146e4603883615171565b91506146ef8261590b565b604082019050919050565b6000614707602a83615171565b91506147128261595a565b604082019050919050565b600061472a602983615171565b9150614735826159a9565b604082019050919050565b600061474d602e83615171565b9150614758826159f8565b604082019050919050565b6000614770602083615171565b915061477b82615a47565b602082019050919050565b6000614793603183615171565b915061479e82615a70565b604082019050919050565b60006147b6602c83615171565b91506147c182615abf565b604082019050919050565b60006147d9603283615171565b91506147e482615b0e565b604082019050919050565b60006147fc602983615171565b915061480782615b5d565b604082019050919050565b600061481f602f83615171565b915061482a82615bac565b604082019050919050565b6000614842602c83615171565b915061484d82615bfb565b604082019050919050565b6000614865602583615171565b915061487082615c4a565b604082019050919050565b6000614888604683615171565b915061489382615c99565b606082019050919050565b60006148ab601783615171565b91506148b682615d0e565b602082019050919050565b60006148ce602183615171565b91506148d982615d37565b604082019050919050565b60006148f1602783615171565b91506148fc82615d86565b604082019050919050565b6000614914603183615171565b915061491f82615dd5565b604082019050919050565b6000614937604083615171565b915061494282615e24565b604082019050919050565b600061495a604783615171565b915061496582615e73565b606082019050919050565b600061497d602083615171565b915061498882615ee8565b602082019050919050565b60e0820160008201516149a96000850182614a21565b5060208201516149bc602085018261439c565b5060408201516149cf6040850182614a21565b5060608201516149e26060850182614a21565b5060808201516149f56080850182614a21565b5060a0820151614a0860a0850182614a21565b5060c0820151614a1b60c0850182614a21565b50505050565b614a2a8161530c565b82525050565b614a398161530c565b82525050565b6000614a4b8284614499565b915081905092915050565b6000614a628285614499565b9150614a6e8284614499565b91508190509392505050565b6000602082019050614a8f60008301846143ab565b92915050565b6000606082019050614aaa60008301866143ab565b614ab760208301856143ab565b614ac46040830184614a30565b949350505050565b6000608082019050614ae160008301876143ab565b614aee60208301866143ab565b614afb6040830185614a30565b8181036060830152614b0d8184614427565b905095945050505050565b6000604082019050614b2d60008301856143ab565b614b3a6020830184614a30565b9392505050565b60006020820190508181036000830152614b5b81846143ba565b905092915050565b6000602082019050614b786000830184614418565b92915050565b60006020820190508181036000830152614b988184614460565b905092915050565b60006020820190508181036000830152614bb9816144ca565b9050919050565b60006020820190508181036000830152614bd9816144ed565b9050919050565b60006020820190508181036000830152614bf981614510565b9050919050565b60006020820190508181036000830152614c1981614533565b9050919050565b60006020820190508181036000830152614c3981614556565b9050919050565b60006020820190508181036000830152614c5981614579565b9050919050565b60006020820190508181036000830152614c798161459c565b9050919050565b60006020820190508181036000830152614c99816145bf565b9050919050565b60006020820190508181036000830152614cb9816145e2565b9050919050565b60006020820190508181036000830152614cd981614605565b9050919050565b60006020820190508181036000830152614cf981614628565b9050919050565b60006020820190508181036000830152614d198161464b565b9050919050565b60006020820190508181036000830152614d398161466e565b9050919050565b60006020820190508181036000830152614d5981614691565b9050919050565b60006020820190508181036000830152614d79816146b4565b9050919050565b60006020820190508181036000830152614d99816146d7565b9050919050565b60006020820190508181036000830152614db9816146fa565b9050919050565b60006020820190508181036000830152614dd98161471d565b9050919050565b60006020820190508181036000830152614df981614740565b9050919050565b60006020820190508181036000830152614e1981614763565b9050919050565b60006020820190508181036000830152614e3981614786565b9050919050565b60006020820190508181036000830152614e59816147a9565b9050919050565b60006020820190508181036000830152614e79816147cc565b9050919050565b60006020820190508181036000830152614e99816147ef565b9050919050565b60006020820190508181036000830152614eb981614812565b9050919050565b60006020820190508181036000830152614ed981614835565b9050919050565b60006020820190508181036000830152614ef981614858565b9050919050565b60006020820190508181036000830152614f198161487b565b9050919050565b60006020820190508181036000830152614f398161489e565b9050919050565b60006020820190508181036000830152614f59816148c1565b9050919050565b60006020820190508181036000830152614f79816148e4565b9050919050565b60006020820190508181036000830152614f9981614907565b9050919050565b60006020820190508181036000830152614fb98161492a565b9050919050565b60006020820190508181036000830152614fd98161494d565b9050919050565b60006020820190508181036000830152614ff981614970565b9050919050565b60006020820190506150156000830184614a30565b92915050565b600060e082019050615030600083018a614a30565b61503d60208301896143ab565b61504a6040830188614a30565b6150576060830187614a30565b6150646080830186614a30565b61507160a0830185614a30565b61507e60c0830184614a30565b98975050505050505050565b60006150946150a5565b90506150a0828261538a565b919050565b6000604051905090565b600067ffffffffffffffff8211156150ca576150c96154c2565b5b6150d3826154f1565b9050602081019050919050565b600067ffffffffffffffff8211156150fb576150fa6154c2565b5b615104826154f1565b9050602081019050919050565b6000819050602082019050919050565b600081519050919050565b600081519050919050565b600081519050919050565b6000602082019050919050565b600082825260208201905092915050565b600082825260208201905092915050565b600082825260208201905092915050565b600081905092915050565b60006151988261530c565b91506151a38361530c565b9250827fffffffffffffffffffffffffffffffffffffffffffffffffffffffffffffffff038211156151d8576151d7615435565b5b828201905092915050565b60006151ee8261530c565b91506151f98361530c565b92508261520957615208615464565b5b828204905092915050565b600061521f8261530c565b915061522a8361530c565b9250817fffffffffffffffffffffffffffffffffffffffffffffffffffffffffffffffff048311821515161561526357615262615435565b5b828202905092915050565b60006152798261530c565b91506152848361530c565b92508282101561529757615296615435565b5b828203905092915050565b60006152ad826152ec565b9050919050565b60008115159050919050565b60007fffffffff0000000000000000000000000000000000000000000000000000000082169050919050565b600073ffffffffffffffffffffffffffffffffffffffff82169050919050565b6000819050919050565b82818337600083830152505050565b60005b83811015615343578082015181840152602081019050615328565b83811115615352576000848401525b50505050565b6000600282049050600182168061537057607f821691505b6020821081141561538457615383615493565b5b50919050565b615393826154f1565b810181811067ffffffffffffffff821117156153b2576153b16154c2565b5b80604052505050565b60006153c68261530c565b91507fffffffffffffffffffffffffffffffffffffffffffffffffffffffffffffffff8214156153f9576153f8615435565b5b600182019050919050565b600061540f8261530c565b915061541a8361530c565b92508261542a57615429615464565b5b828206905092915050565b7f4e487b7100000000000000000000000000000000000000000000000000000000600052601160045260246000fd5b7f4e487b7100000000000000000000000000000000000000000000000000000000600052601260045260246000fd5b7f4e487b7100000000000000000000000000000000000000000000000000000000600052602260045260246000fd5b7f4e487b7100000000000000000000000000000000000000000000000000000000600052604160045260246000fd5b6000601f19601f8301169050919050565b7f546869732061737365742069732063757272656e746c79206e6f74207570206660008201527f6f722073616c6500000000000000000000000000000000000000000000000000602082015250565b7f596f7520617265206e6f7420746865206f776e6572206f66207468697320617360008201527f7365740000000000000000000000000000000000000000000000000000000000602082015250565b7f4552433732313a207472616e7366657220746f206e6f6e20455243373231526560008201527f63656976657220696d706c656d656e7465720000000000000000000000000000602082015250565b7f54696d6520686173206e6f7420796574206578706972656420666f7220796f7560008201527f20746f207265636c61696d207468697320617373657400000000000000000000602082015250565b7f4552433732313a20746f6b656e20616c7265616479206d696e74656400000000600082015250565b7f496e76616c6964207061796d656e7420616d6f756e7400000000000000000000600082015250565b7f596f7520646f206e6f74206861766520616e792066756e647320617661696c6160008201527f626c6520746f2077697468647261770000000000000000000000000000000000602082015250565b7f596f7520617265206e6f7420617574686f72697a656420746f20706572666f7260008201527f6d207468697320616374696f6e00000000000000000000000000000000000000602082015250565b7f4552433732313a207472616e7366657220746f20746865207a65726f2061646460008201527f7265737300000000000000000000000000000000000000000000000000000000602082015250565b7f4552433732313a20617070726f766520746f2063616c6c657200000000000000600082015250565b7f546f6b656e20646f6573206e6f74206578697374000000000000000000000000600082015250565b7f4552433732313a206f70657261746f7220717565727920666f72206e6f6e657860008201527f697374656e7420746f6b656e0000000000000000000000000000000000000000602082015250565b7f4120666f7265636c6f73757265206f6e2074686973206173736574206861732060008201527f616c726561647920626567756e00000000000000000000000000000000000000602082015250565b7f596f75206d7573742073657420612073616c657320707269636520677265617460008201527f6572207468616e20300000000000000000000000000000000000000000000000602082015250565b7f596f7520617265206e6f74207468652061646d696e206e6f722063726561746f60008201527f72206f6620746869732061737365740000000000000000000000000000000000602082015250565b7f4552433732313a20617070726f76652063616c6c6572206973206e6f74206f7760008201527f6e6572206e6f7220617070726f76656420666f7220616c6c0000000000000000602082015250565b7f4552433732313a2062616c616e636520717565727920666f7220746865207a6560008201527f726f206164647265737300000000000000000000000000000000000000000000602082015250565b7f4552433732313a206f776e657220717565727920666f72206e6f6e657869737460008201527f656e7420746f6b656e0000000000000000000000000000000000000000000000602082015250565b7f45524337323155524953746f726167653a2055524920736574206f66206e6f6e60008201527f6578697374656e7420746f6b656e000000000000000000000000000000000000602082015250565b7f4552433732313a206d696e7420746f20746865207a65726f2061646472657373600082015250565b7f45524337323155524953746f726167653a2055524920717565727920666f722060008201527f6e6f6e6578697374656e7420746f6b656e000000000000000000000000000000602082015250565b7f4552433732313a20617070726f76656420717565727920666f72206e6f6e657860008201527f697374656e7420746f6b656e0000000000000000000000000000000000000000602082015250565b7f4e65772076616c7565206d75737420626520646966666572656e74207468616e60008201527f207468652063757272656e742076616c75650000000000000000000000000000602082015250565b7f4552433732313a207472616e73666572206f6620746f6b656e2074686174206960008201527f73206e6f74206f776e0000000000000000000000000000000000000000000000602082015250565b7f4552433732314d657461646174613a2055524920717565727920666f72206e6f60008201527f6e6578697374656e7420746f6b656e0000000000000000000000000000000000602082015250565b7f596f75206d757374206465706f73697420612074617820616d6f756e7420677260008201527f6561746572207468616e20300000000000000000000000000000000000000000602082015250565b7f596f7520617265206e6f74207468652063726561746f72206f6620746869732060008201527f6173736574000000000000000000000000000000000000000000000000000000602082015250565b7f596f75206d6179206f6e6c792075706461746520746869732076616c7565206f60008201527f6e636520796f752061726520696e20706f7373657373696f6e206f662074686560208201527f2061737365740000000000000000000000000000000000000000000000000000604082015250565b7f546f6b656e55524920616c726561647920657869737473000000000000000000600082015250565b7f4552433732313a20617070726f76616c20746f2063757272656e74206f776e6560008201527f7200000000000000000000000000000000000000000000000000000000000000602082015250565b7f596f752061726520616c726561647920746865206f776e6572206f662074686960008201527f7320617373657400000000000000000000000000000000000000000000000000602082015250565b7f4552433732313a207472616e736665722063616c6c6572206973206e6f74206f60008201527f776e6572206e6f7220617070726f766564000000000000000000000000000000602082015250565b7f596f757220696e697469616c206465706f736974206d757374206e6f7420626560008201527f206c657373207468616e207468652063757272656e7420746178207072696365602082015250565b7f5472616e736665722063616c6c6572206973206e6f7420746865206f776e657260008201527f2c20617070726f766564206e6f72207468652063726561746f72206f6620746860208201527f6520617373657400000000000000000000000000000000000000000000000000604082015250565b7f596f75206d7573742066697273742073657420612073616c6573207072696365600082015250565b615f1a816152a2565b8114615f2557600080fd5b50565b615f31816152b4565b8114615f3c57600080fd5b50565b615f48816152c0565b8114615f5357600080fd5b50565b615f5f8161530c565b8114615f6a57600080fd5b5056fea26469706673582212204aacb1d39a3012bdd7af4c71cd06776b416bc848f32f7ff602e3fca7a4857cc064736f6c63430008030033",
  "linkReferences": {},
  "deployedLinkReferences": {}
}