{
  "_format": "hh-sol-artifact-1",
  "contractName": "HarbergerAsset",
  "sourceName": "contracts/HarbergerAsset.sol",
  "abi": [
    {
      "inputs": [
        {
          "internalType": "address",
          "name": "_admin",
          "type": "address"
        }
      ],
      "stateMutability": "nonpayable",
      "type": "constructor"
    },
    {
      "anonymous": false,
      "inputs": [
        {
          "indexed": true,
          "internalType": "address",
          "name": "owner",
          "type": "address"
        },
        {
          "indexed": true,
          "internalType": "address",
          "name": "approved",
          "type": "address"
        },
        {
          "indexed": true,
          "internalType": "uint256",
          "name": "tokenId",
          "type": "uint256"
        }
      ],
      "name": "Approval",
      "type": "event"
    },
    {
      "anonymous": false,
      "inputs": [
        {
          "indexed": true,
          "internalType": "address",
          "name": "owner",
          "type": "address"
        },
        {
          "indexed": true,
          "internalType": "address",
          "name": "operator",
          "type": "address"
        },
        {
          "indexed": false,
          "internalType": "bool",
          "name": "approved",
          "type": "bool"
        }
      ],
      "name": "ApprovalForAll",
      "type": "event"
    },
    {
      "anonymous": false,
      "inputs": [
        {
          "indexed": true,
          "internalType": "uint256",
          "name": "timestamp",
          "type": "uint256"
        },
        {
          "indexed": true,
          "internalType": "uint256",
          "name": "tokenId",
          "type": "uint256"
        },
        {
          "indexed": true,
          "internalType": "address",
          "name": "from",
          "type": "address"
        },
        {
          "indexed": false,
          "internalType": "address",
          "name": "to",
          "type": "address"
        },
        {
          "indexed": false,
          "internalType": "uint256",
          "name": "value",
          "type": "uint256"
        }
      ],
      "name": "Collect",
      "type": "event"
    },
    {
      "anonymous": false,
      "inputs": [
        {
          "indexed": true,
          "internalType": "uint256",
          "name": "timestamp",
          "type": "uint256"
        },
        {
          "indexed": true,
          "internalType": "uint256",
          "name": "tokenId",
          "type": "uint256"
        },
        {
          "indexed": true,
          "internalType": "address",
          "name": "from",
          "type": "address"
        },
        {
          "indexed": false,
          "internalType": "address",
          "name": "to",
          "type": "address"
        },
        {
          "indexed": false,
          "internalType": "uint256",
          "name": "value",
          "type": "uint256"
        }
      ],
      "name": "Deposit",
      "type": "event"
    },
    {
      "anonymous": false,
      "inputs": [
        {
          "indexed": true,
          "internalType": "uint256",
          "name": "timestamp",
          "type": "uint256"
        },
        {
          "indexed": true,
          "internalType": "uint256",
          "name": "tokenId",
          "type": "uint256"
        },
        {
          "indexed": true,
          "internalType": "address",
          "name": "from",
          "type": "address"
        },
        {
          "indexed": false,
          "internalType": "address",
          "name": "to",
          "type": "address"
        }
      ],
      "name": "Foreclosure",
      "type": "event"
    },
    {
      "anonymous": false,
      "inputs": [
        {
          "indexed": true,
          "internalType": "uint256",
          "name": "timestamp",
          "type": "uint256"
        },
        {
          "indexed": true,
          "internalType": "uint256",
          "name": "tokenId",
          "type": "uint256"
        },
        {
          "indexed": true,
          "internalType": "address",
          "name": "from",
          "type": "address"
        },
        {
          "indexed": false,
          "internalType": "uint256",
          "name": "value",
          "type": "uint256"
        }
      ],
      "name": "List",
      "type": "event"
    },
    {
      "anonymous": false,
      "inputs": [
        {
          "indexed": true,
          "internalType": "uint256",
          "name": "timestamp",
          "type": "uint256"
        },
        {
          "indexed": true,
          "internalType": "uint256",
          "name": "tokenId",
          "type": "uint256"
        },
        {
          "indexed": true,
          "internalType": "address",
          "name": "from",
          "type": "address"
        },
        {
          "indexed": false,
          "internalType": "address",
          "name": "to",
          "type": "address"
        }
      ],
      "name": "Mint",
      "type": "event"
    },
    {
      "anonymous": false,
      "inputs": [
        {
          "indexed": true,
          "internalType": "uint256",
          "name": "timestamp",
          "type": "uint256"
        },
        {
          "indexed": true,
          "internalType": "uint256",
          "name": "tokenId",
          "type": "uint256"
        },
        {
          "indexed": true,
          "internalType": "address",
          "name": "from",
          "type": "address"
        },
        {
          "indexed": false,
          "internalType": "address",
          "name": "to",
          "type": "address"
        },
        {
          "indexed": false,
          "internalType": "uint256",
          "name": "value",
          "type": "uint256"
        }
      ],
      "name": "Refund",
      "type": "event"
    },
    {
      "anonymous": false,
      "inputs": [
        {
          "indexed": true,
          "internalType": "uint256",
          "name": "timestamp",
          "type": "uint256"
        },
        {
          "indexed": true,
          "internalType": "uint256",
          "name": "tokenId",
          "type": "uint256"
        },
        {
          "indexed": true,
          "internalType": "address",
          "name": "from",
          "type": "address"
        },
        {
          "indexed": false,
          "internalType": "address",
          "name": "to",
          "type": "address"
        },
        {
          "indexed": false,
          "internalType": "uint256",
          "name": "value",
          "type": "uint256"
        }
      ],
      "name": "Sale",
      "type": "event"
    },
    {
      "anonymous": false,
      "inputs": [
        {
          "indexed": true,
          "internalType": "address",
          "name": "from",
          "type": "address"
        },
        {
          "indexed": true,
          "internalType": "address",
          "name": "to",
          "type": "address"
        },
        {
          "indexed": true,
          "internalType": "uint256",
          "name": "tokenId",
          "type": "uint256"
        }
      ],
      "name": "Transfer",
      "type": "event"
    },
    {
      "inputs": [],
      "name": "admin",
      "outputs": [
        {
          "internalType": "address",
          "name": "",
          "type": "address"
        }
      ],
      "stateMutability": "view",
      "type": "function"
    },
    {
      "inputs": [
        {
          "internalType": "address",
          "name": "to",
          "type": "address"
        },
        {
          "internalType": "uint256",
          "name": "tokenId",
          "type": "uint256"
        }
      ],
      "name": "approve",
      "outputs": [],
      "stateMutability": "nonpayable",
      "type": "function"
    },
    {
      "inputs": [
        {
          "internalType": "uint256",
          "name": "",
          "type": "uint256"
        }
      ],
      "name": "assets",
      "outputs": [
        {
          "internalType": "uint256",
          "name": "tokenId",
          "type": "uint256"
        },
        {
          "internalType": "address",
          "name": "creator",
          "type": "address"
        },
        {
          "internalType": "uint256",
          "name": "priceAmount",
          "type": "uint256"
        },
        {
          "internalType": "uint256",
          "name": "taxAmount",
          "type": "uint256"
        },
        {
          "internalType": "uint256",
          "name": "totalDepositAmount",
          "type": "uint256"
        },
        {
          "internalType": "uint256",
          "name": "lastDepositTimestamp",
          "type": "uint256"
        },
        {
          "internalType": "uint256",
          "name": "foreclosureTimestamp",
          "type": "uint256"
        }
      ],
      "stateMutability": "view",
      "type": "function"
    },
    {
      "inputs": [
        {
          "internalType": "address",
          "name": "owner",
          "type": "address"
        }
      ],
      "name": "balanceOf",
      "outputs": [
        {
          "internalType": "uint256",
          "name": "",
          "type": "uint256"
        }
      ],
      "stateMutability": "view",
      "type": "function"
    },
    {
      "inputs": [
        {
          "internalType": "uint256",
          "name": "",
          "type": "uint256"
        },
        {
          "internalType": "address",
          "name": "",
          "type": "address"
        }
      ],
      "name": "balances",
      "outputs": [
        {
          "internalType": "uint256",
          "name": "",
          "type": "uint256"
        }
      ],
      "stateMutability": "view",
      "type": "function"
    },
    {
      "inputs": [],
      "name": "baseInterval",
      "outputs": [
        {
          "internalType": "uint256",
          "name": "",
          "type": "uint256"
        }
      ],
      "stateMutability": "view",
      "type": "function"
    },
    {
      "inputs": [
        {
          "internalType": "uint256",
          "name": "",
          "type": "uint256"
        }
      ],
      "name": "baseTaxValues",
      "outputs": [
        {
          "internalType": "uint256",
          "name": "",
          "type": "uint256"
        }
      ],
      "stateMutability": "view",
      "type": "function"
    },
    {
      "inputs": [],
      "name": "baseURI",
      "outputs": [
        {
          "internalType": "string",
          "name": "",
          "type": "string"
        }
      ],
      "stateMutability": "view",
      "type": "function"
    },
    {
      "inputs": [
        {
          "internalType": "uint256",
          "name": "_tokenId",
          "type": "uint256"
        }
      ],
      "name": "buyAssetInWei",
      "outputs": [],
      "stateMutability": "payable",
      "type": "function"
    },
    {
      "inputs": [
        {
          "internalType": "uint256",
          "name": "_tokenId",
          "type": "uint256"
        }
      ],
      "name": "collectFunds",
      "outputs": [],
      "stateMutability": "nonpayable",
      "type": "function"
    },
    {
      "inputs": [
        {
          "internalType": "uint256",
          "name": "",
          "type": "uint256"
        },
        {
          "internalType": "address",
          "name": "",
          "type": "address"
        }
      ],
      "name": "depositHistory",
      "outputs": [
        {
          "internalType": "uint256",
          "name": "",
          "type": "uint256"
        }
      ],
      "stateMutability": "view",
      "type": "function"
    },
    {
      "inputs": [
        {
          "internalType": "uint256",
          "name": "_tokenId",
          "type": "uint256"
        }
      ],
      "name": "depositTaxInWei",
      "outputs": [],
      "stateMutability": "payable",
      "type": "function"
    },
    {
      "inputs": [],
      "name": "fetchAssets",
      "outputs": [
        {
          "components": [
            {
              "internalType": "uint256",
              "name": "tokenId",
              "type": "uint256"
            },
            {
              "internalType": "address",
              "name": "creator",
              "type": "address"
            },
            {
              "internalType": "uint256",
              "name": "priceAmount",
              "type": "uint256"
            },
            {
              "internalType": "uint256",
              "name": "taxAmount",
              "type": "uint256"
            },
            {
              "internalType": "uint256",
              "name": "totalDepositAmount",
              "type": "uint256"
            },
            {
              "internalType": "uint256",
              "name": "lastDepositTimestamp",
              "type": "uint256"
            },
            {
              "internalType": "uint256",
              "name": "foreclosureTimestamp",
              "type": "uint256"
            }
          ],
          "internalType": "struct HarbergerAsset.Asset[]",
          "name": "",
          "type": "tuple[]"
        }
      ],
      "stateMutability": "view",
      "type": "function"
    },
    {
      "inputs": [
        {
          "internalType": "uint256",
          "name": "_tokenId",
          "type": "uint256"
        }
      ],
      "name": "foreclosure",
      "outputs": [
        {
          "internalType": "bool",
          "name": "",
          "type": "bool"
        }
      ],
      "stateMutability": "view",
      "type": "function"
    },
    {
      "inputs": [
        {
          "internalType": "uint256",
          "name": "tokenId",
          "type": "uint256"
        }
      ],
      "name": "getApproved",
      "outputs": [
        {
          "internalType": "address",
          "name": "",
          "type": "address"
        }
      ],
      "stateMutability": "view",
      "type": "function"
    },
    {
      "inputs": [
        {
          "internalType": "uint256",
          "name": "",
          "type": "uint256"
        }
      ],
      "name": "ipfsHash",
      "outputs": [
        {
          "internalType": "string",
          "name": "",
          "type": "string"
        }
      ],
      "stateMutability": "view",
      "type": "function"
    },
    {
      "inputs": [
        {
          "internalType": "address",
          "name": "owner",
          "type": "address"
        },
        {
          "internalType": "address",
          "name": "operator",
          "type": "address"
        }
      ],
      "name": "isApprovedForAll",
      "outputs": [
        {
          "internalType": "bool",
          "name": "",
          "type": "bool"
        }
      ],
      "stateMutability": "view",
      "type": "function"
    },
    {
      "inputs": [
        {
          "internalType": "uint256",
          "name": "_tokenId",
          "type": "uint256"
        },
        {
          "internalType": "uint256",
          "name": "_priceAmount",
          "type": "uint256"
        }
      ],
      "name": "listAssetForSaleInWei",
      "outputs": [],
      "stateMutability": "nonpayable",
      "type": "function"
    },
    {
      "inputs": [
        {
          "internalType": "string",
          "name": "_arweaveId",
          "type": "string"
        },
        {
          "internalType": "string",
          "name": "_ipfsHash",
          "type": "string"
        },
        {
          "internalType": "address",
          "name": "_creator",
          "type": "address"
        }
      ],
      "name": "mintAsset",
      "outputs": [
        {
          "internalType": "uint256",
          "name": "",
          "type": "uint256"
        }
      ],
      "stateMutability": "nonpayable",
      "type": "function"
    },
    {
      "inputs": [],
      "name": "name",
      "outputs": [
        {
          "internalType": "string",
          "name": "",
          "type": "string"
        }
      ],
      "stateMutability": "view",
      "type": "function"
    },
    {
      "inputs": [
        {
          "internalType": "uint256",
          "name": "tokenId",
          "type": "uint256"
        }
      ],
      "name": "ownerOf",
      "outputs": [
        {
          "internalType": "address",
          "name": "",
          "type": "address"
        }
      ],
      "stateMutability": "view",
      "type": "function"
    },
    {
      "inputs": [
        {
          "internalType": "uint256",
          "name": "_tokenId",
          "type": "uint256"
        }
      ],
      "name": "reclaimAsset",
      "outputs": [],
      "stateMutability": "nonpayable",
      "type": "function"
    },
    {
      "inputs": [],
      "name": "royaltyPercentage",
      "outputs": [
        {
          "internalType": "uint256",
          "name": "",
          "type": "uint256"
        }
      ],
      "stateMutability": "view",
      "type": "function"
    },
    {
      "inputs": [
        {
          "internalType": "address",
          "name": "from",
          "type": "address"
        },
        {
          "internalType": "address",
          "name": "to",
          "type": "address"
        },
        {
          "internalType": "uint256",
          "name": "tokenId",
          "type": "uint256"
        }
      ],
      "name": "safeTransferFrom",
      "outputs": [],
      "stateMutability": "nonpayable",
      "type": "function"
    },
    {
      "inputs": [
        {
          "internalType": "address",
          "name": "from",
          "type": "address"
        },
        {
          "internalType": "address",
          "name": "to",
          "type": "address"
        },
        {
          "internalType": "uint256",
          "name": "tokenId",
          "type": "uint256"
        },
        {
          "internalType": "bytes",
          "name": "_data",
          "type": "bytes"
        }
      ],
      "name": "safeTransferFrom",
      "outputs": [],
      "stateMutability": "nonpayable",
      "type": "function"
    },
    {
      "inputs": [
        {
          "internalType": "address",
          "name": "operator",
          "type": "address"
        },
        {
          "internalType": "bool",
          "name": "approved",
          "type": "bool"
        }
      ],
      "name": "setApprovalForAll",
      "outputs": [],
      "stateMutability": "nonpayable",
      "type": "function"
    },
    {
      "inputs": [
        {
          "internalType": "uint256",
          "name": "_tokenId",
          "type": "uint256"
        },
        {
          "internalType": "uint256",
          "name": "_amount",
          "type": "uint256"
        }
      ],
      "name": "setBaseTaxValueInWei",
      "outputs": [],
      "stateMutability": "nonpayable",
      "type": "function"
    },
    {
      "inputs": [
        {
          "internalType": "uint256",
          "name": "_percentage",
          "type": "uint256"
        }
      ],
      "name": "setRoyaltyPercentage",
      "outputs": [],
      "stateMutability": "nonpayable",
      "type": "function"
    },
    {
      "inputs": [
        {
          "internalType": "uint256",
          "name": "_percentage",
          "type": "uint256"
        }
      ],
      "name": "setTaxRatePercentage",
      "outputs": [],
      "stateMutability": "nonpayable",
      "type": "function"
    },
    {
      "inputs": [
        {
          "internalType": "bytes4",
          "name": "interfaceId",
          "type": "bytes4"
        }
      ],
      "name": "supportsInterface",
      "outputs": [
        {
          "internalType": "bool",
          "name": "",
          "type": "bool"
        }
      ],
      "stateMutability": "view",
      "type": "function"
    },
    {
      "inputs": [],
      "name": "symbol",
      "outputs": [
        {
          "internalType": "string",
          "name": "",
          "type": "string"
        }
      ],
      "stateMutability": "view",
      "type": "function"
    },
    {
      "inputs": [],
      "name": "taxRatePercentage",
      "outputs": [
        {
          "internalType": "uint256",
          "name": "",
          "type": "uint256"
        }
      ],
      "stateMutability": "view",
      "type": "function"
    },
    {
      "inputs": [
        {
          "internalType": "uint256",
          "name": "tokenId",
          "type": "uint256"
        }
      ],
      "name": "tokenURI",
      "outputs": [
        {
          "internalType": "string",
          "name": "",
          "type": "string"
        }
      ],
      "stateMutability": "view",
      "type": "function"
    },
    {
      "inputs": [
        {
          "internalType": "uint256",
          "name": "",
          "type": "uint256"
        }
      ],
      "name": "totalOwners",
      "outputs": [
        {
          "internalType": "uint256",
          "name": "",
          "type": "uint256"
        }
      ],
      "stateMutability": "view",
      "type": "function"
    },
    {
      "inputs": [
        {
          "internalType": "address",
          "name": "from",
          "type": "address"
        },
        {
          "internalType": "address",
          "name": "to",
          "type": "address"
        },
        {
          "internalType": "uint256",
          "name": "tokenId",
          "type": "uint256"
        }
      ],
      "name": "transferFrom",
      "outputs": [],
      "stateMutability": "nonpayable",
      "type": "function"
    }
  ],
  "bytecode": "0x6080604052620151806009556040518060400160405280601481526020017f68747470733a2f2f617277656176652e6e65742f000000000000000000000000815250600a908051906020019062000058929190620001a6565b50600a600b55600a600c55600b54606462000074919062000299565b600d55600c54606462000088919062000299565b600e553480156200009857600080fd5b5060405162006353380380620063538339818101604052810190620000be91906200026d565b6040518060400160405280600e81526020017f48617262657267657241737365740000000000000000000000000000000000008152506040518060400160405280600581526020017f4153534554000000000000000000000000000000000000000000000000000000815250816000908051906020019062000142929190620001a6565b5080600190805190602001906200015b929190620001a6565b50505080600860006101000a81548173ffffffffffffffffffffffffffffffffffffffff021916908373ffffffffffffffffffffffffffffffffffffffff16021790555050620003bd565b828054620001b4906200030f565b90600052602060002090601f016020900481019282620001d8576000855562000224565b82601f10620001f357805160ff191683800117855562000224565b8280016001018555821562000224579182015b828111156200022357825182559160200191906001019062000206565b5b50905062000233919062000237565b5090565b5b808211156200025257600081600090555060010162000238565b5090565b6000815190506200026781620003a3565b92915050565b6000602082840312156200028057600080fd5b6000620002908482850162000256565b91505092915050565b6000620002a68262000305565b9150620002b38362000305565b925082620002c657620002c562000345565b5b828204905092915050565b6000620002de82620002e5565b9050919050565b600073ffffffffffffffffffffffffffffffffffffffff82169050919050565b6000819050919050565b600060028204905060018216806200032857607f821691505b602082108114156200033f576200033e62000374565b5b50919050565b7f4e487b7100000000000000000000000000000000000000000000000000000000600052601260045260246000fd5b7f4e487b7100000000000000000000000000000000000000000000000000000000600052602260045260246000fd5b620003ae81620002d1565b8114620003ba57600080fd5b50565b615f8680620003cd6000396000f3fe6080604052600436106102045760003560e01c80638a71bb2d11610118578063cd66710d116100a0578063e9b03cf41161006f578063e9b03cf4146107c1578063eefe708f146107ea578063f14e4d6614610827578063f851a44014610864578063fa8e31341461088f57610204565b8063cd66710d146106e8578063cf35bdd014610725578063e96c83e514610768578063e985e9c51461078457610204565b8063a22cb465116100e7578063a22cb46514610600578063b88d4fde14610629578063b8d1e3d714610652578063c87b56dd1461068f578063cbac4d9d146106cc57610204565b80638a71bb2d146105425780638c5b3b931461056d5780639288fdc61461059857806395d89b41146105d557610204565b806342842e0e1161019b5780635cbd59c31161016a5780635cbd59c31461044b57806361ba27da146104745780636352211e1461049d5780636c0360eb146104da57806370a082311461050557610204565b806342842e0e146103a55780634a3fd149146103ce578063597e4734146103f95780635a03d6a71461042257610204565b80630b700698116101d75780630b700698146102d75780630e5b7c53146103145780631f3203311461033f57806323b872dd1461037c57610204565b806301ffc9a71461020957806306fdde0314610246578063081812fc14610271578063095ea7b3146102ae575b600080fd5b34801561021557600080fd5b50610230600480360381019061022b9190614330565b6108b8565b60405161023d9190614c24565b60405180910390f35b34801561025257600080fd5b5061025b61099a565b6040516102689190614c3f565b60405180910390f35b34801561027d57600080fd5b5061029860048036038101906102939190614401565b610a2c565b6040516102a59190614b3b565b60405180910390f35b3480156102ba57600080fd5b506102d560048036038101906102d091906142f4565b610ab1565b005b3480156102e357600080fd5b506102fe60048036038101906102f99190614401565b610bc9565b60405161030b9190614c3f565b60405180910390f35b34801561032057600080fd5b50610329610c69565b6040516103369190615081565b60405180910390f35b34801561034b57600080fd5b506103666004803603810190610361919061442a565b610c6f565b6040516103739190615081565b60405180910390f35b34801561038857600080fd5b506103a3600480360381019061039e91906141ee565b610c94565b005b3480156103b157600080fd5b506103cc60048036038101906103c791906141ee565b610cf4565b005b3480156103da57600080fd5b506103e3610d14565b6040516103f09190614c02565b60405180910390f35b34801561040557600080fd5b50610420600480360381019061041b9190614401565b610ec9565b005b34801561042e57600080fd5b5061044960048036038101906104449190614466565b61121d565b005b34801561045757600080fd5b50610472600480360381019061046d9190614401565b611490565b005b34801561048057600080fd5b5061049b60048036038101906104969190614401565b6116d8565b005b3480156104a957600080fd5b506104c460048036038101906104bf9190614401565b6117be565b6040516104d19190614b3b565b60405180910390f35b3480156104e657600080fd5b506104ef611870565b6040516104fc9190614c3f565b60405180910390f35b34801561051157600080fd5b5061052c60048036038101906105279190614189565b6118fe565b6040516105399190615081565b60405180910390f35b34801561054e57600080fd5b506105576119b6565b6040516105649190615081565b60405180910390f35b34801561057957600080fd5b506105826119bc565b60405161058f9190615081565b60405180910390f35b3480156105a457600080fd5b506105bf60048036038101906105ba9190614401565b6119c2565b6040516105cc9190615081565b60405180910390f35b3480156105e157600080fd5b506105ea6119da565b6040516105f79190614c3f565b60405180910390f35b34801561060c57600080fd5b50610627600480360381019061062291906142b8565b611a6c565b005b34801561063557600080fd5b50610650600480360381019061064b919061423d565b611bed565b005b34801561065e57600080fd5b5061067960048036038101906106749190614401565b611cd3565b6040516106869190615081565b60405180910390f35b34801561069b57600080fd5b506106b660048036038101906106b19190614401565b611ceb565b6040516106c39190614c3f565b60405180910390f35b6106e660048036038101906106e19190614401565b611e3d565b005b3480156106f457600080fd5b5061070f600480360381019061070a9190614401565b612181565b60405161071c9190614c24565b60405180910390f35b34801561073157600080fd5b5061074c60048036038101906107479190614401565b6121ee565b60405161075f979695949392919061509c565b60405180910390f35b610782600480360381019061077d9190614401565b612250565b005b34801561079057600080fd5b506107ab60048036038101906107a691906141b2565b612555565b6040516107b89190614c24565b60405180910390f35b3480156107cd57600080fd5b506107e860048036038101906107e39190614466565b6125e9565b005b3480156107f657600080fd5b50610811600480360381019061080c919061442a565b6127d1565b60405161081e9190615081565b60405180910390f35b34801561083357600080fd5b5061084e60048036038101906108499190614382565b6127f6565b60405161085b9190615081565b60405180910390f35b34801561087057600080fd5b50610879612a36565b6040516108869190614b3b565b60405180910390f35b34801561089b57600080fd5b506108b660048036038101906108b19190614401565b612a5c565b005b60007f80ac58cd000000000000000000000000000000000000000000000000000000007bffffffffffffffffffffffffffffffffffffffffffffffffffffffff1916827bffffffffffffffffffffffffffffffffffffffffffffffffffffffff1916148061098357507f5b5e139f000000000000000000000000000000000000000000000000000000007bffffffffffffffffffffffffffffffffffffffffffffffffffffffff1916827bffffffffffffffffffffffffffffffffffffffffffffffffffffffff1916145b80610993575061099282612b42565b5b9050919050565b6060600080546109a9906153d9565b80601f01602080910402602001604051908101604052809291908181526020018280546109d5906153d9565b8015610a225780601f106109f757610100808354040283529160200191610a22565b820191906000526020600020905b815481529060010190602001808311610a0557829003601f168201915b5050505050905090565b6000610a3782612bac565b610a76576040517f08c379a0000000000000000000000000000000000000000000000000000000008152600401610a6d90614f01565b60405180910390fd5b6004600083815260200190815260200160002060009054906101000a900473ffffffffffffffffffffffffffffffffffffffff169050919050565b6000610abc826117be565b90508073ffffffffffffffffffffffffffffffffffffffff168373ffffffffffffffffffffffffffffffffffffffff161415610b2d576040517f08c379a0000000000000000000000000000000000000000000000000000000008152600401610b2490614fc1565b60405180910390fd5b8073ffffffffffffffffffffffffffffffffffffffff16610b4c612c18565b73ffffffffffffffffffffffffffffffffffffffff161480610b7b5750610b7a81610b75612c18565b612555565b5b610bba576040517f08c379a0000000000000000000000000000000000000000000000000000000008152600401610bb190614e41565b60405180910390fd5b610bc48383612c20565b505050565b60136020528060005260406000206000915090508054610be8906153d9565b80601f0160208091040260200160405190810160405280929190818152602001828054610c14906153d9565b8015610c615780601f10610c3657610100808354040283529160200191610c61565b820191906000526020600020905b815481529060010190602001808311610c4457829003601f168201915b505050505081565b60095481565b6010602052816000526040600020602052806000526040600020600091509150505481565b610ca5610c9f612c18565b82612cd9565b610ce4576040517f08c379a0000000000000000000000000000000000000000000000000000000008152600401610cdb90615001565b60405180910390fd5b610cef838383612db7565b505050565b610d0f83838360405180602001604052806000815250611bed565b505050565b60606000610d226007613013565b905060008167ffffffffffffffff811115610d66577f4e487b7100000000000000000000000000000000000000000000000000000000600052604160045260246000fd5b604051908082528060200260200182016040528015610d9f57816020015b610d8c613f5a565b815260200190600190039081610d845790505b50905060005b82811015610ec057600f6000600183610dbe919061520e565b81526020019081526020016000206040518060e0016040529081600082015481526020016001820160009054906101000a900473ffffffffffffffffffffffffffffffffffffffff1673ffffffffffffffffffffffffffffffffffffffff1673ffffffffffffffffffffffffffffffffffffffff16815260200160028201548152602001600382015481526020016004820154815260200160058201548152602001600682015481525050828281518110610ea2577f4e487b7100000000000000000000000000000000000000000000000000000000600052603260045260246000fd5b60200260200101819052508080610eb89061543c565b915050610da5565b50809250505090565b80610ed381612bac565b610f12576040517f08c379a0000000000000000000000000000000000000000000000000000000008152600401610f0990614da1565b60405180910390fd5b81610f1b612c18565b73ffffffffffffffffffffffffffffffffffffffff16600860009054906101000a900473ffffffffffffffffffffffffffffffffffffffff1673ffffffffffffffffffffffffffffffffffffffff161480610fde5750610f79612c18565b73ffffffffffffffffffffffffffffffffffffffff16600f600083815260200190815260200160002060010160009054906101000a900473ffffffffffffffffffffffffffffffffffffffff1673ffffffffffffffffffffffffffffffffffffffff16145b61101d576040517f08c379a000000000000000000000000000000000000000000000000000000000815260040161101490614e21565b60405180910390fd5b600060106000858152602001908152602001600020600061103c612c18565b73ffffffffffffffffffffffffffffffffffffffff1673ffffffffffffffffffffffffffffffffffffffff16815260200190815260200160002054116110b7576040517f08c379a00000000000000000000000000000000000000000000000000000000081526004016110ae90614d21565b60405180910390fd5b60006010600085815260200190815260200160002060006110d6612c18565b73ffffffffffffffffffffffffffffffffffffffff1673ffffffffffffffffffffffffffffffffffffffff16815260200190815260200160002054905061111b612c18565b73ffffffffffffffffffffffffffffffffffffffff166108fc829081150290604051600060405180830381858888f19350505050158015611160573d6000803e3d6000fd5b506000601060008681526020019081526020016000206000611180612c18565b73ffffffffffffffffffffffffffffffffffffffff1673ffffffffffffffffffffffffffffffffffffffff168152602001908152602001600020819055503073ffffffffffffffffffffffffffffffffffffffff1684427fe48ed0c6ba0d9a81cc3ed9bf77bab86ad9d808041e2cd00e7d601c10236f6438611200612c18565b8560405161120f929190614bd9565b60405180910390a450505050565b8161122781612bac565b611266576040517f08c379a000000000000000000000000000000000000000000000000000000000815260040161125d90614da1565b60405180910390fd5b8261126f612c18565b73ffffffffffffffffffffffffffffffffffffffff1661128e826117be565b73ffffffffffffffffffffffffffffffffffffffff16146112e4576040517f08c379a00000000000000000000000000000000000000000000000000000000081526004016112db90614c81565b60405180910390fd5b60008311611327576040517f08c379a000000000000000000000000000000000000000000000000000000000815260040161131e90614e01565b60405180910390fd5b6000151561133485612181565b151514806113aa5750611345612c18565b73ffffffffffffffffffffffffffffffffffffffff16600f600086815260200190815260200160002060010160009054906101000a900473ffffffffffffffffffffffffffffffffffffffff1673ffffffffffffffffffffffffffffffffffffffff16145b6113e9576040517f08c379a00000000000000000000000000000000000000000000000000000000081526004016113e090614de1565b60405180910390fd5b82600f600086815260200190815260200160002060020181905550611419600e548461302190919063ffffffff16565b600f60008681526020019081526020016000206003018190555061143b612c18565b73ffffffffffffffffffffffffffffffffffffffff1684427fd005b0c3df0ee4e27e41297184a14c62b9a12bd55b69eeec2ea24e715885fee4866040516114829190615081565b60405180910390a450505050565b8061149a81612bac565b6114d9576040517f08c379a00000000000000000000000000000000000000000000000000000000081526004016114d090614da1565b60405180910390fd5b816114e2612c18565b73ffffffffffffffffffffffffffffffffffffffff16600f600083815260200190815260200160002060010160009054906101000a900473ffffffffffffffffffffffffffffffffffffffff1673ffffffffffffffffffffffffffffffffffffffff1614611585576040517f08c379a000000000000000000000000000000000000000000000000000000000815260040161157c90614fa1565b60405180910390fd5b61158e83612181565b6115cd576040517f08c379a00000000000000000000000000000000000000000000000000000000081526004016115c490614cc1565b60405180910390fd5b6115d5612c18565b73ffffffffffffffffffffffffffffffffffffffff166115f4846117be565b73ffffffffffffffffffffffffffffffffffffffff16141561164b576040517f08c379a000000000000000000000000000000000000000000000000000000000815260040161164290614fe1565b60405180910390fd5b6000611656846117be565b9050611660612c18565b73ffffffffffffffffffffffffffffffffffffffff1684427f4440067d4f4e0b03ddad907190b64a6af739f3b2c59b74e3fe9bb28c48b72568846040516116a79190614b3b565b60405180910390a46116c1816116bb612c18565b86610cf4565b6116d2846116cd612c18565b613037565b50505050565b6116e0612c18565b73ffffffffffffffffffffffffffffffffffffffff16600860009054906101000a900473ffffffffffffffffffffffffffffffffffffffff1673ffffffffffffffffffffffffffffffffffffffff161461176f576040517f08c379a000000000000000000000000000000000000000000000000000000000815260040161176690614d41565b60405180910390fd5b80600b5414156117b4576040517f08c379a00000000000000000000000000000000000000000000000000000000081526004016117ab90614f21565b60405180910390fd5b80600b8190555050565b6000806002600084815260200190815260200160002060009054906101000a900473ffffffffffffffffffffffffffffffffffffffff169050600073ffffffffffffffffffffffffffffffffffffffff168173ffffffffffffffffffffffffffffffffffffffff161415611867576040517f08c379a000000000000000000000000000000000000000000000000000000000815260040161185e90614e81565b60405180910390fd5b80915050919050565b600a805461187d906153d9565b80601f01602080910402602001604051908101604052809291908181526020018280546118a9906153d9565b80156118f65780601f106118cb576101008083540402835291602001916118f6565b820191906000526020600020905b8154815290600101906020018083116118d957829003601f168201915b505050505081565b60008073ffffffffffffffffffffffffffffffffffffffff168273ffffffffffffffffffffffffffffffffffffffff16141561196f576040517f08c379a000000000000000000000000000000000000000000000000000000000815260040161196690614e61565b60405180910390fd5b600360008373ffffffffffffffffffffffffffffffffffffffff1673ffffffffffffffffffffffffffffffffffffffff168152602001908152602001600020549050919050565b600b5481565b600c5481565b60116020528060005260406000206000915090505481565b6060600180546119e9906153d9565b80601f0160208091040260200160405190810160405280929190818152602001828054611a15906153d9565b8015611a625780601f10611a3757610100808354040283529160200191611a62565b820191906000526020600020905b815481529060010190602001808311611a4557829003601f168201915b5050505050905090565b611a74612c18565b73ffffffffffffffffffffffffffffffffffffffff168273ffffffffffffffffffffffffffffffffffffffff161415611ae2576040517f08c379a0000000000000000000000000000000000000000000000000000000008152600401611ad990614d81565b60405180910390fd5b8060056000611aef612c18565b73ffffffffffffffffffffffffffffffffffffffff1673ffffffffffffffffffffffffffffffffffffffff16815260200190815260200160002060008473ffffffffffffffffffffffffffffffffffffffff1673ffffffffffffffffffffffffffffffffffffffff16815260200190815260200160002060006101000a81548160ff0219169083151502179055508173ffffffffffffffffffffffffffffffffffffffff16611b9c612c18565b73ffffffffffffffffffffffffffffffffffffffff167f17307eab39ab6107e8899845ad3d59bd9653f200f220920489ca2b5937696c3183604051611be19190614c24565b60405180910390a35050565b611bfe611bf8612c18565b83612cd9565b80611c825750611c0c612c18565b73ffffffffffffffffffffffffffffffffffffffff16600f600084815260200190815260200160002060010160009054906101000a900473ffffffffffffffffffffffffffffffffffffffff1673ffffffffffffffffffffffffffffffffffffffff16148015611c815750611c8082612181565b5b5b611cc1576040517f08c379a0000000000000000000000000000000000000000000000000000000008152600401611cb890615041565b60405180910390fd5b611ccd84848484613149565b50505050565b60146020528060005260406000206000915090505481565b6060611cf682612bac565b611d35576040517f08c379a0000000000000000000000000000000000000000000000000000000008152600401611d2c90614ee1565b60405180910390fd5b6000600660008481526020019081526020016000208054611d55906153d9565b80601f0160208091040260200160405190810160405280929190818152602001828054611d81906153d9565b8015611dce5780601f10611da357610100808354040283529160200191611dce565b820191906000526020600020905b815481529060010190602001808311611db157829003601f168201915b505050505090506000611ddf6131a5565b9050600081511415611df5578192505050611e38565b600082511115611e2a578082604051602001611e12929190614b17565b60405160208183030381529060405292505050611e38565b611e3384613237565b925050505b919050565b80611e4781612bac565b611e86576040517f08c379a0000000000000000000000000000000000000000000000000000000008152600401611e7d90614da1565b60405180910390fd5b81611e8f612c18565b73ffffffffffffffffffffffffffffffffffffffff16611eae826117be565b73ffffffffffffffffffffffffffffffffffffffff1614611f04576040517f08c379a0000000000000000000000000000000000000000000000000000000008152600401611efb90614c81565b60405180910390fd5b6000600f60008581526020019081526020016000206002015411611f5d576040517f08c379a0000000000000000000000000000000000000000000000000000000008152600401611f5490615061565b60405180910390fd5b60003411611fa0576040517f08c379a0000000000000000000000000000000000000000000000000000000008152600401611f9790614f81565b60405180910390fd5b34600f600085815260200190815260200160002060030154111580611fdb57506000600f600085815260200190815260200160002060040154115b61201a576040517f08c379a000000000000000000000000000000000000000000000000000000000815260040161201190615021565b60405180910390fd5b6000151561202784612181565b151514612069576040517f08c379a000000000000000000000000000000000000000000000000000000000815260040161206090614de1565b60405180910390fd5b6000601160008581526020019081526020016000205490506000612096823461302190919063ffffffff16565b90506120ad816009546132de90919063ffffffff16565b600f600087815260200190815260200160002060060160008282546120d2919061520e565b9250508190555042600f60008781526020019081526020016000206005018190555034600f6000878152602001908152602001600020600401600082825461211a919061520e565b92505081905550612129612c18565b73ffffffffffffffffffffffffffffffffffffffff1685427f3af1310061ac4636f4db96497f0b4ad52b4099bee643e7b6d7c3811478a8653b3034604051612172929190614bd9565b60405180910390a45050505050565b60008161218d81612bac565b6121cc576040517f08c379a00000000000000000000000000000000000000000000000000000000081526004016121c390614da1565b60405180910390fd5b600f600084815260200190815260200160002060060154421015915050919050565b600f6020528060005260406000206000915090508060000154908060010160009054906101000a900473ffffffffffffffffffffffffffffffffffffffff16908060020154908060030154908060040154908060050154908060060154905087565b8061225a81612bac565b612299576040517f08c379a000000000000000000000000000000000000000000000000000000000815260040161229090614da1565b60405180910390fd5b6122a1612c18565b73ffffffffffffffffffffffffffffffffffffffff166122c0836117be565b73ffffffffffffffffffffffffffffffffffffffff161415612317576040517f08c379a000000000000000000000000000000000000000000000000000000000815260040161230e90614fe1565b60405180910390fd5b6000600f60008481526020019081526020016000206002015411612370576040517f08c379a000000000000000000000000000000000000000000000000000000000815260040161236790614c61565b60405180910390fd5b34600f600084815260200190815260200160002060020154146123c8576040517f08c379a00000000000000000000000000000000000000000000000000000000081526004016123bf90614d01565b60405180910390fd5b60006123d3836117be565b90506000600f600085815260200190815260200160002060010160009054906101000a900473ffffffffffffffffffffffffffffffffffffffff16905061241b3483836132f4565b60006124278584613448565b90506000612436868584613605565b90506124438684836137b1565b61244d8684613037565b66038d7ea4c68000601160008881526020019081526020016000206000828254612477919061520e565b92505081905550612486612c18565b73ffffffffffffffffffffffffffffffffffffffff1686427f80af6c445a8ff068828bb5ba9bd06f39a217e51f6102a5ea4a579a16865fc39987346040516124cf929190614bd9565b60405180910390a43073ffffffffffffffffffffffffffffffffffffffff166342842e0e856124fc612c18565b896040518463ffffffff1660e01b815260040161251b93929190614b56565b600060405180830381600087803b15801561253557600080fd5b505af1158015612549573d6000803e3d6000fd5b50505050505050505050565b6000600560008473ffffffffffffffffffffffffffffffffffffffff1673ffffffffffffffffffffffffffffffffffffffff16815260200190815260200160002060008373ffffffffffffffffffffffffffffffffffffffff1673ffffffffffffffffffffffffffffffffffffffff16815260200190815260200160002060009054906101000a900460ff16905092915050565b816125f381612bac565b612632576040517f08c379a000000000000000000000000000000000000000000000000000000000815260040161262990614da1565b60405180910390fd5b8261263b612c18565b73ffffffffffffffffffffffffffffffffffffffff16600f600083815260200190815260200160002060010160009054906101000a900473ffffffffffffffffffffffffffffffffffffffff1673ffffffffffffffffffffffffffffffffffffffff16146126de576040517f08c379a00000000000000000000000000000000000000000000000000000000081526004016126d590614fa1565b60405180910390fd5b836126e7612c18565b73ffffffffffffffffffffffffffffffffffffffff16612706826117be565b73ffffffffffffffffffffffffffffffffffffffff161461275c576040517f08c379a000000000000000000000000000000000000000000000000000000000815260040161275390614c81565b60405180910390fd5b83601160008781526020019081526020016000205414156127b2576040517f08c379a00000000000000000000000000000000000000000000000000000000081526004016127a990614f21565b60405180910390fd5b8360116000878152602001908152602001600020819055505050505050565b6012602052816000526040600020602052806000526040600020600091509150505481565b6000612800612c18565b73ffffffffffffffffffffffffffffffffffffffff16600860009054906101000a900473ffffffffffffffffffffffffffffffffffffffff1673ffffffffffffffffffffffffffffffffffffffff161461288f576040517f08c379a000000000000000000000000000000000000000000000000000000000815260040161288690614d41565b60405180910390fd5b6128996007613901565b60006128a56007613013565b9050600073ffffffffffffffffffffffffffffffffffffffff1681427f38096a442f3c342b38cf4b7ab6279dc69da94d9cec1ca509cd9a198f6169441a866040516128f09190614b3b565b60405180910390a46129028382613917565b61290c8186613935565b83601360008381526020019081526020016000209080519060200190612933929190613fad565b5061293e8184613037565b6000601060008381526020019081526020016000206000600860009054906101000a900473ffffffffffffffffffffffffffffffffffffffff1673ffffffffffffffffffffffffffffffffffffffff1673ffffffffffffffffffffffffffffffffffffffff1681526020019081526020016000208190555060006010600083815260200190815260200160002060008573ffffffffffffffffffffffffffffffffffffffff1673ffffffffffffffffffffffffffffffffffffffff16815260200190815260200160002081905550662386f26fc100006011600083815260200190815260200160002081905550809150509392505050565b600860009054906101000a900473ffffffffffffffffffffffffffffffffffffffff1681565b612a64612c18565b73ffffffffffffffffffffffffffffffffffffffff16600860009054906101000a900473ffffffffffffffffffffffffffffffffffffffff1673ffffffffffffffffffffffffffffffffffffffff1614612af3576040517f08c379a0000000000000000000000000000000000000000000000000000000008152600401612aea90614d41565b60405180910390fd5b80600c541415612b38576040517f08c379a0000000000000000000000000000000000000000000000000000000008152600401612b2f90614f21565b60405180910390fd5b80600c8190555050565b60007f01ffc9a7000000000000000000000000000000000000000000000000000000007bffffffffffffffffffffffffffffffffffffffffffffffffffffffff1916827bffffffffffffffffffffffffffffffffffffffffffffffffffffffff1916149050919050565b60008073ffffffffffffffffffffffffffffffffffffffff166002600084815260200190815260200160002060009054906101000a900473ffffffffffffffffffffffffffffffffffffffff1673ffffffffffffffffffffffffffffffffffffffff1614159050919050565b600033905090565b816004600083815260200190815260200160002060006101000a81548173ffffffffffffffffffffffffffffffffffffffff021916908373ffffffffffffffffffffffffffffffffffffffff160217905550808273ffffffffffffffffffffffffffffffffffffffff16612c93836117be565b73ffffffffffffffffffffffffffffffffffffffff167f8c5be1e5ebec7d5bd14f71427d1e84f3dd0314c0f7b2291e5b200ac8c7c3b92560405160405180910390a45050565b6000612ce482612bac565b612d23576040517f08c379a0000000000000000000000000000000000000000000000000000000008152600401612d1a90614dc1565b60405180910390fd5b6000612d2e836117be565b90508073ffffffffffffffffffffffffffffffffffffffff168473ffffffffffffffffffffffffffffffffffffffff161480612d9d57508373ffffffffffffffffffffffffffffffffffffffff16612d8584610a2c565b73ffffffffffffffffffffffffffffffffffffffff16145b80612dae5750612dad8185612555565b5b91505092915050565b8273ffffffffffffffffffffffffffffffffffffffff16612dd7826117be565b73ffffffffffffffffffffffffffffffffffffffff1614612e2d576040517f08c379a0000000000000000000000000000000000000000000000000000000008152600401612e2490614f41565b60405180910390fd5b600073ffffffffffffffffffffffffffffffffffffffff168273ffffffffffffffffffffffffffffffffffffffff161415612e9d576040517f08c379a0000000000000000000000000000000000000000000000000000000008152600401612e9490614d61565b60405180910390fd5b612ea88383836139a9565b612eb3600082612c20565b6001600360008573ffffffffffffffffffffffffffffffffffffffff1673ffffffffffffffffffffffffffffffffffffffff1681526020019081526020016000206000828254612f0391906152ef565b925050819055506001600360008473ffffffffffffffffffffffffffffffffffffffff1673ffffffffffffffffffffffffffffffffffffffff1681526020019081526020016000206000828254612f5a919061520e565b92505081905550816002600083815260200190815260200160002060006101000a81548173ffffffffffffffffffffffffffffffffffffffff021916908373ffffffffffffffffffffffffffffffffffffffff160217905550808273ffffffffffffffffffffffffffffffffffffffff168473ffffffffffffffffffffffffffffffffffffffff167fddf252ad1be2c89b69c2b068fc378daa952ba7f163c4a11628f55a4df523b3ef60405160405180910390a4505050565b600081600001549050919050565b6000818361302f9190615264565b905092915050565b81600f60008481526020019081526020016000206000018190555080600f600084815260200190815260200160002060010160006101000a81548173ffffffffffffffffffffffffffffffffffffffff021916908373ffffffffffffffffffffffffffffffffffffffff1602179055506000600f6000848152602001908152602001600020600201819055506000600f6000848152602001908152602001600020600301819055506000600f60008481526020019081526020016000206004018190555042600f60008481526020019081526020016000206005018190555061312b600954426139ae90919063ffffffff16565b600f6000848152602001908152602001600020600601819055505050565b613154848484612db7565b613160848484846139c4565b61319f576040517f08c379a000000000000000000000000000000000000000000000000000000000815260040161319690614ca1565b60405180910390fd5b50505050565b6060600a80546131b4906153d9565b80601f01602080910402602001604051908101604052809291908181526020018280546131e0906153d9565b801561322d5780601f106132025761010080835404028352916020019161322d565b820191906000526020600020905b81548152906001019060200180831161321057829003601f168201915b5050505050905090565b606061324282612bac565b613281576040517f08c379a000000000000000000000000000000000000000000000000000000000815260040161327890614f61565b60405180910390fd5b600061328b6131a5565b905060008151116132ab57604051806020016040528060008152506132d6565b806132b584613b5b565b6040516020016132c6929190614b17565b6040516020818303038152906040525b915050919050565b600081836132ec9190615295565b905092915050565b600061330b600d548561302190919063ffffffff16565b905060006133228286613d0890919063ffffffff16565b9050600860009054906101000a900473ffffffffffffffffffffffffffffffffffffffff1673ffffffffffffffffffffffffffffffffffffffff166108fc61337460028561302190919063ffffffff16565b9081150290604051600060405180830381858888f1935050505015801561339f573d6000803e3d6000fd5b508273ffffffffffffffffffffffffffffffffffffffff166108fc6133ce60028561302190919063ffffffff16565b9081150290604051600060405180830381858888f193505050501580156133f9573d6000803e3d6000fd5b508373ffffffffffffffffffffffffffffffffffffffff166108fc829081150290604051600060405180830381858888f19350505050158015613440573d6000803e3d6000fd5b505050505050565b6000600f600084815260200190815260200160002060010160009054906101000a900473ffffffffffffffffffffffffffffffffffffffff1673ffffffffffffffffffffffffffffffffffffffff168273ffffffffffffffffffffffffffffffffffffffff1614156134bd57600090506135ff565b6000600f60008581526020019081526020016000206006015490506134ed600954426139ae90919063ffffffff16565b8111156135f95760006135094283613d0890919063ffffffff16565b905060006135226009548361302190919063ffffffff16565b9050600060116000888152602001908152602001600020549050600061355183836132de90919063ffffffff16565b90508673ffffffffffffffffffffffffffffffffffffffff166108fc829081150290604051600060405180830381858888f19350505050158015613599573d6000803e3d6000fd5b503073ffffffffffffffffffffffffffffffffffffffff1688427f2c240b846992540ea434a02526a11212042d1898771134fd652fc70d2479f59d8a856040516135e4929190614bd9565b60405180910390a480955050505050506135ff565b60009150505b92915050565b6000600f600085815260200190815260200160002060010160009054906101000a900473ffffffffffffffffffffffffffffffffffffffff1673ffffffffffffffffffffffffffffffffffffffff168373ffffffffffffffffffffffffffffffffffffffff16141561367a57600090506137aa565b6000600f600086815260200190815260200160002060040154905060006012600087815260200190815260200160002060008673ffffffffffffffffffffffffffffffffffffffff1673ffffffffffffffffffffffffffffffffffffffff168152602001908152602001600020541480156136f55750600081115b1561372657600160146000878152602001908152602001600020600082825461371e919061520e565b925050819055505b600061373b8483613d0890919063ffffffff16565b9050806012600088815260200190815260200160002060008773ffffffffffffffffffffffffffffffffffffffff1673ffffffffffffffffffffffffffffffffffffffff168152602001908152602001600020600082825461379d919061520e565b9250508190555080925050505b9392505050565b8173ffffffffffffffffffffffffffffffffffffffff166137d1846117be565b73ffffffffffffffffffffffffffffffffffffffff1614156137f2576138fc565b600061380860028361302190919063ffffffff16565b905080601060008681526020019081526020016000206000600860009054906101000a900473ffffffffffffffffffffffffffffffffffffffff1673ffffffffffffffffffffffffffffffffffffffff1673ffffffffffffffffffffffffffffffffffffffff168152602001908152602001600020600082825461388c919061520e565b92505081905550806010600086815260200190815260200160002060008573ffffffffffffffffffffffffffffffffffffffff1673ffffffffffffffffffffffffffffffffffffffff16815260200190815260200160002060008282546138f3919061520e565b92505081905550505b505050565b6001816000016000828254019250508190555050565b613931828260405180602001604052806000815250613d1e565b5050565b61393e82612bac565b61397d576040517f08c379a000000000000000000000000000000000000000000000000000000000815260040161397490614ea1565b60405180910390fd5b806006600084815260200190815260200160002090805190602001906139a4929190613fad565b505050565b505050565b600081836139bc919061520e565b905092915050565b60006139e58473ffffffffffffffffffffffffffffffffffffffff16613d79565b15613b4e578373ffffffffffffffffffffffffffffffffffffffff1663150b7a02613a0e612c18565b8786866040518563ffffffff1660e01b8152600401613a309493929190614b8d565b602060405180830381600087803b158015613a4a57600080fd5b505af1925050508015613a7b57506040513d601f19601f82011682018060405250810190613a789190614359565b60015b613afe573d8060008114613aab576040519150601f19603f3d011682016040523d82523d6000602084013e613ab0565b606091505b50600081511415613af6576040517f08c379a0000000000000000000000000000000000000000000000000000000008152600401613aed90614ca1565b60405180910390fd5b805181602001fd5b63150b7a0260e01b7bffffffffffffffffffffffffffffffffffffffffffffffffffffffff1916817bffffffffffffffffffffffffffffffffffffffffffffffffffffffff191614915050613b53565b600190505b949350505050565b60606000821415613ba3576040518060400160405280600181526020017f30000000000000000000000000000000000000000000000000000000000000008152509050613d03565b600082905060005b60008214613bd5578080613bbe9061543c565b915050600a82613bce9190615264565b9150613bab565b60008167ffffffffffffffff811115613c17577f4e487b7100000000000000000000000000000000000000000000000000000000600052604160045260246000fd5b6040519080825280601f01601f191660200182016040528015613c495781602001600182028036833780820191505090505b5090505b60008514613cfc57600182613c6291906152ef565b9150600a85613c719190615485565b6030613c7d919061520e565b60f81b818381518110613cb9577f4e487b7100000000000000000000000000000000000000000000000000000000600052603260045260246000fd5b60200101907effffffffffffffffffffffffffffffffffffffffffffffffffffffffffffff1916908160001a905350600a85613cf59190615264565b9450613c4d565b8093505050505b919050565b60008183613d1691906152ef565b905092915050565b613d288383613d8c565b613d3560008484846139c4565b613d74576040517f08c379a0000000000000000000000000000000000000000000000000000000008152600401613d6b90614ca1565b60405180910390fd5b505050565b600080823b905060008111915050919050565b600073ffffffffffffffffffffffffffffffffffffffff168273ffffffffffffffffffffffffffffffffffffffff161415613dfc576040517f08c379a0000000000000000000000000000000000000000000000000000000008152600401613df390614ec1565b60405180910390fd5b613e0581612bac565b15613e45576040517f08c379a0000000000000000000000000000000000000000000000000000000008152600401613e3c90614ce1565b60405180910390fd5b613e51600083836139a9565b6001600360008473ffffffffffffffffffffffffffffffffffffffff1673ffffffffffffffffffffffffffffffffffffffff1681526020019081526020016000206000828254613ea1919061520e565b92505081905550816002600083815260200190815260200160002060006101000a81548173ffffffffffffffffffffffffffffffffffffffff021916908373ffffffffffffffffffffffffffffffffffffffff160217905550808273ffffffffffffffffffffffffffffffffffffffff16600073ffffffffffffffffffffffffffffffffffffffff167fddf252ad1be2c89b69c2b068fc378daa952ba7f163c4a11628f55a4df523b3ef60405160405180910390a45050565b6040518060e0016040528060008152602001600073ffffffffffffffffffffffffffffffffffffffff16815260200160008152602001600081526020016000815260200160008152602001600081525090565b828054613fb9906153d9565b90600052602060002090601f016020900481019282613fdb5760008555614022565b82601f10613ff457805160ff1916838001178555614022565b82800160010185558215614022579182015b82811115614021578251825591602001919060010190614006565b5b50905061402f9190614033565b5090565b5b8082111561404c576000816000905550600101614034565b5090565b600061406361405e84615130565b61510b565b90508281526020810184848401111561407b57600080fd5b614086848285615397565b509392505050565b60006140a161409c84615161565b61510b565b9050828152602081018484840111156140b957600080fd5b6140c4848285615397565b509392505050565b6000813590506140db81615ef4565b92915050565b6000813590506140f081615f0b565b92915050565b60008135905061410581615f22565b92915050565b60008151905061411a81615f22565b92915050565b600082601f83011261413157600080fd5b8135614141848260208601614050565b91505092915050565b600082601f83011261415b57600080fd5b813561416b84826020860161408e565b91505092915050565b60008135905061418381615f39565b92915050565b60006020828403121561419b57600080fd5b60006141a9848285016140cc565b91505092915050565b600080604083850312156141c557600080fd5b60006141d3858286016140cc565b92505060206141e4858286016140cc565b9150509250929050565b60008060006060848603121561420357600080fd5b6000614211868287016140cc565b9350506020614222868287016140cc565b925050604061423386828701614174565b9150509250925092565b6000806000806080858703121561425357600080fd5b6000614261878288016140cc565b9450506020614272878288016140cc565b935050604061428387828801614174565b925050606085013567ffffffffffffffff8111156142a057600080fd5b6142ac87828801614120565b91505092959194509250565b600080604083850312156142cb57600080fd5b60006142d9858286016140cc565b92505060206142ea858286016140e1565b9150509250929050565b6000806040838503121561430757600080fd5b6000614315858286016140cc565b925050602061432685828601614174565b9150509250929050565b60006020828403121561434257600080fd5b6000614350848285016140f6565b91505092915050565b60006020828403121561436b57600080fd5b60006143798482850161410b565b91505092915050565b60008060006060848603121561439757600080fd5b600084013567ffffffffffffffff8111156143b157600080fd5b6143bd8682870161414a565b935050602084013567ffffffffffffffff8111156143da57600080fd5b6143e68682870161414a565b92505060406143f7868287016140cc565b9150509250925092565b60006020828403121561441357600080fd5b600061442184828501614174565b91505092915050565b6000806040838503121561443d57600080fd5b600061444b85828601614174565b925050602061445c858286016140cc565b9150509250929050565b6000806040838503121561447957600080fd5b600061448785828601614174565b925050602061449885828601614174565b9150509250929050565b60006144ae8383614a6b565b60e08301905092915050565b6144c381615323565b82525050565b6144d281615323565b82525050565b60006144e3826151a2565b6144ed81856151d0565b93506144f883615192565b8060005b8381101561452957815161451088826144a2565b975061451b836151c3565b9250506001810190506144fc565b5085935050505092915050565b61453f81615335565b82525050565b6000614550826151ad565b61455a81856151e1565b935061456a8185602086016153a6565b61457381615572565b840191505092915050565b6000614589826151b8565b61459381856151f2565b93506145a38185602086016153a6565b6145ac81615572565b840191505092915050565b60006145c2826151b8565b6145cc8185615203565b93506145dc8185602086016153a6565b80840191505092915050565b60006145f56027836151f2565b915061460082615583565b604082019050919050565b60006146186023836151f2565b9150614623826155d2565b604082019050919050565b600061463b6032836151f2565b915061464682615621565b604082019050919050565b600061465e6036836151f2565b915061466982615670565b604082019050919050565b6000614681601c836151f2565b915061468c826156bf565b602082019050919050565b60006146a46016836151f2565b91506146af826156e8565b602082019050919050565b60006146c7602f836151f2565b91506146d282615711565b604082019050919050565b60006146ea602d836151f2565b91506146f582615760565b604082019050919050565b600061470d6024836151f2565b9150614718826157af565b604082019050919050565b60006147306019836151f2565b915061473b826157fe565b602082019050919050565b60006147536014836151f2565b915061475e82615827565b602082019050919050565b6000614776602c836151f2565b915061478182615850565b604082019050919050565b6000614799602d836151f2565b91506147a48261589f565b604082019050919050565b60006147bc6029836151f2565b91506147c7826158ee565b604082019050919050565b60006147df602f836151f2565b91506147ea8261593d565b604082019050919050565b60006148026038836151f2565b915061480d8261598c565b604082019050919050565b6000614825602a836151f2565b9150614830826159db565b604082019050919050565b60006148486029836151f2565b915061485382615a2a565b604082019050919050565b600061486b602e836151f2565b915061487682615a79565b604082019050919050565b600061488e6020836151f2565b915061489982615ac8565b602082019050919050565b60006148b16031836151f2565b91506148bc82615af1565b604082019050919050565b60006148d4602c836151f2565b91506148df82615b40565b604082019050919050565b60006148f76032836151f2565b915061490282615b8f565b604082019050919050565b600061491a6029836151f2565b915061492582615bde565b604082019050919050565b600061493d602f836151f2565b915061494882615c2d565b604082019050919050565b6000614960602c836151f2565b915061496b82615c7c565b604082019050919050565b60006149836025836151f2565b915061498e82615ccb565b604082019050919050565b60006149a66021836151f2565b91506149b182615d1a565b604082019050919050565b60006149c96027836151f2565b91506149d482615d69565b604082019050919050565b60006149ec6031836151f2565b91506149f782615db8565b604082019050919050565b6000614a0f6040836151f2565b9150614a1a82615e07565b604082019050919050565b6000614a326047836151f2565b9150614a3d82615e56565b606082019050919050565b6000614a556020836151f2565b9150614a6082615ecb565b602082019050919050565b60e082016000820151614a816000850182614af9565b506020820151614a9460208501826144ba565b506040820151614aa76040850182614af9565b506060820151614aba6060850182614af9565b506080820151614acd6080850182614af9565b5060a0820151614ae060a0850182614af9565b5060c0820151614af360c0850182614af9565b50505050565b614b028161538d565b82525050565b614b118161538d565b82525050565b6000614b2382856145b7565b9150614b2f82846145b7565b91508190509392505050565b6000602082019050614b5060008301846144c9565b92915050565b6000606082019050614b6b60008301866144c9565b614b7860208301856144c9565b614b856040830184614b08565b949350505050565b6000608082019050614ba260008301876144c9565b614baf60208301866144c9565b614bbc6040830185614b08565b8181036060830152614bce8184614545565b905095945050505050565b6000604082019050614bee60008301856144c9565b614bfb6020830184614b08565b9392505050565b60006020820190508181036000830152614c1c81846144d8565b905092915050565b6000602082019050614c396000830184614536565b92915050565b60006020820190508181036000830152614c59818461457e565b905092915050565b60006020820190508181036000830152614c7a816145e8565b9050919050565b60006020820190508181036000830152614c9a8161460b565b9050919050565b60006020820190508181036000830152614cba8161462e565b9050919050565b60006020820190508181036000830152614cda81614651565b9050919050565b60006020820190508181036000830152614cfa81614674565b9050919050565b60006020820190508181036000830152614d1a81614697565b9050919050565b60006020820190508181036000830152614d3a816146ba565b9050919050565b60006020820190508181036000830152614d5a816146dd565b9050919050565b60006020820190508181036000830152614d7a81614700565b9050919050565b60006020820190508181036000830152614d9a81614723565b9050919050565b60006020820190508181036000830152614dba81614746565b9050919050565b60006020820190508181036000830152614dda81614769565b9050919050565b60006020820190508181036000830152614dfa8161478c565b9050919050565b60006020820190508181036000830152614e1a816147af565b9050919050565b60006020820190508181036000830152614e3a816147d2565b9050919050565b60006020820190508181036000830152614e5a816147f5565b9050919050565b60006020820190508181036000830152614e7a81614818565b9050919050565b60006020820190508181036000830152614e9a8161483b565b9050919050565b60006020820190508181036000830152614eba8161485e565b9050919050565b60006020820190508181036000830152614eda81614881565b9050919050565b60006020820190508181036000830152614efa816148a4565b9050919050565b60006020820190508181036000830152614f1a816148c7565b9050919050565b60006020820190508181036000830152614f3a816148ea565b9050919050565b60006020820190508181036000830152614f5a8161490d565b9050919050565b60006020820190508181036000830152614f7a81614930565b9050919050565b60006020820190508181036000830152614f9a81614953565b9050919050565b60006020820190508181036000830152614fba81614976565b9050919050565b60006020820190508181036000830152614fda81614999565b9050919050565b60006020820190508181036000830152614ffa816149bc565b9050919050565b6000602082019050818103600083015261501a816149df565b9050919050565b6000602082019050818103600083015261503a81614a02565b9050919050565b6000602082019050818103600083015261505a81614a25565b9050919050565b6000602082019050818103600083015261507a81614a48565b9050919050565b60006020820190506150966000830184614b08565b92915050565b600060e0820190506150b1600083018a614b08565b6150be60208301896144c9565b6150cb6040830188614b08565b6150d86060830187614b08565b6150e56080830186614b08565b6150f260a0830185614b08565b6150ff60c0830184614b08565b98975050505050505050565b6000615115615126565b9050615121828261540b565b919050565b6000604051905090565b600067ffffffffffffffff82111561514b5761514a615543565b5b61515482615572565b9050602081019050919050565b600067ffffffffffffffff82111561517c5761517b615543565b5b61518582615572565b9050602081019050919050565b6000819050602082019050919050565b600081519050919050565b600081519050919050565b600081519050919050565b6000602082019050919050565b600082825260208201905092915050565b600082825260208201905092915050565b600082825260208201905092915050565b600081905092915050565b60006152198261538d565b91506152248361538d565b9250827fffffffffffffffffffffffffffffffffffffffffffffffffffffffffffffffff03821115615259576152586154b6565b5b828201905092915050565b600061526f8261538d565b915061527a8361538d565b92508261528a576152896154e5565b5b828204905092915050565b60006152a08261538d565b91506152ab8361538d565b9250817fffffffffffffffffffffffffffffffffffffffffffffffffffffffffffffffff04831182151516156152e4576152e36154b6565b5b828202905092915050565b60006152fa8261538d565b91506153058361538d565b925082821015615318576153176154b6565b5b828203905092915050565b600061532e8261536d565b9050919050565b60008115159050919050565b60007fffffffff0000000000000000000000000000000000000000000000000000000082169050919050565b600073ffffffffffffffffffffffffffffffffffffffff82169050919050565b6000819050919050565b82818337600083830152505050565b60005b838110156153c45780820151818401526020810190506153a9565b838111156153d3576000848401525b50505050565b600060028204905060018216806153f157607f821691505b6020821081141561540557615404615514565b5b50919050565b61541482615572565b810181811067ffffffffffffffff8211171561543357615432615543565b5b80604052505050565b60006154478261538d565b91507fffffffffffffffffffffffffffffffffffffffffffffffffffffffffffffffff82141561547a576154796154b6565b5b600182019050919050565b60006154908261538d565b915061549b8361538d565b9250826154ab576154aa6154e5565b5b828206905092915050565b7f4e487b7100000000000000000000000000000000000000000000000000000000600052601160045260246000fd5b7f4e487b7100000000000000000000000000000000000000000000000000000000600052601260045260246000fd5b7f4e487b7100000000000000000000000000000000000000000000000000000000600052602260045260246000fd5b7f4e487b7100000000000000000000000000000000000000000000000000000000600052604160045260246000fd5b6000601f19601f8301169050919050565b7f546869732061737365742069732063757272656e746c79206e6f74207570206660008201527f6f722073616c6500000000000000000000000000000000000000000000000000602082015250565b7f596f7520617265206e6f7420746865206f776e6572206f66207468697320617360008201527f7365740000000000000000000000000000000000000000000000000000000000602082015250565b7f4552433732313a207472616e7366657220746f206e6f6e20455243373231526560008201527f63656976657220696d706c656d656e7465720000000000000000000000000000602082015250565b7f54696d6520686173206e6f7420796574206578706972656420666f7220796f7560008201527f20746f207265636c61696d207468697320617373657400000000000000000000602082015250565b7f4552433732313a20746f6b656e20616c7265616479206d696e74656400000000600082015250565b7f496e76616c6964207061796d656e7420616d6f756e7400000000000000000000600082015250565b7f596f7520646f206e6f74206861766520616e792066756e647320617661696c6160008201527f626c6520746f2077697468647261770000000000000000000000000000000000602082015250565b7f596f7520617265206e6f7420617574686f72697a656420746f20706572666f7260008201527f6d207468697320616374696f6e00000000000000000000000000000000000000602082015250565b7f4552433732313a207472616e7366657220746f20746865207a65726f2061646460008201527f7265737300000000000000000000000000000000000000000000000000000000602082015250565b7f4552433732313a20617070726f766520746f2063616c6c657200000000000000600082015250565b7f546f6b656e20646f6573206e6f74206578697374000000000000000000000000600082015250565b7f4552433732313a206f70657261746f7220717565727920666f72206e6f6e657860008201527f697374656e7420746f6b656e0000000000000000000000000000000000000000602082015250565b7f4120666f7265636c6f73757265206f6e2074686973206173736574206861732060008201527f616c726561647920626567756e00000000000000000000000000000000000000602082015250565b7f596f75206d7573742073657420612073616c657320707269636520677265617460008201527f6572207468616e20300000000000000000000000000000000000000000000000602082015250565b7f596f7520617265206e6f74207468652061646d696e206e6f722063726561746f60008201527f72206f6620746869732061737365740000000000000000000000000000000000602082015250565b7f4552433732313a20617070726f76652063616c6c6572206973206e6f74206f7760008201527f6e6572206e6f7220617070726f76656420666f7220616c6c0000000000000000602082015250565b7f4552433732313a2062616c616e636520717565727920666f7220746865207a6560008201527f726f206164647265737300000000000000000000000000000000000000000000602082015250565b7f4552433732313a206f776e657220717565727920666f72206e6f6e657869737460008201527f656e7420746f6b656e0000000000000000000000000000000000000000000000602082015250565b7f45524337323155524953746f726167653a2055524920736574206f66206e6f6e60008201527f6578697374656e7420746f6b656e000000000000000000000000000000000000602082015250565b7f4552433732313a206d696e7420746f20746865207a65726f2061646472657373600082015250565b7f45524337323155524953746f726167653a2055524920717565727920666f722060008201527f6e6f6e6578697374656e7420746f6b656e000000000000000000000000000000602082015250565b7f4552433732313a20617070726f76656420717565727920666f72206e6f6e657860008201527f697374656e7420746f6b656e0000000000000000000000000000000000000000602082015250565b7f4e65772076616c7565206d75737420626520646966666572656e74207468616e60008201527f207468652063757272656e742076616c75650000000000000000000000000000602082015250565b7f4552433732313a207472616e73666572206f6620746f6b656e2074686174206960008201527f73206e6f74206f776e0000000000000000000000000000000000000000000000602082015250565b7f4552433732314d657461646174613a2055524920717565727920666f72206e6f60008201527f6e6578697374656e7420746f6b656e0000000000000000000000000000000000602082015250565b7f596f75206d757374206465706f73697420612074617820616d6f756e7420677260008201527f6561746572207468616e20300000000000000000000000000000000000000000602082015250565b7f596f7520617265206e6f74207468652063726561746f72206f6620746869732060008201527f6173736574000000000000000000000000000000000000000000000000000000602082015250565b7f4552433732313a20617070726f76616c20746f2063757272656e74206f776e6560008201527f7200000000000000000000000000000000000000000000000000000000000000602082015250565b7f596f752061726520616c726561647920746865206f776e6572206f662074686960008201527f7320617373657400000000000000000000000000000000000000000000000000602082015250565b7f4552433732313a207472616e736665722063616c6c6572206973206e6f74206f60008201527f776e6572206e6f7220617070726f766564000000000000000000000000000000602082015250565b7f596f757220696e697469616c206465706f736974206d757374206e6f7420626560008201527f206c657373207468616e207468652063757272656e7420746178207072696365602082015250565b7f5472616e736665722063616c6c6572206973206e6f7420746865206f776e657260008201527f2c20617070726f766564206e6f72207468652063726561746f72206f6620746860208201527f6520617373657400000000000000000000000000000000000000000000000000604082015250565b7f596f75206d7573742066697273742073657420612073616c6573207072696365600082015250565b615efd81615323565b8114615f0857600080fd5b50565b615f1481615335565b8114615f1f57600080fd5b50565b615f2b81615341565b8114615f3657600080fd5b50565b615f428161538d565b8114615f4d57600080fd5b5056fea26469706673582212201ec2db01df98c066fd6e7c2e6f9d4442bc056b5d1fcc20d7e7ca36d6c69b7b1564736f6c63430008030033",
  "linkReferences": {},
  "deployedLinkReferences": {}
}