{
  "_format": "hh-sol-artifact-1",
  "contractName": "HarbergerAsset",
  "sourceName": "contracts/HarbergerAsset.sol",
  "abi": [
    {
      "inputs": [],
      "stateMutability": "nonpayable",
      "type": "constructor"
    },
    {
      "anonymous": false,
      "inputs": [
        {
          "indexed": true,
          "internalType": "address",
          "name": "owner",
          "type": "address"
        },
        {
          "indexed": true,
          "internalType": "address",
          "name": "approved",
          "type": "address"
        },
        {
          "indexed": true,
          "internalType": "uint256",
          "name": "tokenId",
          "type": "uint256"
        }
      ],
      "name": "Approval",
      "type": "event"
    },
    {
      "anonymous": false,
      "inputs": [
        {
          "indexed": true,
          "internalType": "address",
          "name": "owner",
          "type": "address"
        },
        {
          "indexed": true,
          "internalType": "address",
          "name": "operator",
          "type": "address"
        },
        {
          "indexed": false,
          "internalType": "bool",
          "name": "approved",
          "type": "bool"
        }
      ],
      "name": "ApprovalForAll",
      "type": "event"
    },
    {
      "anonymous": false,
      "inputs": [
        {
          "indexed": true,
          "internalType": "uint256",
          "name": "timestamp",
          "type": "uint256"
        },
        {
          "indexed": true,
          "internalType": "uint256",
          "name": "tokenId",
          "type": "uint256"
        },
        {
          "indexed": true,
          "internalType": "address",
          "name": "from",
          "type": "address"
        },
        {
          "indexed": false,
          "internalType": "uint256",
          "name": "value",
          "type": "uint256"
        }
      ],
      "name": "Collect",
      "type": "event"
    },
    {
      "anonymous": false,
      "inputs": [
        {
          "indexed": true,
          "internalType": "uint256",
          "name": "timestamp",
          "type": "uint256"
        },
        {
          "indexed": true,
          "internalType": "uint256",
          "name": "tokenId",
          "type": "uint256"
        },
        {
          "indexed": true,
          "internalType": "address",
          "name": "from",
          "type": "address"
        },
        {
          "indexed": false,
          "internalType": "address",
          "name": "to",
          "type": "address"
        },
        {
          "indexed": false,
          "internalType": "uint256",
          "name": "value",
          "type": "uint256"
        }
      ],
      "name": "Deposit",
      "type": "event"
    },
    {
      "anonymous": false,
      "inputs": [
        {
          "indexed": true,
          "internalType": "uint256",
          "name": "timestamp",
          "type": "uint256"
        },
        {
          "indexed": true,
          "internalType": "uint256",
          "name": "tokenId",
          "type": "uint256"
        },
        {
          "indexed": true,
          "internalType": "address",
          "name": "from",
          "type": "address"
        },
        {
          "indexed": false,
          "internalType": "address",
          "name": "to",
          "type": "address"
        }
      ],
      "name": "Foreclosure",
      "type": "event"
    },
    {
      "anonymous": false,
      "inputs": [
        {
          "indexed": true,
          "internalType": "uint256",
          "name": "timestamp",
          "type": "uint256"
        },
        {
          "indexed": true,
          "internalType": "uint256",
          "name": "tokenId",
          "type": "uint256"
        },
        {
          "indexed": true,
          "internalType": "address",
          "name": "from",
          "type": "address"
        },
        {
          "indexed": false,
          "internalType": "uint256",
          "name": "value",
          "type": "uint256"
        }
      ],
      "name": "List",
      "type": "event"
    },
    {
      "anonymous": false,
      "inputs": [
        {
          "indexed": true,
          "internalType": "uint256",
          "name": "timestamp",
          "type": "uint256"
        },
        {
          "indexed": true,
          "internalType": "uint256",
          "name": "tokenId",
          "type": "uint256"
        },
        {
          "indexed": true,
          "internalType": "address",
          "name": "from",
          "type": "address"
        },
        {
          "indexed": false,
          "internalType": "address",
          "name": "to",
          "type": "address"
        }
      ],
      "name": "Mint",
      "type": "event"
    },
    {
      "anonymous": false,
      "inputs": [
        {
          "indexed": true,
          "internalType": "uint256",
          "name": "timestamp",
          "type": "uint256"
        },
        {
          "indexed": true,
          "internalType": "uint256",
          "name": "tokenId",
          "type": "uint256"
        },
        {
          "indexed": true,
          "internalType": "address",
          "name": "from",
          "type": "address"
        },
        {
          "indexed": false,
          "internalType": "address",
          "name": "to",
          "type": "address"
        },
        {
          "indexed": false,
          "internalType": "uint256",
          "name": "value",
          "type": "uint256"
        }
      ],
      "name": "Refund",
      "type": "event"
    },
    {
      "anonymous": false,
      "inputs": [
        {
          "indexed": true,
          "internalType": "uint256",
          "name": "timestamp",
          "type": "uint256"
        },
        {
          "indexed": true,
          "internalType": "uint256",
          "name": "tokenId",
          "type": "uint256"
        },
        {
          "indexed": true,
          "internalType": "address",
          "name": "from",
          "type": "address"
        },
        {
          "indexed": false,
          "internalType": "address",
          "name": "to",
          "type": "address"
        },
        {
          "indexed": false,
          "internalType": "uint256",
          "name": "value",
          "type": "uint256"
        }
      ],
      "name": "Sale",
      "type": "event"
    },
    {
      "anonymous": false,
      "inputs": [
        {
          "indexed": true,
          "internalType": "address",
          "name": "from",
          "type": "address"
        },
        {
          "indexed": true,
          "internalType": "address",
          "name": "to",
          "type": "address"
        },
        {
          "indexed": true,
          "internalType": "uint256",
          "name": "tokenId",
          "type": "uint256"
        }
      ],
      "name": "Transfer",
      "type": "event"
    },
    {
      "inputs": [],
      "name": "admin",
      "outputs": [
        {
          "internalType": "address",
          "name": "",
          "type": "address"
        }
      ],
      "stateMutability": "view",
      "type": "function"
    },
    {
      "inputs": [
        {
          "internalType": "address",
          "name": "to",
          "type": "address"
        },
        {
          "internalType": "uint256",
          "name": "tokenId",
          "type": "uint256"
        }
      ],
      "name": "approve",
      "outputs": [],
      "stateMutability": "nonpayable",
      "type": "function"
    },
    {
      "inputs": [
        {
          "internalType": "uint256",
          "name": "",
          "type": "uint256"
        }
      ],
      "name": "assets",
      "outputs": [
        {
          "internalType": "uint256",
          "name": "tokenId",
          "type": "uint256"
        },
        {
          "internalType": "address",
          "name": "creator",
          "type": "address"
        },
        {
          "internalType": "uint256",
          "name": "priceAmount",
          "type": "uint256"
        },
        {
          "internalType": "uint256",
          "name": "taxAmount",
          "type": "uint256"
        },
        {
          "internalType": "uint256",
          "name": "totalDepositAmount",
          "type": "uint256"
        },
        {
          "internalType": "uint256",
          "name": "lastDepositTimestamp",
          "type": "uint256"
        },
        {
          "internalType": "uint256",
          "name": "foreclosureTimestamp",
          "type": "uint256"
        }
      ],
      "stateMutability": "view",
      "type": "function"
    },
    {
      "inputs": [
        {
          "internalType": "address",
          "name": "owner",
          "type": "address"
        }
      ],
      "name": "balanceOf",
      "outputs": [
        {
          "internalType": "uint256",
          "name": "",
          "type": "uint256"
        }
      ],
      "stateMutability": "view",
      "type": "function"
    },
    {
      "inputs": [
        {
          "internalType": "uint256",
          "name": "",
          "type": "uint256"
        },
        {
          "internalType": "address",
          "name": "",
          "type": "address"
        }
      ],
      "name": "balances",
      "outputs": [
        {
          "internalType": "uint256",
          "name": "",
          "type": "uint256"
        }
      ],
      "stateMutability": "view",
      "type": "function"
    },
    {
      "inputs": [],
      "name": "baseInterval",
      "outputs": [
        {
          "internalType": "uint256",
          "name": "",
          "type": "uint256"
        }
      ],
      "stateMutability": "view",
      "type": "function"
    },
    {
      "inputs": [
        {
          "internalType": "uint256",
          "name": "",
          "type": "uint256"
        }
      ],
      "name": "baseTaxValues",
      "outputs": [
        {
          "internalType": "uint256",
          "name": "",
          "type": "uint256"
        }
      ],
      "stateMutability": "view",
      "type": "function"
    },
    {
      "inputs": [],
      "name": "baseURI",
      "outputs": [
        {
          "internalType": "string",
          "name": "",
          "type": "string"
        }
      ],
      "stateMutability": "view",
      "type": "function"
    },
    {
      "inputs": [
        {
          "internalType": "uint256",
          "name": "_tokenId",
          "type": "uint256"
        }
      ],
      "name": "buyAssetInWei",
      "outputs": [],
      "stateMutability": "payable",
      "type": "function"
    },
    {
      "inputs": [
        {
          "internalType": "uint256",
          "name": "_tokenId",
          "type": "uint256"
        }
      ],
      "name": "collectFunds",
      "outputs": [],
      "stateMutability": "nonpayable",
      "type": "function"
    },
    {
      "inputs": [
        {
          "internalType": "uint256",
          "name": "",
          "type": "uint256"
        },
        {
          "internalType": "address",
          "name": "",
          "type": "address"
        }
      ],
      "name": "depositHistory",
      "outputs": [
        {
          "internalType": "uint256",
          "name": "",
          "type": "uint256"
        }
      ],
      "stateMutability": "view",
      "type": "function"
    },
    {
      "inputs": [
        {
          "internalType": "uint256",
          "name": "_tokenId",
          "type": "uint256"
        }
      ],
      "name": "depositTaxInWei",
      "outputs": [],
      "stateMutability": "payable",
      "type": "function"
    },
    {
      "inputs": [],
      "name": "fetchAssets",
      "outputs": [
        {
          "components": [
            {
              "internalType": "uint256",
              "name": "tokenId",
              "type": "uint256"
            },
            {
              "internalType": "address",
              "name": "creator",
              "type": "address"
            },
            {
              "internalType": "uint256",
              "name": "priceAmount",
              "type": "uint256"
            },
            {
              "internalType": "uint256",
              "name": "taxAmount",
              "type": "uint256"
            },
            {
              "internalType": "uint256",
              "name": "totalDepositAmount",
              "type": "uint256"
            },
            {
              "internalType": "uint256",
              "name": "lastDepositTimestamp",
              "type": "uint256"
            },
            {
              "internalType": "uint256",
              "name": "foreclosureTimestamp",
              "type": "uint256"
            }
          ],
          "internalType": "struct HarbergerAsset.Asset[]",
          "name": "",
          "type": "tuple[]"
        }
      ],
      "stateMutability": "view",
      "type": "function"
    },
    {
      "inputs": [
        {
          "internalType": "uint256",
          "name": "tokenId",
          "type": "uint256"
        }
      ],
      "name": "getApproved",
      "outputs": [
        {
          "internalType": "address",
          "name": "",
          "type": "address"
        }
      ],
      "stateMutability": "view",
      "type": "function"
    },
    {
      "inputs": [
        {
          "internalType": "address",
          "name": "owner",
          "type": "address"
        },
        {
          "internalType": "address",
          "name": "operator",
          "type": "address"
        }
      ],
      "name": "isApprovedForAll",
      "outputs": [
        {
          "internalType": "bool",
          "name": "",
          "type": "bool"
        }
      ],
      "stateMutability": "view",
      "type": "function"
    },
    {
      "inputs": [
        {
          "internalType": "uint256",
          "name": "_tokenId",
          "type": "uint256"
        },
        {
          "internalType": "uint256",
          "name": "_priceAmount",
          "type": "uint256"
        }
      ],
      "name": "listAssetForSaleInWei",
      "outputs": [],
      "stateMutability": "nonpayable",
      "type": "function"
    },
    {
      "inputs": [
        {
          "internalType": "string",
          "name": "_tokenURI",
          "type": "string"
        },
        {
          "internalType": "address",
          "name": "_creator",
          "type": "address"
        }
      ],
      "name": "mintAsset",
      "outputs": [
        {
          "internalType": "uint256",
          "name": "",
          "type": "uint256"
        }
      ],
      "stateMutability": "nonpayable",
      "type": "function"
    },
    {
      "inputs": [],
      "name": "name",
      "outputs": [
        {
          "internalType": "string",
          "name": "",
          "type": "string"
        }
      ],
      "stateMutability": "view",
      "type": "function"
    },
    {
      "inputs": [
        {
          "internalType": "uint256",
          "name": "tokenId",
          "type": "uint256"
        }
      ],
      "name": "ownerOf",
      "outputs": [
        {
          "internalType": "address",
          "name": "",
          "type": "address"
        }
      ],
      "stateMutability": "view",
      "type": "function"
    },
    {
      "inputs": [
        {
          "internalType": "uint256",
          "name": "_tokenId",
          "type": "uint256"
        }
      ],
      "name": "reclaimAsset",
      "outputs": [],
      "stateMutability": "nonpayable",
      "type": "function"
    },
    {
      "inputs": [],
      "name": "royaltyPercentage",
      "outputs": [
        {
          "internalType": "uint256",
          "name": "",
          "type": "uint256"
        }
      ],
      "stateMutability": "view",
      "type": "function"
    },
    {
      "inputs": [
        {
          "internalType": "address",
          "name": "from",
          "type": "address"
        },
        {
          "internalType": "address",
          "name": "to",
          "type": "address"
        },
        {
          "internalType": "uint256",
          "name": "tokenId",
          "type": "uint256"
        }
      ],
      "name": "safeTransferFrom",
      "outputs": [],
      "stateMutability": "nonpayable",
      "type": "function"
    },
    {
      "inputs": [
        {
          "internalType": "address",
          "name": "from",
          "type": "address"
        },
        {
          "internalType": "address",
          "name": "to",
          "type": "address"
        },
        {
          "internalType": "uint256",
          "name": "tokenId",
          "type": "uint256"
        },
        {
          "internalType": "bytes",
          "name": "_data",
          "type": "bytes"
        }
      ],
      "name": "safeTransferFrom",
      "outputs": [],
      "stateMutability": "nonpayable",
      "type": "function"
    },
    {
      "inputs": [
        {
          "internalType": "address",
          "name": "operator",
          "type": "address"
        },
        {
          "internalType": "bool",
          "name": "approved",
          "type": "bool"
        }
      ],
      "name": "setApprovalForAll",
      "outputs": [],
      "stateMutability": "nonpayable",
      "type": "function"
    },
    {
      "inputs": [
        {
          "internalType": "uint256",
          "name": "_interval",
          "type": "uint256"
        }
      ],
      "name": "setBaseIntervalInSeconds",
      "outputs": [],
      "stateMutability": "nonpayable",
      "type": "function"
    },
    {
      "inputs": [
        {
          "internalType": "uint256",
          "name": "_tokenId",
          "type": "uint256"
        },
        {
          "internalType": "uint256",
          "name": "_amount",
          "type": "uint256"
        }
      ],
      "name": "setBaseTaxValueInWei",
      "outputs": [],
      "stateMutability": "nonpayable",
      "type": "function"
    },
    {
      "inputs": [
        {
          "internalType": "uint256",
          "name": "_percentage",
          "type": "uint256"
        }
      ],
      "name": "setRoyaltyPercentage",
      "outputs": [],
      "stateMutability": "nonpayable",
      "type": "function"
    },
    {
      "inputs": [
        {
          "internalType": "uint256",
          "name": "_percentage",
          "type": "uint256"
        }
      ],
      "name": "setTaxRatePercentage",
      "outputs": [],
      "stateMutability": "nonpayable",
      "type": "function"
    },
    {
      "inputs": [
        {
          "internalType": "bytes4",
          "name": "interfaceId",
          "type": "bytes4"
        }
      ],
      "name": "supportsInterface",
      "outputs": [
        {
          "internalType": "bool",
          "name": "",
          "type": "bool"
        }
      ],
      "stateMutability": "view",
      "type": "function"
    },
    {
      "inputs": [],
      "name": "symbol",
      "outputs": [
        {
          "internalType": "string",
          "name": "",
          "type": "string"
        }
      ],
      "stateMutability": "view",
      "type": "function"
    },
    {
      "inputs": [],
      "name": "taxRatePercentage",
      "outputs": [
        {
          "internalType": "uint256",
          "name": "",
          "type": "uint256"
        }
      ],
      "stateMutability": "view",
      "type": "function"
    },
    {
      "inputs": [
        {
          "internalType": "uint256",
          "name": "_tokenId",
          "type": "uint256"
        }
      ],
      "name": "timeExpired",
      "outputs": [
        {
          "internalType": "bool",
          "name": "",
          "type": "bool"
        }
      ],
      "stateMutability": "view",
      "type": "function"
    },
    {
      "inputs": [
        {
          "internalType": "uint256",
          "name": "tokenId",
          "type": "uint256"
        }
      ],
      "name": "tokenURI",
      "outputs": [
        {
          "internalType": "string",
          "name": "",
          "type": "string"
        }
      ],
      "stateMutability": "view",
      "type": "function"
    },
    {
      "inputs": [
        {
          "internalType": "string",
          "name": "",
          "type": "string"
        }
      ],
      "name": "tokenURIs",
      "outputs": [
        {
          "internalType": "bool",
          "name": "",
          "type": "bool"
        }
      ],
      "stateMutability": "view",
      "type": "function"
    },
    {
      "inputs": [
        {
          "internalType": "address",
          "name": "from",
          "type": "address"
        },
        {
          "internalType": "address",
          "name": "to",
          "type": "address"
        },
        {
          "internalType": "uint256",
          "name": "tokenId",
          "type": "uint256"
        }
      ],
      "name": "transferFrom",
      "outputs": [],
      "stateMutability": "nonpayable",
      "type": "function"
    }
  ],
  "bytecode": "0x608060405262015180600a556040518060400160405280601581526020017f68747470733a2f2f697066732e696f2f697066732f0000000000000000000000815250600b90805190602001906200005892919062000197565b50600a600c55600a600d55600c54606462000074919062000247565b600e55600d54606462000088919062000247565b600f553480156200009857600080fd5b506040518060400160405280600e81526020017f48617262657267657241737365740000000000000000000000000000000000008152506040518060400160405280600581526020017f415353455400000000000000000000000000000000000000000000000000000081525081600090805190602001906200011d92919062000197565b5080600190805190602001906200013692919062000197565b505050620001496200018f60201b60201c565b600960006101000a81548173ffffffffffffffffffffffffffffffffffffffff021916908373ffffffffffffffffffffffffffffffffffffffff1602179055506200031d565b600033905090565b828054620001a59062000289565b90600052602060002090601f016020900481019282620001c9576000855562000215565b82601f10620001e457805160ff191683800117855562000215565b8280016001018555821562000215579182015b8281111562000214578251825591602001919060010190620001f7565b5b50905062000224919062000228565b5090565b5b808211156200024357600081600090555060010162000229565b5090565b600062000254826200027f565b915062000261836200027f565b925082620002745762000273620002bf565b5b828204905092915050565b6000819050919050565b60006002820490506001821680620002a257607f821691505b60208210811415620002b957620002b8620002ee565b5b50919050565b7f4e487b7100000000000000000000000000000000000000000000000000000000600052601260045260246000fd5b7f4e487b7100000000000000000000000000000000000000000000000000000000600052602260045260246000fd5b615ea9806200032d6000396000f3fe6080604052600436106102045760003560e01c806370a0823111610118578063c87b56dd116100a0578063e985e9c51161006f578063e985e9c5146107ad578063e9b03cf4146107ea578063eefe708f14610813578063f851a44014610850578063fa8e31341461087b57610204565b8063c87b56dd146106f5578063cbac4d9d14610732578063cf35bdd01461074e578063e96c83e51461079157610204565b806395d89b41116100e757806395d89b41146105fe578063a22cb46514610629578063b1902e3d14610652578063b88d4fde1461068f578063c3a33aad146106b857610204565b806370a082311461052e5780638a71bb2d1461056b5780638c5b3b93146105965780639288fdc6146105c157610204565b806342842e0e1161019b5780635cbd59c31161016a5780635cbd59c31461043757806361ba27da146104605780636352211e146104895780636b865d15146104c65780636c0360eb1461050357610204565b806342842e0e146103915780634a3fd149146103ba578063597e4734146103e55780635a03d6a71461040e57610204565b80630e5b7c53116101d75780630e5b7c53146102d757806316cf6997146103025780631f3203311461032b57806323b872dd1461036857610204565b806301ffc9a71461020957806306fdde0314610246578063081812fc14610271578063095ea7b3146102ae575b600080fd5b34801561021557600080fd5b50610230600480360381019061022b91906141ba565b6108a4565b60405161023d9190614afe565b60405180910390f35b34801561025257600080fd5b5061025b610986565b6040516102689190614b19565b60405180910390f35b34801561027d57600080fd5b50610298600480360381019061029391906142a1565b610a18565b6040516102a59190614a15565b60405180910390f35b3480156102ba57600080fd5b506102d560048036038101906102d0919061417e565b610a9d565b005b3480156102e357600080fd5b506102ec610bb5565b6040516102f99190614f7b565b60405180910390f35b34801561030e57600080fd5b50610329600480360381019061032491906142a1565b610bbb565b005b34801561033757600080fd5b50610352600480360381019061034d91906142ca565b610ca1565b60405161035f9190614f7b565b60405180910390f35b34801561037457600080fd5b5061038f600480360381019061038a9190614078565b610cc6565b005b34801561039d57600080fd5b506103b860048036038101906103b39190614078565b610d26565b005b3480156103c657600080fd5b506103cf610d46565b6040516103dc9190614adc565b60405180910390f35b3480156103f157600080fd5b5061040c600480360381019061040791906142a1565b610efb565b005b34801561041a57600080fd5b5061043560048036038101906104309190614306565b61124d565b005b34801561044357600080fd5b5061045e600480360381019061045991906142a1565b61144d565b005b34801561046c57600080fd5b50610487600480360381019061048291906142a1565b611617565b005b34801561049557600080fd5b506104b060048036038101906104ab91906142a1565b6116fd565b6040516104bd9190614a15565b60405180910390f35b3480156104d257600080fd5b506104ed60048036038101906104e8919061424d565b6117af565b6040516104fa9190614f7b565b60405180910390f35b34801561050f57600080fd5b50610518611a6f565b6040516105259190614b19565b60405180910390f35b34801561053a57600080fd5b5061055560048036038101906105509190614013565b611afd565b6040516105629190614f7b565b60405180910390f35b34801561057757600080fd5b50610580611bb5565b60405161058d9190614f7b565b60405180910390f35b3480156105a257600080fd5b506105ab611bbb565b6040516105b89190614f7b565b60405180910390f35b3480156105cd57600080fd5b506105e860048036038101906105e391906142a1565b611bc1565b6040516105f59190614f7b565b60405180910390f35b34801561060a57600080fd5b50610613611bd9565b6040516106209190614b19565b60405180910390f35b34801561063557600080fd5b50610650600480360381019061064b9190614142565b611c6b565b005b34801561065e57600080fd5b50610679600480360381019061067491906142a1565b611dec565b6040516106869190614afe565b60405180910390f35b34801561069b57600080fd5b506106b660048036038101906106b191906140c7565b611e59565b005b3480156106c457600080fd5b506106df60048036038101906106da919061420c565b611f3f565b6040516106ec9190614afe565b60405180910390f35b34801561070157600080fd5b5061071c600480360381019061071791906142a1565b611f75565b6040516107299190614b19565b60405180910390f35b61074c600480360381019061074791906142a1565b6120c7565b005b34801561075a57600080fd5b50610775600480360381019061077091906142a1565b61240b565b6040516107889796959493929190614f96565b60405180910390f35b6107ab60048036038101906107a691906142a1565b61246d565b005b3480156107b957600080fd5b506107d460048036038101906107cf919061403c565b61276c565b6040516107e19190614afe565b60405180910390f35b3480156107f657600080fd5b50610811600480360381019061080c9190614306565b612800565b005b34801561081f57600080fd5b5061083a600480360381019061083591906142ca565b612969565b6040516108479190614f7b565b60405180910390f35b34801561085c57600080fd5b5061086561298e565b6040516108729190614a15565b60405180910390f35b34801561088757600080fd5b506108a2600480360381019061089d91906142a1565b6129b4565b005b60007f80ac58cd000000000000000000000000000000000000000000000000000000007bffffffffffffffffffffffffffffffffffffffffffffffffffffffff1916827bffffffffffffffffffffffffffffffffffffffffffffffffffffffff1916148061096f57507f5b5e139f000000000000000000000000000000000000000000000000000000007bffffffffffffffffffffffffffffffffffffffffffffffffffffffff1916827bffffffffffffffffffffffffffffffffffffffffffffffffffffffff1916145b8061097f575061097e82612a9a565b5b9050919050565b606060008054610995906152d3565b80601f01602080910402602001604051908101604052809291908181526020018280546109c1906152d3565b8015610a0e5780601f106109e357610100808354040283529160200191610a0e565b820191906000526020600020905b8154815290600101906020018083116109f157829003601f168201915b5050505050905090565b6000610a2382612b04565b610a62576040517f08c379a0000000000000000000000000000000000000000000000000000000008152600401610a5990614ddb565b60405180910390fd5b6004600083815260200190815260200160002060009054906101000a900473ffffffffffffffffffffffffffffffffffffffff169050919050565b6000610aa8826116fd565b90508073ffffffffffffffffffffffffffffffffffffffff168373ffffffffffffffffffffffffffffffffffffffff161415610b19576040517f08c379a0000000000000000000000000000000000000000000000000000000008152600401610b1090614ebb565b60405180910390fd5b8073ffffffffffffffffffffffffffffffffffffffff16610b38612b70565b73ffffffffffffffffffffffffffffffffffffffff161480610b675750610b6681610b61612b70565b61276c565b5b610ba6576040517f08c379a0000000000000000000000000000000000000000000000000000000008152600401610b9d90614d1b565b60405180910390fd5b610bb08383612b78565b505050565b600a5481565b610bc3612b70565b73ffffffffffffffffffffffffffffffffffffffff16600960009054906101000a900473ffffffffffffffffffffffffffffffffffffffff1673ffffffffffffffffffffffffffffffffffffffff1614610c52576040517f08c379a0000000000000000000000000000000000000000000000000000000008152600401610c4990614bfb565b60405180910390fd5b80600a541415610c97576040517f08c379a0000000000000000000000000000000000000000000000000000000008152600401610c8e90614dfb565b60405180910390fd5b80600a8190555050565b6011602052816000526040600020602052806000526040600020600091509150505481565b610cd7610cd1612b70565b82612c31565b610d16576040517f08c379a0000000000000000000000000000000000000000000000000000000008152600401610d0d90614efb565b60405180910390fd5b610d21838383612d0f565b505050565b610d4183838360405180602001604052806000815250611e59565b505050565b60606000610d546007612f6b565b905060008167ffffffffffffffff811115610d98577f4e487b7100000000000000000000000000000000000000000000000000000000600052604160045260246000fd5b604051908082528060200260200182016040528015610dd157816020015b610dbe613de4565b815260200190600190039081610db65790505b50905060005b82811015610ef25760106000600183610df09190615108565b81526020019081526020016000206040518060e0016040529081600082015481526020016001820160009054906101000a900473ffffffffffffffffffffffffffffffffffffffff1673ffffffffffffffffffffffffffffffffffffffff1673ffffffffffffffffffffffffffffffffffffffff16815260200160028201548152602001600382015481526020016004820154815260200160058201548152602001600682015481525050828281518110610ed4577f4e487b7100000000000000000000000000000000000000000000000000000000600052603260045260246000fd5b60200260200101819052508080610eea90615336565b915050610dd7565b50809250505090565b80610f0581612b04565b610f44576040517f08c379a0000000000000000000000000000000000000000000000000000000008152600401610f3b90614c7b565b60405180910390fd5b81610f4d612b70565b73ffffffffffffffffffffffffffffffffffffffff16600960009054906101000a900473ffffffffffffffffffffffffffffffffffffffff1673ffffffffffffffffffffffffffffffffffffffff1614806110105750610fab612b70565b73ffffffffffffffffffffffffffffffffffffffff166010600083815260200190815260200160002060010160009054906101000a900473ffffffffffffffffffffffffffffffffffffffff1673ffffffffffffffffffffffffffffffffffffffff16145b61104f576040517f08c379a000000000000000000000000000000000000000000000000000000000815260040161104690614cfb565b60405180910390fd5b600060116000858152602001908152602001600020600061106e612b70565b73ffffffffffffffffffffffffffffffffffffffff1673ffffffffffffffffffffffffffffffffffffffff16815260200190815260200160002054116110e9576040517f08c379a00000000000000000000000000000000000000000000000000000000081526004016110e090614bdb565b60405180910390fd5b6000601160008581526020019081526020016000206000611108612b70565b73ffffffffffffffffffffffffffffffffffffffff1673ffffffffffffffffffffffffffffffffffffffff16815260200190815260200160002054905061114d612b70565b73ffffffffffffffffffffffffffffffffffffffff166108fc829081150290604051600060405180830381858888f19350505050158015611192573d6000803e3d6000fd5b5060006011600086815260200190815260200160002060006111b2612b70565b73ffffffffffffffffffffffffffffffffffffffff1673ffffffffffffffffffffffffffffffffffffffff168152602001908152602001600020819055506111f8612b70565b73ffffffffffffffffffffffffffffffffffffffff1684427f031c0e4a09f6f6967dc3d42ad8eeddb2fb147ee483dcc9d98bd8330c3e8ce2628460405161123f9190614f7b565b60405180910390a450505050565b8161125781612b04565b611296576040517f08c379a000000000000000000000000000000000000000000000000000000000815260040161128d90614c7b565b60405180910390fd5b8261129f612b70565b73ffffffffffffffffffffffffffffffffffffffff166112be826116fd565b73ffffffffffffffffffffffffffffffffffffffff1614611314576040517f08c379a000000000000000000000000000000000000000000000000000000000815260040161130b90614b5b565b60405180910390fd5b60008311611357576040517f08c379a000000000000000000000000000000000000000000000000000000000815260040161134e90614cdb565b60405180910390fd5b6000151561136485611dec565b1515146113a6576040517f08c379a000000000000000000000000000000000000000000000000000000000815260040161139d90614cbb565b60405180910390fd5b8260106000868152602001908152602001600020600201819055506113d6600f5484612f7990919063ffffffff16565b60106000868152602001908152602001600020600301819055506113f8612b70565b73ffffffffffffffffffffffffffffffffffffffff1684427fd005b0c3df0ee4e27e41297184a14c62b9a12bd55b69eeec2ea24e715885fee48660405161143f9190614f7b565b60405180910390a450505050565b8061145781612b04565b611496576040517f08c379a000000000000000000000000000000000000000000000000000000000815260040161148d90614c7b565b60405180910390fd5b8161149f612b70565b73ffffffffffffffffffffffffffffffffffffffff166010600083815260200190815260200160002060010160009054906101000a900473ffffffffffffffffffffffffffffffffffffffff1673ffffffffffffffffffffffffffffffffffffffff1614611542576040517f08c379a000000000000000000000000000000000000000000000000000000000815260040161153990614e7b565b60405180910390fd5b61154b83611dec565b61158a576040517f08c379a000000000000000000000000000000000000000000000000000000000815260040161158190614b9b565b60405180910390fd5b6000611595846116fd565b905061159f612b70565b73ffffffffffffffffffffffffffffffffffffffff1684427f4440067d4f4e0b03ddad907190b64a6af739f3b2c59b74e3fe9bb28c48b72568846040516115e69190614a15565b60405180910390a4611600816115fa612b70565b86610d26565b6116118461160c612b70565b612f8f565b50505050565b61161f612b70565b73ffffffffffffffffffffffffffffffffffffffff16600960009054906101000a900473ffffffffffffffffffffffffffffffffffffffff1673ffffffffffffffffffffffffffffffffffffffff16146116ae576040517f08c379a00000000000000000000000000000000000000000000000000000000081526004016116a590614bfb565b60405180910390fd5b80600c5414156116f3576040517f08c379a00000000000000000000000000000000000000000000000000000000081526004016116ea90614dfb565b60405180910390fd5b80600c8190555050565b6000806002600084815260200190815260200160002060009054906101000a900473ffffffffffffffffffffffffffffffffffffffff169050600073ffffffffffffffffffffffffffffffffffffffff168173ffffffffffffffffffffffffffffffffffffffff1614156117a6576040517f08c379a000000000000000000000000000000000000000000000000000000000815260040161179d90614d5b565b60405180910390fd5b80915050919050565b60006117b9612b70565b73ffffffffffffffffffffffffffffffffffffffff16600960009054906101000a900473ffffffffffffffffffffffffffffffffffffffff1673ffffffffffffffffffffffffffffffffffffffff1614611848576040517f08c379a000000000000000000000000000000000000000000000000000000000815260040161183f90614bfb565b60405180910390fd5b6000151560148460405161185c91906149da565b908152602001604051809103902060009054906101000a900460ff161515146118ba576040517f08c379a00000000000000000000000000000000000000000000000000000000081526004016118b190614e9b565b60405180910390fd5b60016014846040516118cc91906149da565b908152602001604051809103902060006101000a81548160ff0219169083151502179055506118fb60076130a1565b60006119076007612f6b565b9050600073ffffffffffffffffffffffffffffffffffffffff1681427f38096a442f3c342b38cf4b7ab6279dc69da94d9cec1ca509cd9a198f6169441a866040516119529190614a15565b60405180910390a461196483826130b7565b61196e81856130d5565b6119788184612f8f565b6000601160008381526020019081526020016000206000600960009054906101000a900473ffffffffffffffffffffffffffffffffffffffff1673ffffffffffffffffffffffffffffffffffffffff1673ffffffffffffffffffffffffffffffffffffffff1681526020019081526020016000208190555060006011600083815260200190815260200160002060008573ffffffffffffffffffffffffffffffffffffffff1673ffffffffffffffffffffffffffffffffffffffff16815260200190815260200160002081905550662386f26fc1000060126000838152602001908152602001600020819055508091505092915050565b600b8054611a7c906152d3565b80601f0160208091040260200160405190810160405280929190818152602001828054611aa8906152d3565b8015611af55780601f10611aca57610100808354040283529160200191611af5565b820191906000526020600020905b815481529060010190602001808311611ad857829003601f168201915b505050505081565b60008073ffffffffffffffffffffffffffffffffffffffff168273ffffffffffffffffffffffffffffffffffffffff161415611b6e576040517f08c379a0000000000000000000000000000000000000000000000000000000008152600401611b6590614d3b565b60405180910390fd5b600360008373ffffffffffffffffffffffffffffffffffffffff1673ffffffffffffffffffffffffffffffffffffffff168152602001908152602001600020549050919050565b600c5481565b600d5481565b60126020528060005260406000206000915090505481565b606060018054611be8906152d3565b80601f0160208091040260200160405190810160405280929190818152602001828054611c14906152d3565b8015611c615780601f10611c3657610100808354040283529160200191611c61565b820191906000526020600020905b815481529060010190602001808311611c4457829003601f168201915b5050505050905090565b611c73612b70565b73ffffffffffffffffffffffffffffffffffffffff168273ffffffffffffffffffffffffffffffffffffffff161415611ce1576040517f08c379a0000000000000000000000000000000000000000000000000000000008152600401611cd890614c3b565b60405180910390fd5b8060056000611cee612b70565b73ffffffffffffffffffffffffffffffffffffffff1673ffffffffffffffffffffffffffffffffffffffff16815260200190815260200160002060008473ffffffffffffffffffffffffffffffffffffffff1673ffffffffffffffffffffffffffffffffffffffff16815260200190815260200160002060006101000a81548160ff0219169083151502179055508173ffffffffffffffffffffffffffffffffffffffff16611d9b612b70565b73ffffffffffffffffffffffffffffffffffffffff167f17307eab39ab6107e8899845ad3d59bd9653f200f220920489ca2b5937696c3183604051611de09190614afe565b60405180910390a35050565b600081611df881612b04565b611e37576040517f08c379a0000000000000000000000000000000000000000000000000000000008152600401611e2e90614c7b565b60405180910390fd5b6010600084815260200190815260200160002060060154421015915050919050565b611e6a611e64612b70565b83612c31565b80611eee5750611e78612b70565b73ffffffffffffffffffffffffffffffffffffffff166010600084815260200190815260200160002060010160009054906101000a900473ffffffffffffffffffffffffffffffffffffffff1673ffffffffffffffffffffffffffffffffffffffff16148015611eed5750611eec82611dec565b5b5b611f2d576040517f08c379a0000000000000000000000000000000000000000000000000000000008152600401611f2490614f3b565b60405180910390fd5b611f3984848484613149565b50505050565b6014818051602081018201805184825260208301602085012081835280955050505050506000915054906101000a900460ff1681565b6060611f8082612b04565b611fbf576040517f08c379a0000000000000000000000000000000000000000000000000000000008152600401611fb690614dbb565b60405180910390fd5b6000600660008481526020019081526020016000208054611fdf906152d3565b80601f016020809104026020016040519081016040528092919081815260200182805461200b906152d3565b80156120585780601f1061202d57610100808354040283529160200191612058565b820191906000526020600020905b81548152906001019060200180831161203b57829003601f168201915b5050505050905060006120696131a5565b905060008151141561207f5781925050506120c2565b6000825111156120b457808260405160200161209c9291906149f1565b604051602081830303815290604052925050506120c2565b6120bd84613237565b925050505b919050565b806120d181612b04565b612110576040517f08c379a000000000000000000000000000000000000000000000000000000000815260040161210790614c7b565b60405180910390fd5b81612119612b70565b73ffffffffffffffffffffffffffffffffffffffff16612138826116fd565b73ffffffffffffffffffffffffffffffffffffffff161461218e576040517f08c379a000000000000000000000000000000000000000000000000000000000815260040161218590614b5b565b60405180910390fd5b60006010600085815260200190815260200160002060020154116121e7576040517f08c379a00000000000000000000000000000000000000000000000000000000081526004016121de90614f5b565b60405180910390fd5b6000341161222a576040517f08c379a000000000000000000000000000000000000000000000000000000000815260040161222190614e5b565b60405180910390fd5b346010600085815260200190815260200160002060030154111580612265575060006010600085815260200190815260200160002060040154115b6122a4576040517f08c379a000000000000000000000000000000000000000000000000000000000815260040161229b90614f1b565b60405180910390fd5b600015156122b184611dec565b1515146122f3576040517f08c379a00000000000000000000000000000000000000000000000000000000081526004016122ea90614cbb565b60405180910390fd5b60006012600085815260200190815260200160002054905060006123208234612f7990919063ffffffff16565b905061233781600a546132de90919063ffffffff16565b60106000878152602001908152602001600020600601600082825461235c9190615108565b92505081905550426010600087815260200190815260200160002060050181905550346010600087815260200190815260200160002060040160008282546123a49190615108565b925050819055506123b3612b70565b73ffffffffffffffffffffffffffffffffffffffff1685427f3af1310061ac4636f4db96497f0b4ad52b4099bee643e7b6d7c3811478a8653b30346040516123fc929190614ab3565b60405180910390a45050505050565b60106020528060005260406000206000915090508060000154908060010160009054906101000a900473ffffffffffffffffffffffffffffffffffffffff16908060020154908060030154908060040154908060050154908060060154905087565b8061247781612b04565b6124b6576040517f08c379a00000000000000000000000000000000000000000000000000000000081526004016124ad90614c7b565b60405180910390fd5b6124be612b70565b73ffffffffffffffffffffffffffffffffffffffff166124dd836116fd565b73ffffffffffffffffffffffffffffffffffffffff161415612534576040517f08c379a000000000000000000000000000000000000000000000000000000000815260040161252b90614edb565b60405180910390fd5b600060106000848152602001908152602001600020600201541161258d576040517f08c379a000000000000000000000000000000000000000000000000000000000815260040161258490614b3b565b60405180910390fd5b346010600084815260200190815260200160002060020154146125e5576040517f08c379a00000000000000000000000000000000000000000000000000000000081526004016125dc90614c5b565b60405180910390fd5b60006125f0836116fd565b905060006010600085815260200190815260200160002060010160009054906101000a900473ffffffffffffffffffffffffffffffffffffffff1690506126383483836132f4565b60006126448584613448565b9050612651858483613579565b612659612b70565b73ffffffffffffffffffffffffffffffffffffffff1685427f80af6c445a8ff068828bb5ba9bd06f39a217e51f6102a5ea4a579a16865fc39986346040516126a2929190614ab3565b60405180910390a43073ffffffffffffffffffffffffffffffffffffffff166342842e0e846126cf612b70565b886040518463ffffffff1660e01b81526004016126ee93929190614a30565b600060405180830381600087803b15801561270857600080fd5b505af115801561271c573d6000803e3d6000fd5b5050505061272a8583613604565b6127348583612f8f565b66038d7ea4c6800060126000878152602001908152602001600020600082825461275e9190615108565b925050819055505050505050565b6000600560008473ffffffffffffffffffffffffffffffffffffffff1673ffffffffffffffffffffffffffffffffffffffff16815260200190815260200160002060008373ffffffffffffffffffffffffffffffffffffffff1673ffffffffffffffffffffffffffffffffffffffff16815260200190815260200160002060009054906101000a900460ff16905092915050565b8161280a81612b04565b612849576040517f08c379a000000000000000000000000000000000000000000000000000000000815260040161284090614c7b565b60405180910390fd5b82612852612b70565b73ffffffffffffffffffffffffffffffffffffffff166010600083815260200190815260200160002060010160009054906101000a900473ffffffffffffffffffffffffffffffffffffffff1673ffffffffffffffffffffffffffffffffffffffff16146128f5576040517f08c379a00000000000000000000000000000000000000000000000000000000081526004016128ec90614e7b565b60405180910390fd5b826012600086815260200190815260200160002054141561294b576040517f08c379a000000000000000000000000000000000000000000000000000000000815260040161294290614dfb565b60405180910390fd5b82601260008681526020019081526020016000208190555050505050565b6013602052816000526040600020602052806000526040600020600091509150505481565b600960009054906101000a900473ffffffffffffffffffffffffffffffffffffffff1681565b6129bc612b70565b73ffffffffffffffffffffffffffffffffffffffff16600960009054906101000a900473ffffffffffffffffffffffffffffffffffffffff1673ffffffffffffffffffffffffffffffffffffffff1614612a4b576040517f08c379a0000000000000000000000000000000000000000000000000000000008152600401612a4290614bfb565b60405180910390fd5b80600d541415612a90576040517f08c379a0000000000000000000000000000000000000000000000000000000008152600401612a8790614dfb565b60405180910390fd5b80600d8190555050565b60007f01ffc9a7000000000000000000000000000000000000000000000000000000007bffffffffffffffffffffffffffffffffffffffffffffffffffffffff1916827bffffffffffffffffffffffffffffffffffffffffffffffffffffffff1916149050919050565b60008073ffffffffffffffffffffffffffffffffffffffff166002600084815260200190815260200160002060009054906101000a900473ffffffffffffffffffffffffffffffffffffffff1673ffffffffffffffffffffffffffffffffffffffff1614159050919050565b600033905090565b816004600083815260200190815260200160002060006101000a81548173ffffffffffffffffffffffffffffffffffffffff021916908373ffffffffffffffffffffffffffffffffffffffff160217905550808273ffffffffffffffffffffffffffffffffffffffff16612beb836116fd565b73ffffffffffffffffffffffffffffffffffffffff167f8c5be1e5ebec7d5bd14f71427d1e84f3dd0314c0f7b2291e5b200ac8c7c3b92560405160405180910390a45050565b6000612c3c82612b04565b612c7b576040517f08c379a0000000000000000000000000000000000000000000000000000000008152600401612c7290614c9b565b60405180910390fd5b6000612c86836116fd565b90508073ffffffffffffffffffffffffffffffffffffffff168473ffffffffffffffffffffffffffffffffffffffff161480612cf557508373ffffffffffffffffffffffffffffffffffffffff16612cdd84610a18565b73ffffffffffffffffffffffffffffffffffffffff16145b80612d065750612d05818561276c565b5b91505092915050565b8273ffffffffffffffffffffffffffffffffffffffff16612d2f826116fd565b73ffffffffffffffffffffffffffffffffffffffff1614612d85576040517f08c379a0000000000000000000000000000000000000000000000000000000008152600401612d7c90614e1b565b60405180910390fd5b600073ffffffffffffffffffffffffffffffffffffffff168273ffffffffffffffffffffffffffffffffffffffff161415612df5576040517f08c379a0000000000000000000000000000000000000000000000000000000008152600401612dec90614c1b565b60405180910390fd5b612e00838383613833565b612e0b600082612b78565b6001600360008573ffffffffffffffffffffffffffffffffffffffff1673ffffffffffffffffffffffffffffffffffffffff1681526020019081526020016000206000828254612e5b91906151e9565b925050819055506001600360008473ffffffffffffffffffffffffffffffffffffffff1673ffffffffffffffffffffffffffffffffffffffff1681526020019081526020016000206000828254612eb29190615108565b92505081905550816002600083815260200190815260200160002060006101000a81548173ffffffffffffffffffffffffffffffffffffffff021916908373ffffffffffffffffffffffffffffffffffffffff160217905550808273ffffffffffffffffffffffffffffffffffffffff168473ffffffffffffffffffffffffffffffffffffffff167fddf252ad1be2c89b69c2b068fc378daa952ba7f163c4a11628f55a4df523b3ef60405160405180910390a4505050565b600081600001549050919050565b60008183612f87919061515e565b905092915050565b816010600084815260200190815260200160002060000181905550806010600084815260200190815260200160002060010160006101000a81548173ffffffffffffffffffffffffffffffffffffffff021916908373ffffffffffffffffffffffffffffffffffffffff160217905550600060106000848152602001908152602001600020600201819055506000601060008481526020019081526020016000206003018190555060006010600084815260200190815260200160002060040181905550426010600084815260200190815260200160002060050181905550613083600a544261383890919063ffffffff16565b60106000848152602001908152602001600020600601819055505050565b6001816000016000828254019250508190555050565b6130d182826040518060200160405280600081525061384e565b5050565b6130de82612b04565b61311d576040517f08c379a000000000000000000000000000000000000000000000000000000000815260040161311490614d7b565b60405180910390fd5b80600660008481526020019081526020016000209080519060200190613144929190613e37565b505050565b613154848484612d0f565b613160848484846138a9565b61319f576040517f08c379a000000000000000000000000000000000000000000000000000000000815260040161319690614b7b565b60405180910390fd5b50505050565b6060600b80546131b4906152d3565b80601f01602080910402602001604051908101604052809291908181526020018280546131e0906152d3565b801561322d5780601f106132025761010080835404028352916020019161322d565b820191906000526020600020905b81548152906001019060200180831161321057829003601f168201915b5050505050905090565b606061324282612b04565b613281576040517f08c379a000000000000000000000000000000000000000000000000000000000815260040161327890614e3b565b60405180910390fd5b600061328b6131a5565b905060008151116132ab57604051806020016040528060008152506132d6565b806132b584613a40565b6040516020016132c69291906149f1565b6040516020818303038152906040525b915050919050565b600081836132ec919061518f565b905092915050565b600061330b600e5485612f7990919063ffffffff16565b905060006133228286613bed90919063ffffffff16565b9050600960009054906101000a900473ffffffffffffffffffffffffffffffffffffffff1673ffffffffffffffffffffffffffffffffffffffff166108fc613374600285612f7990919063ffffffff16565b9081150290604051600060405180830381858888f1935050505015801561339f573d6000803e3d6000fd5b508273ffffffffffffffffffffffffffffffffffffffff166108fc6133ce600285612f7990919063ffffffff16565b9081150290604051600060405180830381858888f193505050501580156133f9573d6000803e3d6000fd5b508373ffffffffffffffffffffffffffffffffffffffff166108fc829081150290604051600060405180830381858888f19350505050158015613440573d6000803e3d6000fd5b505050505050565b600080601060008581526020019081526020016000206006015490506000428261347291906151e9565b9050600a5481131561356c576000613495600a5483612f7990919063ffffffff16565b905060006012600088815260200190815260200160002054905060006134c483836132de90919063ffffffff16565b90508673ffffffffffffffffffffffffffffffffffffffff166108fc829081150290604051600060405180830381858888f1935050505015801561350c573d6000803e3d6000fd5b503073ffffffffffffffffffffffffffffffffffffffff1688427f2c240b846992540ea434a02526a11212042d1898771134fd652fc70d2479f59d8a85604051613557929190614ab3565b60405180910390a48095505050505050613573565b6000925050505b92915050565b61358360086130a1565b60006010600085815260200190815260200160002060040154905081816135aa91906151e9565b6013600086815260200190815260200160002060008573ffffffffffffffffffffffffffffffffffffffff1673ffffffffffffffffffffffffffffffffffffffff1681526020019081526020016000208190555050505050565b60004790506000601160008581526020019081526020016000206000600960009054906101000a900473ffffffffffffffffffffffffffffffffffffffff1673ffffffffffffffffffffffffffffffffffffffff1673ffffffffffffffffffffffffffffffffffffffff16815260200190815260200160002054905060006011600086815260200190815260200160002060008573ffffffffffffffffffffffffffffffffffffffff1673ffffffffffffffffffffffffffffffffffffffff16815260200190815260200160002054905060006136fc826136ee8587613bed90919063ffffffff16565b613bed90919063ffffffff16565b90506000613714600283612f7990919063ffffffff16565b90506137298482613bed90919063ffffffff16565b601160008981526020019081526020016000206000600960009054906101000a900473ffffffffffffffffffffffffffffffffffffffff1673ffffffffffffffffffffffffffffffffffffffff1673ffffffffffffffffffffffffffffffffffffffff16815260200190815260200160002060008282546137aa9190615108565b925050819055506137c48382613bed90919063ffffffff16565b6011600089815260200190815260200160002060008873ffffffffffffffffffffffffffffffffffffffff1673ffffffffffffffffffffffffffffffffffffffff16815260200190815260200160002060008282546138239190615108565b9250508190555050505050505050565b505050565b600081836138469190615108565b905092915050565b6138588383613c03565b61386560008484846138a9565b6138a4576040517f08c379a000000000000000000000000000000000000000000000000000000000815260040161389b90614b7b565b60405180910390fd5b505050565b60006138ca8473ffffffffffffffffffffffffffffffffffffffff16613dd1565b15613a33578373ffffffffffffffffffffffffffffffffffffffff1663150b7a026138f3612b70565b8786866040518563ffffffff1660e01b81526004016139159493929190614a67565b602060405180830381600087803b15801561392f57600080fd5b505af192505050801561396057506040513d601f19601f8201168201806040525081019061395d91906141e3565b60015b6139e3573d8060008114613990576040519150601f19603f3d011682016040523d82523d6000602084013e613995565b606091505b506000815114156139db576040517f08c379a00000000000000000000000000000000000000000000000000000000081526004016139d290614b7b565b60405180910390fd5b805181602001fd5b63150b7a0260e01b7bffffffffffffffffffffffffffffffffffffffffffffffffffffffff1916817bffffffffffffffffffffffffffffffffffffffffffffffffffffffff191614915050613a38565b600190505b949350505050565b60606000821415613a88576040518060400160405280600181526020017f30000000000000000000000000000000000000000000000000000000000000008152509050613be8565b600082905060005b60008214613aba578080613aa390615336565b915050600a82613ab3919061515e565b9150613a90565b60008167ffffffffffffffff811115613afc577f4e487b7100000000000000000000000000000000000000000000000000000000600052604160045260246000fd5b6040519080825280601f01601f191660200182016040528015613b2e5781602001600182028036833780820191505090505b5090505b60008514613be157600182613b4791906151e9565b9150600a85613b56919061537f565b6030613b629190615108565b60f81b818381518110613b9e577f4e487b7100000000000000000000000000000000000000000000000000000000600052603260045260246000fd5b60200101907effffffffffffffffffffffffffffffffffffffffffffffffffffffffffffff1916908160001a905350600a85613bda919061515e565b9450613b32565b8093505050505b919050565b60008183613bfb91906151e9565b905092915050565b600073ffffffffffffffffffffffffffffffffffffffff168273ffffffffffffffffffffffffffffffffffffffff161415613c73576040517f08c379a0000000000000000000000000000000000000000000000000000000008152600401613c6a90614d9b565b60405180910390fd5b613c7c81612b04565b15613cbc576040517f08c379a0000000000000000000000000000000000000000000000000000000008152600401613cb390614bbb565b60405180910390fd5b613cc860008383613833565b6001600360008473ffffffffffffffffffffffffffffffffffffffff1673ffffffffffffffffffffffffffffffffffffffff1681526020019081526020016000206000828254613d189190615108565b92505081905550816002600083815260200190815260200160002060006101000a81548173ffffffffffffffffffffffffffffffffffffffff021916908373ffffffffffffffffffffffffffffffffffffffff160217905550808273ffffffffffffffffffffffffffffffffffffffff16600073ffffffffffffffffffffffffffffffffffffffff167fddf252ad1be2c89b69c2b068fc378daa952ba7f163c4a11628f55a4df523b3ef60405160405180910390a45050565b600080823b905060008111915050919050565b6040518060e0016040528060008152602001600073ffffffffffffffffffffffffffffffffffffffff16815260200160008152602001600081526020016000815260200160008152602001600081525090565b828054613e43906152d3565b90600052602060002090601f016020900481019282613e655760008555613eac565b82601f10613e7e57805160ff1916838001178555613eac565b82800160010185558215613eac579182015b82811115613eab578251825591602001919060010190613e90565b5b509050613eb99190613ebd565b5090565b5b80821115613ed6576000816000905550600101613ebe565b5090565b6000613eed613ee88461502a565b615005565b905082815260208101848484011115613f0557600080fd5b613f10848285615291565b509392505050565b6000613f2b613f268461505b565b615005565b905082815260208101848484011115613f4357600080fd5b613f4e848285615291565b509392505050565b600081359050613f6581615e17565b92915050565b600081359050613f7a81615e2e565b92915050565b600081359050613f8f81615e45565b92915050565b600081519050613fa481615e45565b92915050565b600082601f830112613fbb57600080fd5b8135613fcb848260208601613eda565b91505092915050565b600082601f830112613fe557600080fd5b8135613ff5848260208601613f18565b91505092915050565b60008135905061400d81615e5c565b92915050565b60006020828403121561402557600080fd5b600061403384828501613f56565b91505092915050565b6000806040838503121561404f57600080fd5b600061405d85828601613f56565b925050602061406e85828601613f56565b9150509250929050565b60008060006060848603121561408d57600080fd5b600061409b86828701613f56565b93505060206140ac86828701613f56565b92505060406140bd86828701613ffe565b9150509250925092565b600080600080608085870312156140dd57600080fd5b60006140eb87828801613f56565b94505060206140fc87828801613f56565b935050604061410d87828801613ffe565b925050606085013567ffffffffffffffff81111561412a57600080fd5b61413687828801613faa565b91505092959194509250565b6000806040838503121561415557600080fd5b600061416385828601613f56565b925050602061417485828601613f6b565b9150509250929050565b6000806040838503121561419157600080fd5b600061419f85828601613f56565b92505060206141b085828601613ffe565b9150509250929050565b6000602082840312156141cc57600080fd5b60006141da84828501613f80565b91505092915050565b6000602082840312156141f557600080fd5b600061420384828501613f95565b91505092915050565b60006020828403121561421e57600080fd5b600082013567ffffffffffffffff81111561423857600080fd5b61424484828501613fd4565b91505092915050565b6000806040838503121561426057600080fd5b600083013567ffffffffffffffff81111561427a57600080fd5b61428685828601613fd4565b925050602061429785828601613f56565b9150509250929050565b6000602082840312156142b357600080fd5b60006142c184828501613ffe565b91505092915050565b600080604083850312156142dd57600080fd5b60006142eb85828601613ffe565b92505060206142fc85828601613f56565b9150509250929050565b6000806040838503121561431957600080fd5b600061432785828601613ffe565b925050602061433885828601613ffe565b9150509250929050565b600061434e838361492e565b60e08301905092915050565b6143638161521d565b82525050565b6143728161521d565b82525050565b60006143838261509c565b61438d81856150ca565b93506143988361508c565b8060005b838110156143c95781516143b08882614342565b97506143bb836150bd565b92505060018101905061439c565b5085935050505092915050565b6143df8161522f565b82525050565b60006143f0826150a7565b6143fa81856150db565b935061440a8185602086016152a0565b6144138161546c565b840191505092915050565b6000614429826150b2565b61443381856150ec565b93506144438185602086016152a0565b61444c8161546c565b840191505092915050565b6000614462826150b2565b61446c81856150fd565b935061447c8185602086016152a0565b80840191505092915050565b60006144956027836150ec565b91506144a08261547d565b604082019050919050565b60006144b86023836150ec565b91506144c3826154cc565b604082019050919050565b60006144db6032836150ec565b91506144e68261551b565b604082019050919050565b60006144fe6036836150ec565b91506145098261556a565b604082019050919050565b6000614521601c836150ec565b915061452c826155b9565b602082019050919050565b6000614544602f836150ec565b915061454f826155e2565b604082019050919050565b6000614567602d836150ec565b915061457282615631565b604082019050919050565b600061458a6024836150ec565b915061459582615680565b604082019050919050565b60006145ad6019836150ec565b91506145b8826156cf565b602082019050919050565b60006145d06018836150ec565b91506145db826156f8565b602082019050919050565b60006145f36014836150ec565b91506145fe82615721565b602082019050919050565b6000614616602c836150ec565b91506146218261574a565b604082019050919050565b6000614639602d836150ec565b915061464482615799565b604082019050919050565b600061465c6029836150ec565b9150614667826157e8565b604082019050919050565b600061467f602f836150ec565b915061468a82615837565b604082019050919050565b60006146a26038836150ec565b91506146ad82615886565b604082019050919050565b60006146c5602a836150ec565b91506146d0826158d5565b604082019050919050565b60006146e86029836150ec565b91506146f382615924565b604082019050919050565b600061470b602e836150ec565b915061471682615973565b604082019050919050565b600061472e6020836150ec565b9150614739826159c2565b602082019050919050565b60006147516031836150ec565b915061475c826159eb565b604082019050919050565b6000614774602c836150ec565b915061477f82615a3a565b604082019050919050565b60006147976032836150ec565b91506147a282615a89565b604082019050919050565b60006147ba6029836150ec565b91506147c582615ad8565b604082019050919050565b60006147dd602f836150ec565b91506147e882615b27565b604082019050919050565b6000614800602c836150ec565b915061480b82615b76565b604082019050919050565b60006148236025836150ec565b915061482e82615bc5565b604082019050919050565b60006148466017836150ec565b915061485182615c14565b602082019050919050565b60006148696021836150ec565b915061487482615c3d565b604082019050919050565b600061488c6027836150ec565b915061489782615c8c565b604082019050919050565b60006148af6031836150ec565b91506148ba82615cdb565b604082019050919050565b60006148d26040836150ec565b91506148dd82615d2a565b604082019050919050565b60006148f56047836150ec565b915061490082615d79565b606082019050919050565b60006149186020836150ec565b915061492382615dee565b602082019050919050565b60e08201600082015161494460008501826149bc565b506020820151614957602085018261435a565b50604082015161496a60408501826149bc565b50606082015161497d60608501826149bc565b50608082015161499060808501826149bc565b5060a08201516149a360a08501826149bc565b5060c08201516149b660c08501826149bc565b50505050565b6149c581615287565b82525050565b6149d481615287565b82525050565b60006149e68284614457565b915081905092915050565b60006149fd8285614457565b9150614a098284614457565b91508190509392505050565b6000602082019050614a2a6000830184614369565b92915050565b6000606082019050614a456000830186614369565b614a526020830185614369565b614a5f60408301846149cb565b949350505050565b6000608082019050614a7c6000830187614369565b614a896020830186614369565b614a9660408301856149cb565b8181036060830152614aa881846143e5565b905095945050505050565b6000604082019050614ac86000830185614369565b614ad560208301846149cb565b9392505050565b60006020820190508181036000830152614af68184614378565b905092915050565b6000602082019050614b1360008301846143d6565b92915050565b60006020820190508181036000830152614b33818461441e565b905092915050565b60006020820190508181036000830152614b5481614488565b9050919050565b60006020820190508181036000830152614b74816144ab565b9050919050565b60006020820190508181036000830152614b94816144ce565b9050919050565b60006020820190508181036000830152614bb4816144f1565b9050919050565b60006020820190508181036000830152614bd481614514565b9050919050565b60006020820190508181036000830152614bf481614537565b9050919050565b60006020820190508181036000830152614c148161455a565b9050919050565b60006020820190508181036000830152614c348161457d565b9050919050565b60006020820190508181036000830152614c54816145a0565b9050919050565b60006020820190508181036000830152614c74816145c3565b9050919050565b60006020820190508181036000830152614c94816145e6565b9050919050565b60006020820190508181036000830152614cb481614609565b9050919050565b60006020820190508181036000830152614cd48161462c565b9050919050565b60006020820190508181036000830152614cf48161464f565b9050919050565b60006020820190508181036000830152614d1481614672565b9050919050565b60006020820190508181036000830152614d3481614695565b9050919050565b60006020820190508181036000830152614d54816146b8565b9050919050565b60006020820190508181036000830152614d74816146db565b9050919050565b60006020820190508181036000830152614d94816146fe565b9050919050565b60006020820190508181036000830152614db481614721565b9050919050565b60006020820190508181036000830152614dd481614744565b9050919050565b60006020820190508181036000830152614df481614767565b9050919050565b60006020820190508181036000830152614e148161478a565b9050919050565b60006020820190508181036000830152614e34816147ad565b9050919050565b60006020820190508181036000830152614e54816147d0565b9050919050565b60006020820190508181036000830152614e74816147f3565b9050919050565b60006020820190508181036000830152614e9481614816565b9050919050565b60006020820190508181036000830152614eb481614839565b9050919050565b60006020820190508181036000830152614ed48161485c565b9050919050565b60006020820190508181036000830152614ef48161487f565b9050919050565b60006020820190508181036000830152614f14816148a2565b9050919050565b60006020820190508181036000830152614f34816148c5565b9050919050565b60006020820190508181036000830152614f54816148e8565b9050919050565b60006020820190508181036000830152614f748161490b565b9050919050565b6000602082019050614f9060008301846149cb565b92915050565b600060e082019050614fab600083018a6149cb565b614fb86020830189614369565b614fc560408301886149cb565b614fd260608301876149cb565b614fdf60808301866149cb565b614fec60a08301856149cb565b614ff960c08301846149cb565b98975050505050505050565b600061500f615020565b905061501b8282615305565b919050565b6000604051905090565b600067ffffffffffffffff8211156150455761504461543d565b5b61504e8261546c565b9050602081019050919050565b600067ffffffffffffffff8211156150765761507561543d565b5b61507f8261546c565b9050602081019050919050565b6000819050602082019050919050565b600081519050919050565b600081519050919050565b600081519050919050565b6000602082019050919050565b600082825260208201905092915050565b600082825260208201905092915050565b600082825260208201905092915050565b600081905092915050565b600061511382615287565b915061511e83615287565b9250827fffffffffffffffffffffffffffffffffffffffffffffffffffffffffffffffff03821115615153576151526153b0565b5b828201905092915050565b600061516982615287565b915061517483615287565b925082615184576151836153df565b5b828204905092915050565b600061519a82615287565b91506151a583615287565b9250817fffffffffffffffffffffffffffffffffffffffffffffffffffffffffffffffff04831182151516156151de576151dd6153b0565b5b828202905092915050565b60006151f482615287565b91506151ff83615287565b925082821015615212576152116153b0565b5b828203905092915050565b600061522882615267565b9050919050565b60008115159050919050565b60007fffffffff0000000000000000000000000000000000000000000000000000000082169050919050565b600073ffffffffffffffffffffffffffffffffffffffff82169050919050565b6000819050919050565b82818337600083830152505050565b60005b838110156152be5780820151818401526020810190506152a3565b838111156152cd576000848401525b50505050565b600060028204905060018216806152eb57607f821691505b602082108114156152ff576152fe61540e565b5b50919050565b61530e8261546c565b810181811067ffffffffffffffff8211171561532d5761532c61543d565b5b80604052505050565b600061534182615287565b91507fffffffffffffffffffffffffffffffffffffffffffffffffffffffffffffffff821415615374576153736153b0565b5b600182019050919050565b600061538a82615287565b915061539583615287565b9250826153a5576153a46153df565b5b828206905092915050565b7f4e487b7100000000000000000000000000000000000000000000000000000000600052601160045260246000fd5b7f4e487b7100000000000000000000000000000000000000000000000000000000600052601260045260246000fd5b7f4e487b7100000000000000000000000000000000000000000000000000000000600052602260045260246000fd5b7f4e487b7100000000000000000000000000000000000000000000000000000000600052604160045260246000fd5b6000601f19601f8301169050919050565b7f546869732061737365742069732063757272656e746c79206e6f74207570206660008201527f6f722073616c6500000000000000000000000000000000000000000000000000602082015250565b7f596f7520617265206e6f7420746865206f776e6572206f66207468697320617360008201527f7365740000000000000000000000000000000000000000000000000000000000602082015250565b7f4552433732313a207472616e7366657220746f206e6f6e20455243373231526560008201527f63656976657220696d706c656d656e7465720000000000000000000000000000602082015250565b7f54696d6520686173206e6f7420796574206578706972656420666f7220796f7560008201527f20746f207265636c61696d207468697320617373657400000000000000000000602082015250565b7f4552433732313a20746f6b656e20616c7265616479206d696e74656400000000600082015250565b7f596f7520646f206e6f74206861766520616e792066756e647320617661696c6160008201527f626c6520746f2077697468647261770000000000000000000000000000000000602082015250565b7f596f7520617265206e6f7420617574686f72697a656420746f20706572666f7260008201527f6d207468697320616374696f6e00000000000000000000000000000000000000602082015250565b7f4552433732313a207472616e7366657220746f20746865207a65726f2061646460008201527f7265737300000000000000000000000000000000000000000000000000000000602082015250565b7f4552433732313a20617070726f766520746f2063616c6c657200000000000000600082015250565b7f496e636f7272656374207061796d656e7420616d6f756e740000000000000000600082015250565b7f546f6b656e20646f6573206e6f74206578697374000000000000000000000000600082015250565b7f4552433732313a206f70657261746f7220717565727920666f72206e6f6e657860008201527f697374656e7420746f6b656e0000000000000000000000000000000000000000602082015250565b7f4120666f7265636c6f73757265206f6e2074686973206173736574206861732060008201527f616c726561647920626567756e00000000000000000000000000000000000000602082015250565b7f596f75206d7573742073657420612073616c657320707269636520677265617460008201527f6572207468616e20300000000000000000000000000000000000000000000000602082015250565b7f596f7520617265206e6f74207468652061646d696e206e6f722063726561746f60008201527f72206f6620746869732061737365740000000000000000000000000000000000602082015250565b7f4552433732313a20617070726f76652063616c6c6572206973206e6f74206f7760008201527f6e6572206e6f7220617070726f76656420666f7220616c6c0000000000000000602082015250565b7f4552433732313a2062616c616e636520717565727920666f7220746865207a6560008201527f726f206164647265737300000000000000000000000000000000000000000000602082015250565b7f4552433732313a206f776e657220717565727920666f72206e6f6e657869737460008201527f656e7420746f6b656e0000000000000000000000000000000000000000000000602082015250565b7f45524337323155524953746f726167653a2055524920736574206f66206e6f6e60008201527f6578697374656e7420746f6b656e000000000000000000000000000000000000602082015250565b7f4552433732313a206d696e7420746f20746865207a65726f2061646472657373600082015250565b7f45524337323155524953746f726167653a2055524920717565727920666f722060008201527f6e6f6e6578697374656e7420746f6b656e000000000000000000000000000000602082015250565b7f4552433732313a20617070726f76656420717565727920666f72206e6f6e657860008201527f697374656e7420746f6b656e0000000000000000000000000000000000000000602082015250565b7f4e65772076616c7565206d75737420626520646966666572656e74207468616e60008201527f207468652063757272656e742076616c75650000000000000000000000000000602082015250565b7f4552433732313a207472616e73666572206f6620746f6b656e2074686174206960008201527f73206e6f74206f776e0000000000000000000000000000000000000000000000602082015250565b7f4552433732314d657461646174613a2055524920717565727920666f72206e6f60008201527f6e6578697374656e7420746f6b656e0000000000000000000000000000000000602082015250565b7f596f75206d757374206465706f73697420612074617820616d6f756e7420677260008201527f6561746572207468616e20300000000000000000000000000000000000000000602082015250565b7f596f7520617265206e6f74207468652063726561746f72206f6620746869732060008201527f6173736574000000000000000000000000000000000000000000000000000000602082015250565b7f546f6b656e55524920616c726561647920657869737473000000000000000000600082015250565b7f4552433732313a20617070726f76616c20746f2063757272656e74206f776e6560008201527f7200000000000000000000000000000000000000000000000000000000000000602082015250565b7f596f752061726520616c726561647920746865206f776e6572206f662074686960008201527f7320617373657400000000000000000000000000000000000000000000000000602082015250565b7f4552433732313a207472616e736665722063616c6c6572206973206e6f74206f60008201527f776e6572206e6f7220617070726f766564000000000000000000000000000000602082015250565b7f596f757220696e697469616c206465706f736974206d757374206e6f7420626560008201527f206c657373207468616e207468652063757272656e7420746178207072696365602082015250565b7f5472616e736665722063616c6c6572206973206e6f7420746865206f776e657260008201527f2c20617070726f766564206e6f72207468652063726561746f72206f6620746860208201527f6520617373657400000000000000000000000000000000000000000000000000604082015250565b7f596f75206d7573742066697273742073657420612073616c6573207072696365600082015250565b615e208161521d565b8114615e2b57600080fd5b50565b615e378161522f565b8114615e4257600080fd5b50565b615e4e8161523b565b8114615e5957600080fd5b50565b615e6581615287565b8114615e7057600080fd5b5056fea2646970667358221220a1bc229111a96aaf3393b0cc16fc5af0a8891db76253d5480c8ce17b8658c84464736f6c63430008030033",
  "linkReferences": {},
  "deployedLinkReferences": {}
}